:020000040800F2
:1000000000280020810B0008250B00082B0B00089E
:10001000310B0008370B00083D0B00080000000002
:10002000000000000000000000000000430B00087A
:100030004F0B0008000000005B0B0008670B000876
:10004000C90B0008C90B0008C90B0008C90B000840
:10005000C90B0008C90B0008C90B0008C90B000830
:10006000C90B0008C90B0008C90B0008C90B000820
:10007000C90B0008C90B0008C90B0008C90B000810
:10008000C90B0008C90B0008C90B0008C90B000800
:10009000C90B0008C90B0008C90B0008C90B0008F0
:1000A000C90B0008C90B0008C90B0008C90B0008E0
:1000B000C90B0008C90B000800000000C90B0008AC
:1000C000C90B00080000000000000000C90B000878
:1000D00000000000C90B0008C90B00080000000068
:1000E000C90B0008C90B0008C90B0008000000007C
:1000F0000000000000000000000000000000000000
:0C01000000000000000000005FF808F1A3
:10010C0010B5054C237833B9044B13B10448AFF345
:10011C0000800123237010BD24000020000000008B
:10012C00281F000808B5034B1BB103490348AFF364
:10013C00008008BD0000000028000020281F0008D7
:10014C0080B582B000AF78607B68092B00F28081AB
:10015C0001A252F823F000BF8D010008D501000860
:10016C001D02000865020008AD020008F502000837
:10017C003D03000885030008CD03000815040008A2
:10018C0000220121B44800F0F2FF00220221B24803
:10019C0000F0EDFF00220421AF4800F0E8FF002240
:1001AC000821AD4800F0E3FF00221021AA4800F01E
:1001BC00DEFF00222021A84800F0D9FF01224021B7
:1001CC00A54800F0D4FF43E101220121A24800F030
:1001DC00CEFF00220221A04800F0C9FF002204211A
:1001EC009D4800F0C4FF012208219B4800F0BFFF8E
:1001FC0001221021984800F0BAFF012220219648D4
:10020C0000F0B5FF01224021934800F0B0FF1FE140
:10021C0000220121904800F0AAFF002202218E4802
:10022C0000F0A5FF012204218B4800F0A0FF002262
:10023C000821894800F09BFF00221021864800F01D
:10024C0096FF01222021844800F091FF00224021DA
:10025C00814800F08CFFFBE0002201217E4800F079
:10026C0086FF002202217C4800F081FF002204213D
:10027C00794800F07CFF00220821774800F077FFD6
:10028C0001221021744800F072FF012220217248D3
:10029C0000F06DFF002240216F4800F068FFD7E0AE
:1002AC00012201216C4800F062FF002202216A4801
:1002BC0000F05DFF00220421674800F058FF012286
:1002CC000821654800F053FF01221021624800F01C
:1002DC004EFF00222021604800F049FF00224021FF
:1002EC005D4800F044FFB3E0002201215A4800F0C1
:1002FC003EFF01220221584800F039FF0022042160
:10030C00554800F034FF00220821534800F02FFF1D
:10031C0001221021504800F02AFF002220214E48D3
:10032C0000F025FF002240214B4800F020FF8FE019
:10033C0000220121484800F01AFF01220221464800
:10034C0000F015FF00220421434800F010FF0022AA
:10035C000821414800F00BFF002210213E4800F01C
:10036C0006FF002220213C4800F001FF0022402122
:10037C00394800F0FCFE6BE000220121364800F009
:10038C00F6FE00220221344800F0F1FE0022042186
:10039C00314800F0ECFE012208212F4800F0E7FE66
:1003AC00012210212C4800F0E2FE012220212A48D3
:1003BC0000F0DDFE01224021274800F0D8FE47E086
:1003CC0000220121244800F0D2FE00220221224802
:1003DC0000F0CDFE002204211F4800F0C8FE0022D0
:1003EC0008211D4800F0C3FE002210211A4800F01D
:1003FC00BEFE00222021184800F0B9FE0022402148
:10040C00154800F0B4FE23E000220121124800F050
:10041C00AEFE00220221104800F0A9FE00220421A9
:10042C000D4800F0A4FE002208210B4800F09FFEAE
:10043C0001221021084800F09AFE002220210648D3
:10044C0000F095FE00224021034800F090FE00BF12
:10045C0000BF0837BD4680BD000C014080B582B09E
:10046C0000AF78607B68032B76D801A252F823F09A
:10047C008D040008C3040008F90400082F050008C7
:10048C0000222021374800F072FE0122402135481D
:10049C0000F06DFE01228021324800F068FE01223E
:1004AC004FF480712F4800F062FE2F4B1B681846EA
:1004BC00FFF746FE51E0012220212A4800F057FEAA
:1004CC0000224021274800F052FE012280212548BD
:1004DC0000F04DFE01224FF48071224800F047FEDF
:1004EC00214B5B681846FFF72BFE36E001222021DA
:1004FC001C4800F03CFE012240211A4800F037FE57
:10050C0000228021174800F032FE01224FF4807146
:10051C00144800F02CFE144B9B681846FFF710FE95
:10052C001BE0012220210F4800F021FE0122402176
:10053C000C4800F01CFE012280210A4800F017FE36
:10054C0000224FF48071074800F011FE064BDB6867
:10055C001846FFF7F5FD00E000BF00BF0837BD46A9
:10056C0080BD00BF000801401401002080B582B09E
:10057C0000AF00237B6088E0484A7B6852F8232058
:10058C0047497B6841F82320464A7B6852F8232070
:10059C0042497B6841F82320434A7B6852F8232068
:1005AC0042497B6831F813301946104600F0C8FDFB
:1005BC00034619463B4A7B6842F82310374A7B684E
:1005CC0052F8232037497B6851F823309A4259D18D
:1005DC00324A7B6852F8232031497B6851F823302A
:1005EC009A424FD12E4A7B6852F8232030497B68BF
:1005FC0051F823309A4225D0294A7B6852F823209F
:10060C002B497B6841F82320294A7B6852F8233018
:10061C00002B05D1274A7B68C82142F8231031E012
:10062C00244A7B6852F82330002B2BDD214A7B684F
:10063C0052F82330C72B25DC1F4A7B68012142F876
:10064C0023101FE01A4A7B6852F82330002B19D173
:10065C00184A7B6852F82330002B08DD154A7B685A
:10066C0052F823305A1E13497B6841F82320114A53
:10067C007B6852F82330002B04D1104A7B6801218F
:10068C0042F823107B6801337B607B68032B7FF778
:10069C0073AF00BF00BF0837BD4680BDB40000205B
:1006AC00F4000020A4000020000000201000002016
:1006BC0094000020C4000020D4000020040100207D
:1006CC0080B500AF00F07CFA00F022F800F0A8F83A
:1006DC0000F05AF80A4801F08FF90A220021094863
:1006EC0000F004F90A220021074800F0FFF8192253
:1006FC000021064800F0FAF800F04EF9FCE700BFC4
:10070C0024010020290A0008790500086904000862
:10071C0080B590B000AF07F11803282200211846CD
:10072C0001F0F4FB3B1D00221A605A609A60DA60FB
:10073C001A610223BB610123BB621023FB620023FD
:10074C007B6307F11803184600F02AFD0346002BC3
:10075C0001D000F0C5F80F237B600023BB600023A1
:10076C00FB6000233B6100237B613B1D002118468D
:10077C0000F096FF0346002B01D000F0B1F800BF4B
:10078C004037BD4680BD000080B586B000AF07F194
:10079C00080300221A605A609A60DA603B46002215
:1007AC001A605A601D4B4FF080421A601B4B41F689
:1007BC003F725A60194B00229A60184B0922DA607A
:1007CC00164B00221A61154B00229A61134801F056
:1007DC00C3F80346002B01D000F082F84FF480538D
:1007EC00BB6007F1080319460C4801F051F90346A8
:1007FC00002B01D000F074F800233B6000237B60D9
:10080C003B461946054801F005FB0346002B01D079
:10081C0000F066F800BF1837BD4680BD24010020EB
:10082C0080B586B000AF07F1080300221A605A6049
:10083C009A60DA60274B9B69264A43F00403936164
:10084C00244B9B6903F004037B607B68214B9B6901
:10085C00204A43F0080393611E4B9B6903F0080385
:10086C003B603B6800224FF6E0511B4800F07FFCD8
:10087C0000227F21194800F07AFC1E23BB60002364
:10088C00FB6001233B6107F108031946124800F095
:10089C00DDFA4FF6E053BB600123FB6000233B61A4
:1008AC0002237B6107F1080319460B4800F0CEFACE
:1008BC007F23BB600123FB6000233B6102237B6130
:1008CC0007F108031946054800F0C0FA00BF1837B5
:1008DC00BD4680BD0010024000080140000C0140E4
:1008EC0080B400AF72B600BFFEE7000080B485B0E4
:1008FC0000AFF860B9607A60254B1B78272B42D883
:10090C00234B1B781946234A0B469B000B449B0038
:10091C001344FA681A601E4B1B7819461D4A0B4685
:10092C009B000B449B0013440433BA681A60184BA9
:10093C001B781946174A0B469B000B449B0013442B
:10094C0008337A681A60124B1B781946114A0B4609
:10095C009B000B449B0013440C3300221A700C4B6D
:10096C001A780B4B1B78194610460A4A0B469B000B
:10097C000B449B00134410331860054B1B78013358
:10098C00DAB2034B1A7000BF1437BD4680BC7047F7
:10099C00900000206C01002080B582B000AF0023D5
:1009AC007B602BE01B497A6813469B0013449B0029
:1009BC000B440C331B78002B1DD016497A68134658
:1009CC009B0013449B000B441B68984711497A68A1
:1009DC0013469B0013449B000B440C331B78013BC8
:1009EC00D8B20C497A6813469B0013449B000B4405
:1009FC000C3302461A707B6801337B60064B1B7804
:100A0C001A467B689342CDDB00BF00BF0837BD465A
:100A1C0080BD00BF6C0100209000002080B483B02A
:100A2C0000AF00237B601CE0124A7B6852F8233035
:100A3C00002B13DD0F4A7B6852F823305A1E0D49E8
:100A4C007B6841F823200B4A7B6852F82330002B3B
:100A5C0004DC094A7B68012142F823107B680133CE
:100A6C007B607B68092BDFDD00BF00BF0C37BD4608
:100A7C0080BC7047400000206800002080B485B026
:100A8C0000AF154B9B69144A43F001039361124B61
:100A9C009B6903F00103BB60BB680F4BDB690E4A1B
:100AAC0043F08053D3610C4BDB6903F080537B60C4
:100ABC007B680A4B5B68FB60FB6823F0E063FB60C0
:100ACC00FB6843F08063FB60044AFB68536000BF23
:100ADC001437BD4680BC7047001002400000014036
:100AEC0080B485B000AF78607B681B68B3F1804F31
:100AFC000BD1084BDB69074A43F00103D361054B6B
:100B0C00DB6903F00103FB60FB6800BF1437BD46D3
:100B1C0080BC70470010024080B400AFFEE780B488
:100B2C0000AFFEE780B400AFFEE780B400AFFEE795
:100B3C0080B400AFFEE780B400AF00BFBD4680BC00
:100B4C00704780B400AF00BFBD4680BC704780B416
:100B5C0000AF00BFBD4680BC704780B500AF00F051
:100B6C0075F800BF80BD80B400AF00BFBD4680BC2F
:100B7C0070470000FFF7F7FF0B480C490C4A0023A5
:100B8C0002E0D458C4500433C4188C42F9D3094A37
:100B9C00094C002301E013600432A242FBD301F0A4
:100BAC0091F9FFF78DFD7047000000202400002014
:100BBC006C1F00082400002090040020FEE70000B9
:100BCC0080B500AF084B1B68074A43F01003136055
:100BDC00032000F007F90F2000F008F8FFF74EFF94
:100BEC000023184680BD00BF0020024080B582B0B3
:100BFC0000AF7860124B1A68124B1B7819464FF4F1
:100C0C007A73B3FBF1F3B2FBF3F3184600F011F96E
:100C1C000346002B01D001230EE07B680F2B0AD872
:100C2C00002279684FF0FF3000F0E7F8064A7B6845
:100C3C001360002300E0012318460837BD4680BD31
:100C4C0018000020200000201C00002080B400AF01
:100C5C00054B1B781A46054B1B681344034A13605B
:100C6C0000BFBD4680BC7047200000208C040020D3
:100C7C0080B400AF024B1B681846BD4680BC704761
:100C8C008C04002080B485B000AF78607B6803F0E2
:100C9C000703FB600C4BDB68BB60BA684FF6FF03C5
:100CAC001340BB60FB681A02BB68134343F0BF637D
:100CBC0043F40033BB60044ABB68D36000BF1437F5
:100CCC00BD4680BC704700BF00ED00E080B400AFB3
:100CDC00044BDB681B0A03F007031846BD4680BCB7
:100CEC00704700BF00ED00E080B483B000AF034656
:100CFC003960FB7197F90730002B0ADB3B68DAB2DD
:100D0C000C4997F907301201D2B20B4483F8002337
:100D1C000AE03B68DAB20849FB7903F00F03043BA5
:100D2C001201D2B20B441A7600BF0C37BD4680BC00
:100D3C00704700BF00E100E000ED00E080B489B036
:100D4C0000AFF860B9607A60FB6803F00703FB61E1
:100D5C00FB69C3F10703042B28BF0423BB61FB69A8
:100D6C000433062B02D9FB69033B00E000237B61B3
:100D7C004FF0FF32BB6902FA03F3DA43BB681A4047
:100D8C007B699A404FF0FF317B6901FA03F3D94339
:100D9C007B680B40134318462437BD4680BC704714
:100DAC0080B582B000AF78607B68013BB3F1807F87
:100DBC0001D301230FE00A4A7B68013B53600F21EA
:100DCC004FF0FF30FFF790FF054B00229A60044B69
:100DDC0007221A60002318460837BD4680BD00BFA5
:100DEC0010E000E080B582B000AF78607868FFF763
:100DFC0049FF00BF0837BD4680BD80B586B000AF47
:100E0C000346B9607A60FB7300237B61FFF75EFFDA
:100E1C0078617A68B9687869FFF790FF024697F9AC
:100E2C000F3011461846FFF75FFF00BF1837BD465D
:100E3C0080BD80B582B000AF78607868FFF7B0FFF6
:100E4C00034618460837BD4680BD000080B48BB001
:100E5C0000AF7860396000237B6200233B6248E17D
:100E6C0001227B6A02FA03F3FB613B681B68FA6997
:100E7C001340BB61BA69FB699A4240F037813B6809
:100E8C005B68A34A93425ED0A14A934275D8A14AAB
:100E9C00934258D09F4A93426FD89F4A934252D064
:100EAC009D4A934269D89D4A93424CD09B4A9342A7
:100EBC0063D89B4A934246D0994A93425DD8122BF1
:100ECC002AD8122B59D801A252F823F0530F00083C
:100EDC002D0F00083F0F0008810F0008870F000836
:100EEC00870F0008870F0008870F0008870F00087E
:100EFC00870F0008870F0008870F0008870F00086E
:100F0C00870F0008870F0008870F0008870F00085D
:100F1C00350F0008490F0008824A934213D02CE089
:100F2C003B68DB683B6229E03B68DB6804333B626F
:100F3C0024E03B68DB6808333B621FE03B68DB68FE
:100F4C000C333B621AE03B689B68002B02D10423F4
:100F5C003B6213E03B689B68012B05D108233B6285
:100F6C007B68FA691A6109E008233B627B68FA69BD
:100F7C005A6103E000233B6200E000BFBB69FF2B1A
:100F8C0001D87B6801E07B6804337B61BB69FF2B74
:100F9C0002D87B6A9B0002E07B6A083B9B003B61AA
:100FAC007B691A680F213B6901FA03F3DB431A4092
:100FBC00396A3B6901FA03F31A437B691A603B688F
:100FCC005B6803F08053002B00F09080564B9B69BC
:100FDC00554A43F001039361534B9B6903F00103A2
:100FEC00BB60BB68514A7B6A9B08023352F82330C2
:100FFC00FB607B6A03F003039B000F2202FA03F3EE
:10100C00DB43FA681340FB607B68494A93420DD07E
:10101C007B68484A934207D07B68474A934201D188
:10102C00022304E0032302E0012300E000237A6A98
:10103C0002F0030292009340FA681343FB603B49B1
:10104C007B6A9B080233FA6841F823203B685B6893
:10105C0003F48013002B06D0384B9A683749BB69D0
:10106C0013438B6006E0354B9A68BB69DB4333490D
:10107C0013408B603B685B6803F40013002B06D0B5
:10108C002E4BDA682D49BB691343CB6006E02B4B22
:10109C00DA68BB69DB4329491340CB603B685B686A
:1010AC0003F40033002B06D0244B5A682349BB6948
:1010BC0013434B6006E0214B5A68BB69DB431F4965
:1010CC0013404B603B685B6803F48033002B06D005
:1010DC001A4B1A681949BB6913430B6006E0174B8E
:1010EC001A68BB69DB43154913400B607B6A0133FB
:1010FC007B623B681A687B6A22FA03F3002B7FF44D
:10110C00AFAE00BF00BF2C37BD4680BC704700BFE0
:10111C0000003210000031100000221000002110DD
:10112C0000001210000011100010024000000140DD
:10113C0000080140000C0140001001400004014077
:10114C0080B485B000AF78600B467B807B689A6872
:10115C007B881340002B02D00123FB7301E000239A
:10116C00FB73FB7B18461437BD4680BC704780B4BC
:10117C0083B000AF78600B467B8013467B707B7826
:10118C00002B03D07A887B681A6103E07B881A04F1
:10119C007B681A6100BF0C37BD4680BC70470000ED
:1011AC0080B586B000AF78607B68002B01D101233D
:1011BC006CE27B681B6803F00103002B00F0878056
:1011CC00924B5B6803F00C03042B0CD08F4B5B68C9
:1011DC0003F00C03082B12D18C4B5B6803F48033A7
:1011EC00B3F5803F0BD1894B1B6803F40033002B04
:1011FC006CD07B685B68002B68D1012346E27B686E
:10120C005B68B3F5803F06D1804B1B687F4A43F483
:10121C00803313602EE07B685B68002B0CD17B4B1A
:10122C001B687A4A23F480331360784B1B68774A27
:10123C0023F4802313601DE07B685B68B3F5A02F5B
:10124C000CD1724B1B68714A43F4802313606F4BB3
:10125C001B686E4A43F4803313600BE06B4B1B68C6
:10126C006A4A23F480331360684B1B68674A23F483
:10127C00802313607B685B68002B13D0FFF7F8FCAE
:10128C00386108E0FFF7F4FC02463B69D31A642B83
:10129C0001D90323FAE15D4B1B6803F40033002BE7
:1012AC00F0D014E0FFF7E4FC386108E0FFF7E0FC55
:1012BC0002463B69D31A642B01D90323E6E1534B55
:1012CC001B6803F40033002BF0D100E000BF7B68F7
:1012DC001B6803F00203002B63D04C4B5B6803F0DC
:1012EC000C03002B0BD0494B5B6803F00C03082B51
:1012FC001CD1464B5B6803F48033002B16D1434B57
:10130C001B6803F00203002B05D07B681B69012BC3
:10131C0001D00123BAE13D4B1B6823F0F8027B6836
:10132C005B69DB00394913430B603AE07B681B694E
:10133C00002B20D0364B01221A60FFF799FC386144
:10134C0008E0FFF795FC02463B69D31A022B01D942
:10135C0003239BE12D4B1B6803F00203002BF0D001
:10136C002A4B1B6823F0F8027B685B69DB0027497A
:10137C0013430B6015E0264B00221A60FFF778FC34
:10138C00386108E0FFF774FC02463B69D31A022B64
:10139C0001D903237AE11D4B1B6803F00203002BD8
:1013AC00F0D17B681B6803F00803002B3AD07B68F4
:1013BC009B69002B19D0174B01221A60FFF758FCC0
:1013CC00386108E0FFF754FC02463B69D31A022B44
:1013DC0001D903235AE10D4B5B6A03F00203002B86
:1013EC00F0D0012000F09AFA1CE00A4B00221A609F
:1013FC00FFF73EFC38610FE0FFF73AFC02463B6911
:10140C00D31A022B08D9032340E100BF001002407D
:10141C0000004242800442429E4B5B6A03F002038E
:10142C00002BE9D17B681B6803F00403002B00F050
:10143C00A6800023FB75974BDB6903F08053002BD0
:10144C000DD1944BDB69934A43F08053D361914B9C
:10145C00DB6903F08053BB60BB680123FB758E4BCB
:10146C001B6803F48073002B18D18B4B1B688A4AC2
:10147C0043F480731360FFF7FBFB386108E0FFF760
:10148C00F7FB02463B69D31A642B01D90323FDE019
:10149C00814B1B6803F48073002BF0D07B68DB68F6
:1014AC00012B06D17B4B1B6A7A4A43F00103136272
:1014BC002DE07B68DB68002B0CD1764B1B6A754AE0
:1014CC0023F001031362734B1B6A724A23F004036B
:1014DC0013621CE07B68DB68052B0CD16D4B1B6A1F
:1014EC006C4A43F0040313626A4B1B6A694A43F06B
:1014FC00010313620BE0674B1B6A664A23F001037E
:10150C001362644B1B6A634A23F0040313627B6807
:10151C00DB68002B15D0FFF7ABFB38610AE0FFF757
:10152C00A7FB02463B69D31A41F28832934201D998
:10153C000323ABE0574B1B6A03F00203002BEED0E6
:10154C0014E0FFF795FB38610AE0FFF791FB0246C8
:10155C003B69D31A41F28832934201D9032395E0B7
:10156C004C4B1B6A03F00203002BEED1FB7D012BCD
:10157C0005D1484BDB69474A23F08053D3617B6824
:10158C00DB69002B00F08180424B5B6803F00C039D
:10159C00082B61D07B68DB69022B46D13F4B0022C4
:1015AC001A60FFF765FB386108E0FFF761FB024644
:1015BC003B69D31A022B01D9032367E0354B1B6817
:1015CC0003F00073002BF0D17B681B6AB3F5803FEE
:1015DC0008D1304B5B6823F400327B689B682D4943
:1015EC0013434B602B4B5B6823F474127B68196AB2
:1015FC007B685B6A0B43274913434B60274B0122E3
:10160C001A60FFF735FB386108E0FFF731FB024643
:10161C003B69D31A022B01D9032337E01D4B1B68FE
:10162C0003F00073002BF0D02FE01C4B00221A604B
:10163C00FFF71EFB386108E0FFF71AFB02463B6917
:10164C00D31A022B01D9032320E0124B1B6803F0A1
:10165C000073002BF0D118E07B68DB69012B01D102
:10166C00012313E00B4B5B68FB60FB6803F48032D7
:10167C007B681B6A9A4206D1FB6803F470127B6884
:10168C005B6A9A4201D0012300E000231846183708
:10169C00BD4680BD00100240007000406000424218
:1016AC0080B584B000AF786039607B68002B01D1C5
:1016BC000123D0E06A4B1B6803F007033A689A4297
:1016CC0010D9674B1B6823F0070265493B6813432D
:1016DC000B60634B1B6803F007033A689A4201D016
:1016EC000123B8E07B681B6803F00203002B20D0B9
:1016FC007B681B6803F00403002B05D0594B5B6817
:10170C00584A43F4E06353607B681B6803F008039A
:10171C00002B05D0534B5B68524A43F46053536023
:10172C00504B5B6823F0F0027B689B684D49134378
:10173C004B607B681B6803F00103002B40D07B6877
:10174C005B68012B07D1474B1B6803F40033002B5C
:10175C0015D101237FE07B685B68022B07D1414BDD
:10176C001B6803F00073002B09D1012373E03D4B80
:10177C001B6803F00203002B01D101236BE0394BF2
:10178C005B6823F003027B685B68364913434B604C
:10179C00FFF76EFAF8600AE0FFF76AFA0246FB6898
:1017AC00D31A41F28832934201D9032353E02D4BD3
:1017BC005B6803F00C027B685B689B009A42EBD180
:1017CC00274B1B6803F007033A689A4210D2244B4C
:1017DC001B6823F0070222493B6813430B60204B24
:1017EC001B6803F007033A689A4201D0012332E0E8
:1017FC007B681B6803F00403002B08D0194B5B6853
:10180C0023F4E0627B68DB68164913434B607B680A
:10181C001B6803F00803002B09D0124B5B6823F400
:10182C0060527B681B69DB000E4913434B6000F070
:10183C0021F802460B4B5B681B0903F00F030A49A6
:10184C00CB5C22FA03F3094A1360094B1B68184658
:10185C00FFF7CCF9002318461037BD4680BD00BFFA
:10186C000020024000100240401F00081800002019
:10187C001C00002080B487B000AF0023FB60002365
:10188C00BB6000237B6100237B6000233B611E4B0C
:10189C005B68FB60FB6803F00C03042B02D0082B85
:1018AC0003D027E0194B3B6127E0FB689B0C03F04E
:1018BC000F03174AD35C7B60FB6803F48033002B67
:1018CC0010D0114B5B685B0C03F00103114AD35C25
:1018DC00BB607B680D4A02FB03F2BB68B2FBF3F3FF
:1018EC007B6104E07B680C4A02FB03F37B617B6940
:1018FC003B6102E0054B3B6100BF3B6918461C375E
:10190C00BD4680BC704700BF0010024000127A0038
:10191C00501F0008601F000800093D0080B485B00E
:10192C0000AF78600A4B1B680A4AA2FB03235B0AD0
:10193C007A6802FB03F3FB6000BFFB685A1EFA6077
:10194C00002BF9D100BF00BF1437BD4680BC7047D7
:10195C0018000020D34D621080B582B000AF7860C3
:10196C007B68002B01D1012341E07B6893F83D306B
:10197C00DBB2002B06D17B68002283F83C20786810
:10198C00FFF7AEF87B68022283F83D207B681A686B
:10199C007B6804331946104600F042F97B6801223B
:1019AC0083F846207B68012283F83E207B68012265
:1019BC0083F83F207B68012283F840207B6801225A
:1019CC0083F841207B68012283F842207B68012246
:1019DC0083F843207B68012283F844207B68012232
:1019EC0083F845207B68012283F83D2000231846AC
:1019FC000837BD4680BD000080B485B000AF78606C
:101A0C007B6893F83D30DBB2012B01D0012335E02C
:101A1C007B68022283F83D207B681B68DA687B6850
:101A2C001B6842F00102DA607B681B68164A93421D
:101A3C0009D07B681B68B3F1804F04D07B681B68AE
:101A4C00124A934211D17B681B689B6803F0070311
:101A5C00FB60FB68062B10D07B681B681A687B68E0
:101A6C001B6842F001021A6007E07B681B681A6869
:101A7C007B681B6842F001021A6000231846143779
:101A8C00BD4680BC704700BF002C014000040040E4
:101A9C0080B584B000AF786039600023FB737B683D
:101AAC0093F83C30012B01D10223B4E07B68012276
:101ABC0083F83C207B68022283F83D207B681B68FE
:101ACC009B68BB60BB6823F07703BB60BB6823F4E7
:101ADC007F43BB607B681B68BA689A603B681B6875
:101AEC00B3F5005F3ED0B3F5005F00F28780B3F52D
:101AFC00805F00F08680B3F5805F7FD8702B1AD0A2
:101B0C00702B7BD8602B50D0602B77D8502B3CD0CF
:101B1C00502B73D8402B58D0402B6FD8302B64D01F
:101B2C00302B6BD8202B60D0202B67D8002B5CD0AF
:101B3C00102B5AD062E07B6818683B6899683B6848
:101B4C005A683B68DB6800F046F97B681B689B6849
:101B5C00BB60BB6843F07703BB607B681B68BA68EB
:101B6C009A604FE07B6818683B6899683B685A68D4
:101B7C003B68DB6800F02FF97B681B689A687B6810
:101B8C001B6842F480429A603CE07B6818683B68B2
:101B9C0059683B68DB681A4600F0A6F87B681B683E
:101BAC005021184600F0FDF82CE07B6818683B6863
:101BBC0059683B68DB681A4600F0C4F87B681B6800
:101BCC006021184600F0EDF81CE07B6818683B6853
:101BDC0059683B68DB681A4600F086F87B681B681E
:101BEC004021184600F0DDF80CE07B681A683B6871
:101BFC001B681946104600F0D4F803E00123FB7370
:101C0C0000E000BF7B68012283F83D207B68002246
:101C1C0083F83C20FB7B18461037BD4680BD000086
:101C2C0080B485B000AF786039607B681B68FB605E
:101C3C007B682B4A934207D07B68B3F1804F03D06B
:101C4C007B68284A934208D1FB6823F07003FB6041
:101C5C003B685B68FA681343FB607B68204A9342DD
:101C6C0007D07B68B3F1804F03D07B681D4A934249
:101C7C0008D1FB6823F44073FB603B68DB68FA68AF
:101C8C001343FB60FB6823F080023B685B691343E2
:101C9C00FB607B68FA681A603B689A687B68DA625A
:101CAC003B681A687B689A627B680D4A934203D141
:101CBC003B681A697B681A637B6801225A617B68EE
:101CCC001B6903F00103002B05D07B681B6923F013
:101CDC0001027B681A6100BF1437BD4680BC704797
:101CEC00002C01400004004080B487B000AFF860C5
:101CFC00B9607A60FB681B6A7B61FB681B6A23F026
:101D0C000102FB681A62FB689B693B613B6923F02B
:101D1C00F0033B617B681B013A6913433B617B69B0
:101D2C0023F00A037B617A69BB6813437B61FB6810
:101D3C003A699A61FB687A691A6200BF1C37BD4622
:101D4C0080BC704780B487B000AFF860B9607A602F
:101D5C00FB681B6A7B61FB681B6A23F01002FB6843
:101D6C001A62FB689B693B613B6923F470433B61DE
:101D7C007B681B033A6913433B617B6923F0A00327
:101D8C007B61BB681B017A6913437B61FB683A6911
:101D9C009A61FB687A691A6200BF1C37BD4680BC29
:101DAC00704780B485B000AF786039607B689B6801
:101DBC00FB60FB6823F07003FB603A68FB6813431D
:101DCC0043F00703FB607B68FA689A6000BF143726
:101DDC00BD4680BC704780B487B000AFF860B96076
:101DEC007A603B60FB689B687B617B6923F47F4373
:101DFC007B613B681A027B681A43BB6813437A69A0
:101E0C0013437B61FB687A699A6000BF1C37BD463F
:101E1C0080BC704780B485B000AF786039607B6857
:101E2C0093F83C30012B01D1022341E07B68012265
:101E3C0083F83C207B68022283F83D207B681B687A
:101E4C005B68FB607B681B689B68BB60FB6823F06E
:101E5C007003FB603B681B68FA681343FB607B688C
:101E6C001B68FA685A607B681B68144A934209D055
:101E7C007B681B68B3F1804F04D07B681B68104AE9
:101E8C0093420CD1BB6823F08003BB603B685B685A
:101E9C00BA681343BB607B681B68BA689A607B683E
:101EAC00012283F83D207B68002283F83C2000232C
:101EBC0018461437BD4680BC704700BF002C01404B
:101ECC000004004070B500260C4D0D4C641BA41092
:101EDC00A64209D100F022F800260A4D0A4C641BD8
:101EEC00A410A64205D170BD55F8043B98470136A5
:101EFC00EEE755F8043B98470136F2E7641F0008FB
:101F0C00641F0008641F0008681F00080346024491
:101F1C00934200D1704703F8011BF9E7F8B500BFF5
:101F2C00F8BC08BC9E467047F8B500BFF8BC08BCAE
:041F3C009E46704706
:101F40000000000000000000010203040607080969
:101F500002030405060708090A0B0C0D0E0F1010EA
:041F6000010200007A
:041F6400310100083F
:041F68000D0100085F
:101F6C000008014000080140000801400008014041
:101F7C00020004000800100000127A00100000009B
:041F8C000100000050
:0400000508000B8163
:00000001FF
