:020000040800F2
:100000000028002015170008A5160008AB160008E8
:10001000B1160008B7160008BD1600080000000061
:10002000000000000000000000000000C3160008EF
:10003000CF16000800000000DB160008E7160008D5
:100040005D1700085D1700085D1700085D170008C0
:100050005D1700085D1700085D1700085D170008B0
:100060005D1700085D1700085D1700085D170008A0
:100070005D1700085D1700085D1700085D17000890
:100080005D1700085D1700085D1700085D17000880
:100090005D1700085D1700085D1700085D17000870
:1000A0005D1700085D1700085D1700085D17000860
:1000B000F51600085D170008000000005D17000835
:1000C0005D17000800000000000000005D17000838
:1000D000000000005D1700085D1700080000000028
:1000E0005D1700085D1700085D170008000000009C
:1000F0000000000000000000000000000000000000
:0C01000000000000000000005FF808F1A3
:10010C0010B5054C237833B9044B13B10448AFF345
:10011C0000800123237010BD2C0000200000000083
:10012C008C2D000808B5034B1BB103490348AFF3F2
:10013C00008008BD00000000300000208C2D00085D
:10014C0080B582B000AF78607B68092B00F28081AB
:10015C0001A252F823F000BF8D010008D501000860
:10016C001D02000865020008AD020008F502000837
:10017C003D03000885030008CD03000815040008A2
:10018C0000220121B44801F0E6FD00220221B24810
:10019C0001F0E1FD00220421AF4801F0DCFD00225A
:1001AC000821AD4801F0D7FD00221021AA4801F02A
:1001BC00D2FD00222021A84801F0CDFD01224021D2
:1001CC00A54801F0C8FD43E101220121A24801F03C
:1001DC00C2FD00220221A04801F0BDFD0022042135
:1001EC009D4801F0B8FD012208219B4801F0B3FDA8
:1001FC0001221021984801F0AEFD012220219648E1
:10020C0001F0A9FD01224021934801F0A4FD1FE15A
:10021C0000220121904801F09EFD002202218E480F
:10022C0001F099FD012204218B4801F094FD00227C
:10023C000821894801F08FFD00221021864801F029
:10024C008AFD01222021844801F085FD00224021F5
:10025C00814801F080FDFBE0002201217E4801F085
:10026C007AFD002202217C4801F075FD0022042158
:10027C00794801F070FD00220821774801F06BFDF0
:10028C0001221021744801F066FD012220217248E0
:10029C0001F061FD002240216F4801F05CFDD7E0C8
:1002AC00012201216C4801F056FD002202216A480E
:1002BC0001F051FD00220421674801F04CFD0122A0
:1002CC000821654801F047FD01221021624801F028
:1002DC0042FD00222021604801F03DFD002240211A
:1002EC005D4801F038FDB3E0002201215A4801F0CD
:1002FC0032FD01220221584801F02DFD002204217B
:10030C00554801F028FD00220821534801F023FD37
:10031C0001221021504801F01EFD002220214E48E0
:10032C0001F019FD002240214B4801F014FD8FE033
:10033C0000220121484801F00EFD0122022146480D
:10034C0001F009FD00220421434801F004FD0022C4
:10035C000821414801F0FFFC002210213E4801F029
:10036C00FAFC002220213C4801F0F5FC002240213F
:10037C00394801F0F0FC6BE000220121364801F015
:10038C00EAFC00220221344801F0E5FC00220421A1
:10039C00314801F0E0FC012208212F4801F0DBFC80
:1003AC00012210212C4801F0D6FC012220212A48E0
:1003BC0001F0D1FC01224021274801F0CCFC47E0A0
:1003CC0000220121244801F0C6FC0022022122480F
:1003DC0001F0C1FC002204211F4801F0BCFC0022EA
:1003EC0008211D4801F0B7FC002210211A4801F029
:1003FC00B2FC00222021184801F0ADFC0022402163
:10040C00154801F0A8FC23E000220121124801F05C
:10041C00A2FC00220221104801F09DFC00220421C4
:10042C000D4801F098FC002208210B4801F093FCC8
:10043C0001221021084801F08EFC002220210648E0
:10044C0001F089FC00224021034801F084FC00BF2C
:10045C0000BF0837BD4680BD000C014080B582B09E
:10046C0000AF78607B68032B76D801A252F823F09A
:10047C008D040008C3040008F90400082F050008C7
:10048C0000222021374801F066FC0122402135482A
:10049C0001F061FC01228021324801F05CFC012258
:1004AC004FF480712F4801F056FC2F4B1B681846F7
:1004BC00FFF746FE51E0012220212A4801F04BFCB7
:1004CC0000224021274801F046FC012280212548CA
:1004DC0001F041FC01224FF48071224801F03BFCF9
:1004EC00214B5B681846FFF72BFE36E001222021DA
:1004FC001C4801F030FC012240211A4801F02BFC71
:10050C0000228021174801F026FC01224FF4807153
:10051C00144801F020FC144B9B681846FFF710FEA2
:10052C001BE0012220210F4801F015FC0122402183
:10053C000C4801F010FC012280210A4801F00BFC50
:10054C0000224FF48071074801F005FC064BDB6874
:10055C001846FFF7F5FD00E000BF00BF0837BD46A9
:10056C0080BD00BF000801404801002080B483B06A
:10057C0000AF78607B680D4A82FB03129210DB1788
:10058C00D31A0B4A13607968084B83FB01239A102A
:10059C00CB17D21A13469B0013445B00CA1A044BA8
:1005AC005A6000BF0C37BD4680BC704767666666F4
:1005BC004801002080B483B000AF78607B680D4A9E
:1005CC0082FB03129210DB17D31A0B4A93607968E3
:1005DC00084B83FB01239A10CB17D21A13469B00AE
:1005EC0013445B00CA1A044BDA6000BF0C37BD46DB
:1005FC0080BC7047676666664801002080B500AF16
:10060C00144B1B6A002B06D1134B1B6A002B02D117
:10061C00104B19221A62082000F0A4FF0346012B8C
:10062C0011D10E4B1B6801330C4A13600B4B1B682A
:10063C00032B02DD094B00221A60064B19221A62A9
:10064C00054B00221A62054B1B681846FFF706FF84
:10065C0000BF80BD50000020780000204C0000201E
:10066C0080B483B000AF7860094A7B6852F82330BD
:10067C00012B06D1064A7B68002142F82310012386
:10068C0000E0002318460C37BD4680BC704700BF05
:10069C000801002080B483B000AF7860094A7B6801
:1006AC0052F82330012B06D1064A7B68002142F810
:1006BC002310012300E0002318460C37BD4680BCF4
:1006CC00704700BF3801002080B582B000AF002316
:1006DC007B6088E0484A7B6852F8232047497B6856
:1006EC0041F82320464A7B6852F8232042497B6814
:1006FC0041F82320434A7B6852F8232042497B6807
:10070C0031F813301946104601F00EFB034619461A
:10071C003B4A7B6842F82310374A7B6852F8232007
:10072C0037497B6851F823309A4259D1324A7B6859
:10073C0052F8232031497B6851F823309A424FD12B
:10074C002E4A7B6852F8232030497B6851F82330BD
:10075C009A4225D0294A7B6852F823202B497B6882
:10076C0041F82320294A7B6852F82330002B05D10D
:10077C00274A7B68C82142F8231031E0244A7B6861
:10078C0052F82330002B2BDD214A7B6852F82330A2
:10079C00C72B25DC1F4A7B68012142F823101FE080
:1007AC001A4A7B6852F82330002B19D1184A7B68FF
:1007BC0052F82330002B08DD154A7B6852F82330A1
:1007CC005A1E13497B6841F82320114A7B6852F862
:1007DC002330002B04D1104A7B68012142F82310EE
:1007EC007B6801337B607B68032B7FF773AF00BFA3
:1007FC0000BF0837BD4680BDE8000020280100205E
:10080C00D80000200000002010000020C8000020AC
:10081C00F8000020080100203801002080B500AF4E
:10082C00A44B1B68013B052B00F2328201A252F84B
:10083C0023F000BF59080008F7080008B50B0008A2
:10084C00D90A00089D0C0008D509000805210020D4
:10085C0000F066FE0321012000F062FE964B05229B
:10086C001A60954B03225A60934B02229A60002225
:10087C004FF48061914801F06EFA00224FF48051E0
:10088C008E4801F068FA00224FF400618B4801F0A9
:10089C0062FA00224FF40051884801F05CFA002201
:1008AC004FF40041854801F056FA00224FF4804184
:1008BC00824801F050FA824B1B68824A126802FB94
:1008CC0003F303F5FA73804A82FB03129211DB17D0
:1008DC00D31A1846FFF74AFE0020FFF76BFEFFF70E
:1008EC008DFE744B02221A60DBE101224FF4806111
:1008FC00724801F030FA00224FF480516F4801F039
:10090C002AFA00224FF400616C4801F024FA00220C
:10091C004FF40051694801F01EFA01224FF40041D6
:10092C00664801F018FA00224FF48041634801F048
:10093C0012FA634B1B68634A126802FB03F303F55C
:10094C00FA73614A82FB03129211DB17D31A184611
:10095C00FFF70CFE0020FFF72DFE012000F002FE39
:10096C000346012B1CD1544B9B681946012000F007
:10097C00D7FD504B06221A60514B1B68514A126826
:10098C0002FB03F303F5FA734F4A82FB0312921135
:10099C00DB17D31A1846FFF7E9FD0020FFF70AFE14
:1009AC000120FFF75DFE0346012B02D1414B1522BE
:1009BC001A600220FFF754FE0346012B40F06A81B7
:1009CC003C4B1F221A6065E101224FF480613B48C9
:1009DC0001F0C1F900224FF48051384801F0BBF905
:1009EC0000224FF40061354801F0B5F900224FF4B4
:1009FC000051324801F0AFF900224FF400412F486A
:100A0C0001F0A9F901224FF480412C4801F0A3F91F
:100A1C002B4B1B682B4A126802FB03F303F5FA738A
:100A2C00294A82FB03129211DB17D31A1846FFF7DF
:100A3C009DFD0020FFF7BEFD012000F093FD034655
:100A4C00012B22D11C4B1B681946012000F068FDBC
:100A5C00194B5B681946002000F062FD154B04220F
:100A6C001A60174B1B68174A126802FB03F303F555
:100A7C00FA73154A82FB03129211DB17D31A18462C
:100A8C00FFF774FD0020FFF795FD0120FFF7E8FD4F
:100A9C000346012B02D1074B15221A600220FFF7E7
:100AAC00DFFD0346012B40F0F780024B1F221A603A
:100ABC00F2E000BF1C000020A00000200008014054
:100ACC005000002018000020D34D621000224FF47B
:100ADC008061764801F03FF901224FF48051734850
:100AEC0001F039F900224FF40061704801F033F93C
:100AFC0001224FF400516D4801F02DF900224FF402
:100B0C0000416A4801F027F900224FF48041674800
:100B1C0001F021F9664B1B68664A126802FB03F36D
:100B2C0003F5FA73644A82FB03129211DB17D31A92
:100B3C001846FFF71BFD0020FFF73CFD002000F0DE
:100B4C0011FD0346012B1CD15C4B03221A605C4B3C
:100B5C009B681946002000F0E3FC554B1B68554A76
:100B6C00126802FB03F303F5FA73534A82FB031278
:100B7C009211DB17D31A1846FFF7F8FC0020FFF789
:100B8C0019FD0120FFF76CFD0346012B02D14B4BE5
:100B9C0015221A600220FFF763FD0346012B7DD15D
:100BAC00464B1F221A6079E000224FF480613F48C7
:100BBC0001F0D1F800224FF480513C4801F0CBF801
:100BCC0001224FF40061394801F0C5F801224FF4BD
:100BDC000051364801F0BFF800224FF40041334871
:100BEC0001F0B9F800224FF48041304801F0B3F81D
:100BFC002F4B1B682F4A126802FB03F303F5FA73A1
:100C0C002D4A82FB03129211DB17D31A1846FFF7F9
:100C1C00ADFC0020FFF7CEFC002000F0A3FC034647
:100C2C00012B22D1254B02221A60254B1B68194639
:100C3C00002000F075FC224B5B681946012000F087
:100C4C006FFC1B4B1B681B4A126802FB03F303F57A
:100C5C00FA73194A82FB03129211DB17D31A184646
:100C6C00FFF784FC0020FFF7A5FC0120FFF7F8FC40
:100C7C000346012B02D1114B15221A600220FFF7FB
:100C8C00EFFC0346012B0BD10C4B1F221A6007E023
:100C9C0000BF06E000BF04E000BF02E000BF00E0C0
:100CAC0000BFFFF7ABFC00BF80BD00BF00080140D8
:100CBC005000002018000020D34D62101C000020B2
:100CCC00A000002080B500AFAD4B1B681F3B032B71
:100CDC0000F27A8101A252F823F000BFF90C00084F
:100CEC00170D0008EB0D0008BF0E0008A54B1B7874
:100CFC001A46A54B53F822301846FFF75BFC002030
:100D0C00FFF734FC9E4B20221A6001224FF48061C5
:100D1C009E4801F020F801224FF400519B4801F04D
:100D2C001AF800224FF40061984801F014F80022E0
:100D3C004FF48041954801F00EF800224FF4805199
:100D4C00924801F008F800224FF400418F4801F05E
:100D5C0002F88C4B1B781A468B4B53F822301846F2
:100D6C00FFF728FC0020FFF701FC0020FFF778FCC0
:100D7C000346012B0BD1844B1B680133824A136051
:100D8C00814B1B68622B02DD7F4B63221A600120B2
:100D9C00FFF766FC0346012B0BD17B4B1B68013B19
:100DAC00794A1360784B1B68002B02DC764B0022CF
:100DBC001A600220FFF754FC0346012B02D1704B42
:100DCC0021221A600320FFF74BFC0346012B02D1B2
:100DDC006B4B01221A606B4B00221A70F5E000225B
:100DEC004FF48061694800F0B6FF00224FF40051C7
:100DFC00664800F0B0FF01224FF40061634800F038
:100E0C00AAFF01224FF48041604800F0A4FF0022A9
:100E1C004FF480515D4800F09EFF00224FF40041DA
:100E2C005A4800F098FF574B1B781A46564B53F80C
:100E3C0022301846FFF7BEFB0020FFF797FB00207F
:100E4C00FFF70EFC0346012B0BD14F4B9B68013374
:100E5C004D4A93604C4B9B68622B02DD4A4B6322DC
:100E6C009A600120FFF7FCFB0346012B0BD1464B8C
:100E7C009B68013B444A9360434B9B68002B02DC0C
:100E8C00414B00229A600220FFF7EAFB0346012B3C
:100E9C0002D13B4B22221A600320FFF7E1FB0346F1
:100EAC00012B02D1364B01221A60364B02221A70EA
:100EBC008BE000224FF48061344800F04CFF00229C
:100ECC004FF40051314800F046FF00224FF400610E
:100EDC002E4800F040FF00224FF480412B4800F0D8
:100EEC003AFF01224FF48051284800F034FF0122D0
:100EFC004FF40041254800F02EFF224B1B781A4678
:100F0C00214B53F822301846FFF754FB0020FFF713
:100F1C002DFB0020FFF7A4FB0346012B0BD11A4B32
:100F2C005B680133184A5360174B5B68622B02DD18
:100F3C00154B63225A600120FFF792FB0346012BED
:100F4C000BD1114B5B68013B0F4A53600E4B5B6836
:100F5C00002B02DC0C4B00225A600220FFF780FBB6
:100F6C000346012B23D1084B5A68074B9B681A4444
:100F7C00054B1B689A420BD0014B01221A6016E0FC
:100F8C001C00002048000020A000002000080140A8
:100F9C000F4B1B681946002000F0C2FA0C4B5B6823
:100FAC001946012000F0BCFA0A4B02221A600320F9
:100FBC00FFF756FB0346012B02D1064B01221A60A8
:100FCC00054B01221A7000E000BF00BF80BD00BFBE
:100FDC00A00000201C0000204800002080B500AFBD
:100FEC00C24B1B68153B062B00F2728101A252F812
:100FFC0023F000BF1D1000082F100008DD120008A0
:10100C007112000851110008C1100008E31100080A
:10101C000020FFF7ABFA0020FFF7CCFAB34B1622F7
:10102C001A6001224FF48061B14800F094FE002256
:10103C004FF40051AE4800F08EFE00224FF40061D8
:10104C00AB4800F088FE00224FF48041A84800F025
:10105C0082FE00224FF48051A54800F07CFE012254
:10106C004FF40041A24800F076FE0020FFF7F8FA9A
:10107C000346012B06D19D4B1A221A600221022035
:10108C0000F04EFA0020FFF705FB0346012B06D1BA
:10109C00964B18221A600121032000F041FA03201C
:1010AC00FFF7DEFA0346012B40F014818F4B01222F
:1010BC001A600FE100224FF480618D4800F04BFE66
:1010CC0000224FF400518A4800F045FE01224FF4F3
:1010DC000061874800F03FFE01224FF480418448B4
:1010EC0000F039FE00224FF48051814800F033FEAD
:1010FC0000224FF400417E4800F02DFE022000F04B
:10110C0031FA0346012B05D1784B19221A60794B21
:10111C0000229A600020FFF7BDFA0346012B06D18E
:10112C00724B18221A600121032000F0F9F90320F8
:10113C00FFF796FA0346012B40F0CE806B4B012251
:10114C001A60C9E000224FF48061694800F003FE88
:10115C0001224FF40051664800F0FDFD00224FF4CF
:10116C000061634800F0F7FD00224FF480416048B5
:10117C0000F0F1FD01224FF480515D4800F0EBFDD1
:10118C0000224FF400415A4800F0E5FD0020FFF723
:10119C0067FA0346012B06D10221022000F0C0F9A8
:1011AC00524B1B221A600020FFF774FA0346012BE6
:1011BC0006D14E4B18221A600121032000F0B0F921
:1011CC000320FFF74DFA0346012B40F08780474B75
:1011DC0001221A6082E000224FF48061444800F042
:1011EC00BAFD00224FF40051414800F0B4FD012239
:1011FC004FF400613E4800F0AEFD01224FF48041F7
:10120C003B4800F0A8FD00224FF48051384800F014
:10121C00A2FD00224FF40041354800F09CFD022055
:10122C0000F0A0F90346012B05D1304B16221A60B1
:10123C00304B00229A600020FFF72CFA0346012B5A
:10124C0006D12A4B18221A600121032000F068F9FC
:10125C000320FFF705FA0346012B41D1234B012252
:10126C001A603DE000224FF48061214800F073FDCC
:10127C0000224FF400511E4800F06DFD00224FF487
:10128C0080511B4800F067FD00224FF400411848C4
:10129C0000F061FD032000F065F90346012B0DD130
:1012AC004FF40061124800F06EFD4FF4804110487D
:1012BC0000F069FD0121032000F032F90320FFF753
:1012CC00CFF90346012B0DD1084B01221A6009E01E
:1012DC0000BF08E000BF06E000BF04E000BF02E072
:1012EC0000BF00E000BF00BF80BD00BF1C0000209D
:1012FC00000801407800002080B500AF00F02AFA09
:10130C0000F010F800F096F800F048F8044801F0EE
:10131C007FF9FFF783FAFFF761FEFFF7D3FCF8E7DD
:10132C005801002080B590B000AF07F118032822B7
:10133C000021184601F01CFD3B1D00221A605A606A
:10134C009A60DA601A610223BB610123BB6210232D
:10135C00FB6200237B6307F11803184600F02CFD99
:10136C000346002B01D000F0D6F80F237B6000233E
:10137C00BB600023FB6000233B6100237B613B1DB2
:10138C000021184600F098FF0346002B01D000F016
:10139C00C2F800BF4037BD4680BD000080B586B0A6
:1013AC0000AF07F1080300221A605A609A60DA60F5
:1013BC003B4600221A605A601D4B4FF080421A6067
:1013CC001B4B41F63F725A60194B00229A60184B26
:1013DC000922DA60164B00221A61154B00229A6121
:1013EC00134801F0C5F80346002B01D000F093F828
:1013FC004FF48053BB6007F1080319460C4801F009
:10140C0043FA0346002B01D000F085F800233B6023
:10141C0000237B603B461946054801F01BFC034644
:10142C00002B01D000F077F800BF1837BD4680BD07
:10143C005801002080B586B000AF07F108030022E8
:10144C001A605A609A60DA60274B9B69264A43F00F
:10145C0004039361244B9B6903F004037B607B685A
:10146C00214B9B69204A43F0080393611E4B9B69F7
:10147C0003F008033B603B6800224FF6E0511B4829
:10148C0000F069FC00227F21194800F064FC1E2347
:10149C00BB600023FB6001233B6107F10803194685
:1014AC00124800F0C7FA4FF6E053BB600123FB6013
:1014BC0000233B6102237B6107F1080319460B48AB
:1014CC0000F0B8FA7F23BB600123FB6000233B6173
:1014DC0002237B6107F108031946054800F0AAFABC
:1014EC0000BF1837BD4680BD001002400008014007
:1014FC00000C014080B582B000AF78607B681B683F
:10150C00B3F1804F03D100F041F8FFF7DDF800BFD5
:10151C000837BD4680BD80B400AF72B600BFFEE791
:10152C0080B483B000AF786039603B684FF47A7256
:10153C0002FB03F2084B1B6892FBF3F207497B6832
:10154C0041F82320064A7B68002142F8231000BF93
:10155C000C37BD4680BC704718000020500000209E
:10156C007800002080B483B000AF7860064A7B68B6
:10157C0052F82330012B01D1012300E0002318463F
:10158C000C37BD4680BC70477800002080B483B017
:10159C0000AF00237B601CE0124A7B6852F82330BA
:1015AC00002B13DD0F4A7B6852F823305A1E0D496D
:1015BC007B6841F823200B4A7B6852F82330002BC0
:1015CC0004DC094A7B68012142F823107B68013353
:1015DC007B607B68092BDFDD00BF00BF0C37BD468D
:1015EC0080BC7047500000207800002080B485B08B
:1015FC0000AF154B9B69144A43F001039361124BE6
:10160C009B6903F00103BB60BB680F4BDB690E4A9F
:10161C0043F08053D3610C4BDB6903F080537B6048
:10162C007B680A4B5B68FB60FB6823F0E063FB6044
:10163C00FB6843F08063FB60044AFB68536000BFA7
:10164C001437BD4680BC70470010024000000140BA
:10165C0080B584B000AF78607B681B68B3F1804FB5
:10166C0013D10C4BDB690B4A43F00103D361094BDB
:10167C00DB6903F00103FB60FB68002200211C20E6
:10168C0000F0A1F91C2000F0BAF900BF1037BD46DC
:10169C0080BD00BF0010024080B400AFFEE780B4F4
:1016AC0000AFFEE780B400AFFEE780B400AFFEE70A
:1016BC0080B400AFFEE780B400AF00BFBD4680BC75
:1016CC00704780B400AF00BFBD4680BC704780B48B
:1016DC0000AF00BFBD4680BC704780B500AF00F0C6
:1016EC007FF800BF80BD000080B500AF024800F05D
:1016FC00DBFF00BF80BD00BF5801002080B400AFED
:10170C0000BFBD4680BC7047FFF7F8FF0B480C4983
:10171C000C4A002302E0D458C4500433C4188C4241
:10172C00F9D3094A094C002301E013600432A242A8
:10173C00FBD301F0F9FAFFF7DFFD70470000002042
:10174C002C000020D02D00082C000020A40100202B
:10175C00FEE7000080B500AF084B1B68074A43F05A
:10176C0010031360032000F023F90F2000F008F899
:10177C00FFF73CFF0023184680BD00BF002002404D
:10178C0080B582B000AF7860124B1A68124B1B7890
:10179C0019464FF47A73B3FBF1F3B2FBF3F318462B
:1017AC0000F03BF90346002B01D001230EE07B68CF
:1017BC000F2B0AD8002279684FF0FF3000F003F9A4
:1017CC00064A7B681360002300E0012318460837A3
:1017DC00BD4680BD200000202800002024000020F1
:1017EC0080B400AF054B1B781A46054B1B6813449D
:1017FC00034A136000BFBD4680BC70472800002020
:10180C00A001002080B400AF024B1B681846BD46F7
:10181C0080BC7047A001002080B485B000AF786018
:10182C007B6803F00703FB600C4BDB68BB60BA689A
:10183C004FF6FF031340BB60FB681A02BB681343EF
:10184C0043F0BF6343F40033BB60044ABB68D3600E
:10185C0000BF1437BD4680BC704700BF00ED00E0F0
:10186C0080B400AF044BDB681B0A03F00703184677
:10187C00BD4680BC704700BF00ED00E080B483B073
:10188C0000AF0346FB7197F90730002B0BDBFB799C
:10189C0003F01F02064997F907305B09012000FA93
:1018AC0002F241F8232000BF0C37BD4680BC7047C4
:1018BC0000E100E080B483B000AF03463960FB71F7
:1018CC0097F90730002B0ADB3B68DAB20C4997F921
:1018DC0007301201D2B20B4483F800230AE03B68B4
:1018EC00DAB20849FB7903F00F03043B1201D2B2C0
:1018FC000B441A7600BF0C37BD4680BC704700BF46
:10190C0000E100E000ED00E080B489B000AFF860C9
:10191C00B9607A60FB6803F00703FB61FB69C3F1F4
:10192C000703042B28BF0423BB61FB690433062B7C
:10193C0002D9FB69033B00E000237B614FF0FF32CF
:10194C00BB6902FA03F3DA43BB681A407B699A401D
:10195C004FF0FF317B6901FA03F3D9437B680B40ED
:10196C00134318462437BD4680BC704780B582B0FF
:10197C0000AF78607B68013BB3F1807F01D301231A
:10198C000FE00A4A7B68013B53600F214FF0FF3098
:10199C00FFF790FF054B00229A60044B07221A6058
:1019AC00002318460837BD4680BD00BF10E000E09C
:1019BC0080B582B000AF78607868FFF72DFF00BF6C
:1019CC000837BD4680BD80B586B000AF0346B96010
:1019DC007A60FB7300237B61FFF742FF78617A68C2
:1019EC00B9687869FFF790FF024697F90F301146F6
:1019FC001846FFF75FFF00BF1837BD4680BD80B5A6
:101A0C0082B000AF0346FB7197F907301846FFF719
:101A1C0035FF00BF0837BD4680BD80B582B000AF32
:101A2C0078607868FFF7A2FF034618460837BD4672
:101A3C0080BD000080B48BB000AF786039600023AB
:101A4C007B6200233B6248E101227B6A02FA03F3CA
:101A5C00FB613B681B68FA691340BB61BA69FB699F
:101A6C009A4240F037813B685B68A34A93425ED050
:101A7C00A14A934275D8A14A934258D09F4A9342A7
:101A8C006FD89F4A934252D09D4A934269D89D4A3F
:101A9C0093424CD09B4A934263D89B4A934246D084
:101AAC00994A93425DD8122B2AD8122B59D801A2ED
:101ABC0052F823F03B1B0008151B0008271B0008DD
:101ACC00691B00086F1B00086F1B00086F1B0008C8
:101ADC006F1B00086F1B00086F1B00086F1B0008B2
:101AEC006F1B00086F1B00086F1B00086F1B0008A2
:101AFC006F1B00086F1B00081D1B0008311B000822
:101B0C00824A934213D02CE03B68DB683B6229E0AD
:101B1C003B68DB6804333B6224E03B68DB680833DA
:101B2C003B621FE03B68DB680C333B621AE03B68AE
:101B3C009B68002B02D104233B6213E03B689B683B
:101B4C00012B05D108233B627B68FA691A6109E015
:101B5C0008233B627B68FA695A6103E000233B620D
:101B6C0000E000BFBB69FF2B01D87B6801E07B68FC
:101B7C0004337B61BB69FF2B02D87B6A9B0002E0BC
:101B8C007B6A083B9B003B617B691A680F213B69B0
:101B9C0001FA03F3DB431A40396A3B6901FA03F398
:101BAC001A437B691A603B685B6803F08053002B17
:101BBC0000F09080564B9B69554A43F001039361AA
:101BCC00534B9B6903F00103BB60BB68514A7B6AB2
:101BDC009B08023352F82330FB607B6A03F003034B
:101BEC009B000F2202FA03F3DB43FA681340FB60FD
:101BFC007B68494A93420DD07B68484A934207D090
:101C0C007B68474A934201D1022304E0032302E09C
:101C1C00012300E000237A6A02F003029200934051
:101C2C00FA681343FB603B497B6A9B080233FA68F2
:101C3C0041F823203B685B6803F48013002B06D02B
:101C4C00384B9A683749BB6913438B6006E0354BB8
:101C5C009A68BB69DB43334913408B603B685B6814
:101C6C0003F40013002B06D02E4BDA682D49BB6908
:101C7C001343CB6006E02B4BDA68BB69DB43294985
:101C8C001340CB603B685B6803F40033002B06D039
:101C9C00244B5A682349BB6913434B6006E0214B24
:101CAC005A68BB69DB431F4913404B603B685B6858
:101CBC0003F48033002B06D01A4B1A681949BB6900
:101CCC0013430B6006E0174B1A68BB69DB431549DD
:101CDC0013400B607B6A01337B623B681A687B6A3A
:101CEC0022FA03F3002B7FF4AFAE00BF00BF2C37FA
:101CFC00BD4680BC704700BF0000321000003110A0
:101D0C000000221000002110000012100000111021
:101D1C00001002400000014000080140000C01408E
:101D2C00001001400004014080B485B000AF786021
:101D3C000B467B807B689A687B881340002B02D013
:101D4C000123FB7301E00023FB73FB7B1846143764
:101D5C00BD4680BC704780B483B000AF78600B4642
:101D6C007B8013467B707B78002B03D07A887B6852
:101D7C001A6103E07B881A047B681A6100BF0C3778
:101D8C00BD4680BC704780B485B000AF78600B4610
:101D9C007B807B68DB68FB607A88FB6813401A04E5
:101DAC00FB68D9437B880B401A437B681A6100BFE0
:101DBC001437BD4680BC704780B586B000AF7860E4
:101DCC007B68002B01D101236CE27B681B6803F05C
:101DDC000103002B00F08780924B5B6803F00C032F
:101DEC00042B0CD08F4B5B6803F00C03082B12D127
:101DFC008C4B5B6803F48033B3F5803F0BD1894B7C
:101E0C001B6803F40033002B6CD07B685B68002BE1
:101E1C0068D1012346E27B685B68B3F5803F06D14D
:101E2C00804B1B687F4A43F4803313602EE07B6841
:101E3C005B68002B0CD17B4B1B687A4A23F48033F4
:101E4C001360784B1B68774A23F4802313601DE0E2
:101E5C007B685B68B3F5A02F0CD1724B1B68714A81
:101E6C0043F4802313606F4B1B686E4A43F480333A
:101E7C0013600BE06B4B1B686A4A23F480331360CE
:101E8C00684B1B68674A23F4802313607B685B688C
:101E9C00002B13D0FFF7B6FC386108E0FFF7B2FC5B
:101EAC0002463B69D31A642B01D90323FAE15D4B3B
:101EBC001B6803F40033002BF0D014E0FFF7A2FCF6
:101ECC00386108E0FFF79EFC02463B69D31A642B8D
:101EDC0001D90323E6E1534B1B6803F40033002BB9
:101EEC00F0D100E000BF7B681B6803F00203002BFD
:101EFC0063D04C4B5B6803F00C03002B0BD0494BAD
:101F0C005B6803F00C03082B1CD1464B5B6803F495
:101F1C008033002B16D1434B1B6803F00203002BBC
:101F2C0005D07B681B69012B01D00123BAE13D4B25
:101F3C001B6823F0F8027B685B69DB0039491343AB
:101F4C000B603AE07B681B69002B20D0364B0122DA
:101F5C001A60FFF757FC386108E0FFF753FC0246A4
:101F6C003B69D31A022B01D903239BE12D4B1B6830
:101F7C0003F00203002BF0D02A4B1B6823F0F8026D
:101F8C007B685B69DB00274913430B6015E0264B2C
:101F9C0000221A60FFF736FC386108E0FFF732FCCC
:101FAC0002463B69D31A022B01D903237AE11D4B5C
:101FBC001B6803F00203002BF0D17B681B6803F055
:101FCC000803002B3AD07B689B69002B19D0174B68
:101FDC0001221A60FFF716FC386108E0FFF712FCCB
:101FEC0002463B69D31A022B01D903235AE10D4B4C
:101FFC005B6A03F00203002BF0D0012000F09AFA88
:10200C001CE00A4B00221A60FFF7FCFB38610FE062
:10201C00FFF7F8FB02463B69D31A022B08D90323BE
:10202C0040E100BF001002400000424280044242E6
:10203C009E4B5B6A03F00203002BE9D17B681B68A3
:10204C0003F00403002B00F0A6800023FB75974BD4
:10205C00DB6903F08053002B0DD1944BDB69934A61
:10206C0043F08053D361914BDB6903F08053BB6029
:10207C00BB680123FB758E4B1B6803F48073002B2C
:10208C0018D18B4B1B688A4A43F480731360FFF79B
:10209C00B9FB386108E0FFF7B5FB02463B69D31A80
:1020AC00642B01D90323FDE0814B1B6803F480737F
:1020BC00002BF0D07B68DB68012B06D17B4B1B6AB5
:1020CC007A4A43F0010313622DE07B68DB68002B36
:1020DC000CD1764B1B6A754A23F001031362734BC8
:1020EC001B6A724A23F0040313621CE07B68DB68F2
:1020FC00052B0CD16D4B1B6A6C4A43F00403136225
:10210C006A4B1B6A694A43F0010313620BE0674B8D
:10211C001B6A664A23F001031362644B1B6A634A11
:10212C0023F0040313627B68DB68002B15D0FFF7E8
:10213C0069FB38610AE0FFF765FB02463B69D31A7D
:10214C0041F28832934201D90323ABE0574B1B6A0F
:10215C0003F00203002BEED014E0FFF753FB3861C1
:10216C000AE0FFF74FFB02463B69D31A41F2883273
:10217C00934201D9032395E04C4B1B6A03F00203F5
:10218C00002BEED1FB7D012B05D1484BDB69474A77
:10219C0023F08053D3617B68DB69002B00F08180D6
:1021AC00424B5B6803F00C03082B61D07B68DB6946
:1021BC00022B46D13F4B00221A60FFF723FB3861FC
:1021CC0008E0FFF71FFB02463B69D31A022B01D92B
:1021DC00032367E0354B1B6803F00073002BF0D131
:1021EC007B681B6AB3F5803F08D1304B5B6823F4E6
:1021FC0000327B689B682D4913434B602B4B5B680B
:10220C0023F474127B68196A7B685B6A0B43274959
:10221C0013434B60274B01221A60FFF7F3FA386126
:10222C0008E0FFF7EFFA02463B69D31A022B01D9FB
:10223C00032337E01D4B1B6803F00073002BF0D019
:10224C002FE01C4B00221A60FFF7DCFA386108E023
:10225C00FFF7D8FA02463B69D31A022B01D90323A4
:10226C0020E0124B1B6803F00073002BF0D118E038
:10227C007B68DB69012B01D1012313E00B4B5B68FD
:10228C00FB60FB6803F480327B681B6A9A4206D1C0
:10229C00FB6803F470127B685B6A9A4201D00123DD
:1022AC0000E0002318461837BD4680BD00100240E0
:1022BC00007000406000424280B584B000AF78608E
:1022CC0039607B68002B01D10123D0E06A4B1B687D
:1022DC0003F007033A689A4210D9674B1B6823F046
:1022EC00070265493B6813430B60634B1B6803F0A3
:1022FC0007033A689A4201D00123B8E07B681B6857
:10230C0003F00203002B20D07B681B6803F004034E
:10231C00002B05D0594B5B68584A43F4E06353607B
:10232C007B681B6803F00803002B05D0534B5B68DC
:10233C00524A43F460535360504B5B6823F0F002F5
:10234C007B689B684D4913434B607B681B6803F0AB
:10235C000103002B40D07B685B68012B07D1474BF6
:10236C001B6803F40033002B15D101237FE07B683D
:10237C005B68022B07D1414B1B6803F00073002BE9
:10238C0009D1012373E03D4B1B6803F00203002BC2
:10239C0001D101236BE0394B5B6823F003027B68AE
:1023AC005B68364913434B60FFF72CFAF8600AE080
:1023BC00FFF728FA0246FB68D31A41F2883293429F
:1023CC0001D9032353E02D4B5B6803F00C027B68AF
:1023DC005B689B009A42EBD1274B1B6803F0070309
:1023EC003A689A4210D2244B1B6823F00702224908
:1023FC003B6813430B60204B1B6803F007033A68E0
:10240C009A4201D0012332E07B681B6803F004037D
:10241C00002B08D0194B5B6823F4E0627B68DB6807
:10242C00164913434B607B681B6803F00803002BB1
:10243C0009D0124B5B6823F460527B681B69DB008C
:10244C000E4913434B6000F021F802460B4B5B68BE
:10245C001B0903F00F030A49CB5C22FA03F3094A68
:10246C001360094B1B681846FFF78AF900231846BE
:10247C001037BD4680BD00BF002002400010024056
:10248C00A42D0008200000202400002080B487B078
:10249C0000AF0023FB600023BB6000237B610023A3
:1024AC007B6000233B611E4B5B68FB60FB6803F0A9
:1024BC000C03042B02D0082B03D027E0194B3B61F3
:1024CC0027E0FB689B0C03F00F03174AD35C7B607F
:1024DC00FB6803F48033002B10D0114B5B685B0C52
:1024EC0003F00103114AD35CBB607B680D4A02FB0D
:1024FC0003F2BB68B2FBF3F37B6104E07B680C4A2C
:10250C0002FB03F37B617B693B6102E0054B3B61A2
:10251C0000BF3B6918461C37BD4680BC704700BFE6
:10252C000010024000127A00B42D0008C42D0008DF
:10253C0000093D0080B485B000AF78600A4B1B6881
:10254C000A4AA2FB03235B0A7A6802FB03F3FB60D3
:10255C0000BFFB685A1EFA60002BF9D100BF00BF08
:10256C001437BD4680BC704720000020D34D62104C
:10257C0080B582B000AF78607B68002B01D101235D
:10258C0041E07B6893F83D30DBB2002B06D17B68D1
:10259C00002283F83C207868FFF75AF87B68022207
:1025AC0083F83D207B681A687B6804331946104613
:1025BC0000F056FA7B68012283F846207B680122E2
:1025CC0083F83E207B68012283F83F207B68012240
:1025DC0083F840207B68012283F841207B6801222C
:1025EC0083F842207B68012283F843207B68012218
:1025FC0083F844207B68012283F845207B68012204
:10260C0083F83D20002318460837BD4680BD0000E6
:10261C0080B485B000AF78607B6893F83D30DBB256
:10262C00012B01D0012335E07B68022283F83D2089
:10263C007B681B68DA687B681B6842F00102DA6011
:10264C007B681B68164A934209D07B681B68B3F100
:10265C00804F04D07B681B68124A934211D17B686F
:10266C001B689B6803F00703FB60FB68062B10D00C
:10267C007B681B681A687B681B6842F001021A6051
:10268C0007E07B681B681A687B681B6842F00102D4
:10269C001A60002318461437BD4680BC704700BF33
:1026AC00002C01400004004080B584B000AF78607D
:1026BC007B681B68DB68FB607B681B681B69BB6005
:1026CC00BB6803F00203002B20D0FB6803F002036D
:1026DC00002B1BD07B681B686FF002021A617B68B1
:1026EC0001221A777B681B689B6903F00303002B9C
:1026FC0003D0786800F098F905E0786800F08BF961
:10270C00786800F09AF97B6800221A77BB6803F0AE
:10271C000403002B20D0FB6803F00403002B1BD018
:10272C007B681B686FF004021A617B6802221A77BF
:10273C007B681B689B6903F44073002B03D078689B
:10274C0000F072F905E0786800F065F9786800F03F
:10275C0074F97B6800221A77BB6803F00803002B1E
:10276C0020D0FB6803F00803002B1BD07B681B6890
:10277C006FF008021A617B6804221A777B681B6869
:10278C00DB6903F00303002B03D0786800F04CF9ED
:10279C0005E0786800F03FF9786800F04EF97B6846
:1027AC0000221A77BB6803F01003002B20D0FB68C3
:1027BC0003F01003002B1BD07B681B686FF010021A
:1027CC001A617B6808221A777B681B68DB6903F443
:1027DC004073002B03D0786800F026F905E0786888
:1027EC0000F019F9786800F028F97B6800221A7754
:1027FC00BB6803F00103002B0CD0FB6803F0010352
:10280C00002B07D07B681B686FF001021A61786897
:10281C00FEF770FEBB6803F08003002B0CD0FB6846
:10282C0003F08003002B07D07B681B686FF08002DD
:10283C001A61786800F06FFABB6803F04003002B54
:10284C000CD0FB6803F04003002B07D07B681B689F
:10285C006FF040021A61786800F0F8F8BB6803F07A
:10286C002003002B0CD0FB6803F02003002B07D0B7
:10287C007B681B686FF020021A61786800F042FADE
:10288C0000BF1037BD4680BD80B584B000AF786006
:10289C0039600023FB737B6893F83C30012B01D12A
:1028AC000223B4E07B68012283F83C207B6802227F
:1028BC0083F83D207B681B689B68BB60BB6823F07A
:1028CC007703BB60BB6823F47F43BB607B681B68EA
:1028DC00BA689A603B681B68B3F5005F3ED0B3F5ED
:1028EC00005F00F28780B3F5805F00F08680B3F55F
:1028FC00805F7FD8702B1AD0702B7BD8602B50D078
:10290C00602B77D8502B3CD0502B73D8402B58D001
:10291C00402B6FD8302B64D0302B6BD8202B60D051
:10292C00202B67D8002B5CD0102B5AD062E07B6830
:10293C0018683B6899683B685A683B68DB6800F02C
:10294C006AF97B681B689B68BB60BB6843F07703C4
:10295C00BB607B681B68BA689A604FE07B6818683C
:10296C003B6899683B685A683B68DB6800F053F930
:10297C007B681B689A687B681B6842F480429A608B
:10298C003CE07B6818683B6859683B68DB681A4612
:10299C0000F0CAF87B681B685021184600F021F93A
:1029AC002CE07B6818683B6859683B68DB681A4602
:1029BC0000F0E8F87B681B686021184600F011F9FC
:1029CC001CE07B6818683B6859683B68DB681A46F2
:1029DC0000F0AAF87B681B684021184600F001F94A
:1029EC000CE07B681A683B681B681946104600F0BF
:1029FC00F8F803E00123FB7300E000BF7B680122C1
:102A0C0083F83D207B68002283F83C20FB7B184632
:102A1C001037BD4680BD80B483B000AF786000BF76
:102A2C000C37BD4680BC704780B483B000AF786073
:102A3C0000BF0C37BD4680BC704780B483B000AF7C
:102A4C00786000BF0C37BD4680BC704780B483B043
:102A5C0000AF786000BF0C37BD4680BC70470000EB
:102A6C0080B485B000AF786039607B681B68FB6010
:102A7C007B682B4A934207D07B68B3F1804F03D01D
:102A8C007B68284A934208D1FB6823F07003FB60F3
:102A9C003B685B68FA681343FB607B68204A93428F
:102AAC0007D07B68B3F1804F03D07B681D4A9342FB
:102ABC0008D1FB6823F44073FB603B68DB68FA6861
:102ACC001343FB60FB6823F080023B685B69134394
:102ADC00FB607B68FA681A603B689A687B68DA620C
:102AEC003B681A687B689A627B680D4A934203D1F3
:102AFC003B681A697B681A637B6801225A617B68A0
:102B0C001B6903F00103002B05D07B681B6923F0C4
:102B1C0001027B681A6100BF1437BD4680BC704748
:102B2C00002C01400004004080B487B000AFF86076
:102B3C00B9607A60FB681B6A7B61FB681B6A23F0D7
:102B4C000102FB681A62FB689B693B613B6923F0DD
:102B5C00F0033B617B681B013A6913433B617B6962
:102B6C0023F00A037B617A69BB6813437B61FB68C2
:102B7C003A699A61FB687A691A6200BF1C37BD46D4
:102B8C0080BC704780B487B000AFF860B9607A60E1
:102B9C00FB681B6A7B61FB681B6A23F01002FB68F5
:102BAC001A62FB689B693B613B6923F470433B6190
:102BBC007B681B033A6913433B617B6923F0A003D9
:102BCC007B61BB681B017A6913437B61FB683A69C3
:102BDC009A61FB687A691A6200BF1C37BD4680BCDB
:102BEC00704780B485B000AF786039607B689B68B3
:102BFC00FB60FB6823F07003FB603A68FB681343CF
:102C0C0043F00703FB607B68FA689A6000BF1437D7
:102C1C00BD4680BC704780B487B000AFF860B96027
:102C2C007A603B60FB689B687B617B6923F47F4324
:102C3C007B613B681A027B681A43BB6813437A6951
:102C4C0013437B61FB687A699A6000BF1C37BD46F1
:102C5C0080BC704780B485B000AF786039607B6809
:102C6C0093F83C30012B01D1022341E07B68012217
:102C7C0083F83C207B68022283F83D207B681B682C
:102C8C005B68FB607B681B689B68BB60FB6823F020
:102C9C007003FB603B681B68FA681343FB607B683E
:102CAC001B68FA685A607B681B68144A934209D007
:102CBC007B681B68B3F1804F04D07B681B68104A9B
:102CCC0093420CD1BB6823F08003BB603B685B680C
:102CDC00BA681343BB607B681B68BA689A607B68F0
:102CEC00012283F83D207B68002283F83C200023DE
:102CFC0018461437BD4680BC704700BF002C0140FD
:102D0C000004004080B483B000AF786000BF0C3783
:102D1C00BD4680BC704780B483B000AF786000BF04
:102D2C000C37BD4680BC704770B500260C4D0D4C61
:102D3C00641BA410A64209D100F022F800260A4D0B
:102D4C000A4C641BA410A64205D170BD55F8043B77
:102D5C0098470136EEE755F8043B98470136F2E701
:102D6C00C82D0008C82D0008C82D0008CC2D00085F
:102D7C0003460244934200D1704703F8011BF9E764
:102D8C00F8B500BFF8BC08BC9E467047F8B500BF4C
:082D9C00F8BC08BC9E4670471C
:102DA40000000000000000000102030406070809F7
:102DB40002030405060708090A0B0C0D0E0F101078
:042DC4000102000008
:042DC80031010008CD
:042DCC000D010008ED
:102DD00000080140000801400008014000080140CF
:102DE00002000400080010000A00000001000000BA
:0C2DF00000127A0010000000010000003A
:0400000508001715C3
:00000001FF
