:020000040800F2
:10000000002800201D16000861130008671300086F
:100010006D13000873130008791300080000000036
:100020000000000000000000000000007F13000836
:100030008B1300080000000097130008A3130008AA
:1000400065160008651600086516000865160008A4
:100050006516000865160008651600086516000894
:100060006516000865160008651600086516000884
:100070006516000865160008651600086516000874
:100080006516000865160008651600086516000864
:100090006516000865160008651600086516000854
:1000A0006516000865160008651600086516000844
:1000B000B11300086516000800000000651600086E
:1000C000651600080000000000000000651600082A
:1000D000000000006516000865160008000000001A
:1000E0006516000865160008651600080000000087
:1000F0000000000000000000000000000000000000
:0C01000000000000000000005FF808F1A3
:10010C0010B5054C237833B9044B13B10448AFF345
:10011C0000800123237010BD2C0000200000000083
:10012C00642C000808B5034B1BB103490348AFF31B
:10013C00008008BD0000000030000020642C000886
:10014C0080B582B000AF78607B68092B00F28081AB
:10015C0001A252F823F000BF8D010008D501000860
:10016C001D02000865020008AD020008F502000837
:10017C003D03000885030008CD03000815040008A2
:10018C0000220121B44801F06AFD00220221B2488C
:10019C0001F065FD00220421AF4801F060FD002252
:1001AC000821AD4801F05BFD00221021AA4801F0A6
:1001BC0056FD00222021A84801F051FD01224021CA
:1001CC00A54801F04CFD43E101220121A24801F0B8
:1001DC0046FD00220221A04801F041FD002204212D
:1001EC009D4801F03CFD012208219B4801F037FDA0
:1001FC0001221021984801F032FD0122202196485D
:10020C0001F02DFD01224021934801F028FD1FE152
:10021C0000220121904801F022FD002202218E488B
:10022C0001F01DFD012204218B4801F018FD002274
:10023C000821894801F013FD00221021864801F0A5
:10024C000EFD01222021844801F009FD00224021ED
:10025C00814801F004FDFBE0002201217E4801F001
:10026C00FEFC002202217C4801F0F9FC0022042152
:10027C00794801F0F4FC00220821774801F0EFFCEA
:10028C0001221021744801F0EAFC0122202172485D
:10029C0001F0E5FC002240216F4801F0E0FCD7E0C2
:1002AC00012201216C4801F0DAFC002202216A488B
:1002BC0001F0D5FC00220421674801F0D0FC01229A
:1002CC000821654801F0CBFC01221021624801F0A5
:1002DC00C6FC00222021604801F0C1FC0022402114
:1002EC005D4801F0BCFCB3E0002201215A4801F04A
:1002FC00B6FC01220221584801F0B1FC0022042175
:10030C00554801F0ACFC00220821534801F0A7FC31
:10031C0001221021504801F0A2FC002220214E485D
:10032C0001F09DFC002240214B4801F098FC8FE02D
:10033C0000220121484801F092FC0122022146488A
:10034C0001F08DFC00220421434801F088FC0022BE
:10035C000821414801F083FC002210213E4801F0A5
:10036C007EFC002220213C4801F079FC0022402137
:10037C00394801F074FC6BE000220121364801F091
:10038C006EFC00220221344801F069FC0022042199
:10039C00314801F064FC012208212F4801F05FFC78
:1003AC00012210212C4801F05AFC012220212A485C
:1003BC0001F055FC01224021274801F050FC47E098
:1003CC0000220121244801F04AFC0022022122488B
:1003DC0001F045FC002204211F4801F040FC0022E2
:1003EC0008211D4801F03BFC002210211A4801F0A5
:1003FC0036FC00222021184801F031FC002240215B
:10040C00154801F02CFC23E000220121124801F0D8
:10041C0026FC00220221104801F021FC00220421BC
:10042C000D4801F01CFC002208210B4801F017FCC0
:10043C0001221021084801F012FC0022202106485C
:10044C0001F00DFC00224021034801F008FC00BF24
:10045C0000BF0837BD4680BD000C014080B582B09E
:10046C0000AF78607B68032B76D801A252F823F09A
:10047C008D040008C3040008F90400082F050008C7
:10048C0000222021374801F0EAFB012240213548A7
:10049C0001F0E5FB01228021324801F0E0FB012252
:1004AC004FF480712F4801F0DAFB2F4B1B68184674
:1004BC00FFF746FE51E0012220212A4801F0CFFB34
:1004CC0000224021274801F0CAFB01228021254847
:1004DC0001F0C5FB01224FF48071224801F0BFFBF3
:1004EC00214B5B681846FFF72BFE36E001222021DA
:1004FC001C4801F0B4FB012240211A4801F0AFFB6B
:10050C0000228021174801F0AAFB01224FF48071D0
:10051C00144801F0A4FB144B9B681846FFF710FE1F
:10052C001BE0012220210F4801F099FB0122402100
:10053C000C4801F094FB012280210A4801F08FFB4A
:10054C0000224FF48071074801F089FB064BDB68F1
:10055C001846FFF7F5FD00E000BF00BF0837BD46A9
:10056C0080BD00BF000801404801002080B483B06A
:10057C0000AF78607B680D4A82FB03129210DB1788
:10058C00D31A0B4A13607968084B83FB01239A102A
:10059C00CB17D21A13469B0013445B00CA1A044BA8
:1005AC005A6000BF0C37BD4680BC704767666666F4
:1005BC004801002080B483B000AF78607B680D4A9E
:1005CC0082FB03129210DB17D31A0B4A93607968E3
:1005DC00084B83FB01239A10CB17D21A13469B00AE
:1005EC0013445B00CA1A044BDA6000BF0C37BD46DB
:1005FC0080BC7047676666664801002080B500AF16
:10060C00144B1B6A002B06D1134B1B6A002B02D117
:10061C00104B19221A62082000F002FE0346012B2F
:10062C0011D10E4B1B6801330C4A13600B4B1B682A
:10063C00032B02DD094B00221A60064B19221A62A9
:10064C00054B00221A62054B1B681846FFF706FF84
:10065C0000BF80BD50000020780000204C0000201E
:10066C0080B483B000AF7860094A7B6852F82330BD
:10067C00012B06D1064A7B68002142F82310012386
:10068C0000E0002318460C37BD4680BC704700BF05
:10069C000801002080B483B000AF7860094A7B6801
:1006AC0052F82330012B06D1064A7B68002142F810
:1006BC002310012300E0002318460C37BD4680BCF4
:1006CC00704700BF3801002080B582B000AF002316
:1006DC007B6088E0484A7B6852F8232047497B6856
:1006EC0041F82320464A7B6852F8232042497B6814
:1006FC0041F82320434A7B6852F8232042497B6807
:10070C0031F813301946104601F092FA0346194697
:10071C003B4A7B6842F82310374A7B6852F8232007
:10072C0037497B6851F823309A4259D1324A7B6859
:10073C0052F8232031497B6851F823309A424FD12B
:10074C002E4A7B6852F8232030497B6851F82330BD
:10075C009A4225D0294A7B6852F823202B497B6882
:10076C0041F82320294A7B6852F82330002B05D10D
:10077C00274A7B68C82142F8231031E0244A7B6861
:10078C0052F82330002B2BDD214A7B6852F82330A2
:10079C00C72B25DC1F4A7B68012142F823101FE080
:1007AC001A4A7B6852F82330002B19D1184A7B68FF
:1007BC0052F82330002B08DD154A7B6852F82330A1
:1007CC005A1E13497B6841F82320114A7B6852F862
:1007DC002330002B04D1104A7B68012142F82310EE
:1007EC007B6801337B607B68032B7FF773AF00BFA3
:1007FC0000BF0837BD4680BDE8000020280100205E
:10080C00D80000200000002010000020C8000020AC
:10081C00F8000020080100203801002080B500AF4E
:10082C00974B1B68013B052B00F2A88101A252F8E3
:10083C0023F000BF59080008B3080008A10A0008FB
:10084C00F3090008890B00084D0900080521002058
:10085C0000F0C4FC0321012000F0C0FC894B0522F0
:10086C001A60884B03225A60864B02229A6000F071
:10087C0027FE854B1B68854A126802FB03F303F5C0
:10088C00FA73834A82FB03129211DB17D31A1846B0
:10089C00FFF76CFE0020FFF78DFEFFF7AFFE784BE5
:1008AC0002221A6073E100F08DFD774B1B68774ACA
:1008BC00126802FB03F303F5FA73754A82FB031209
:1008CC009211DB17D31A1846FFF750FE0020FFF7E2
:1008DC0071FE012000F0A4FC0346012B1CD1694BD6
:1008EC009B681946012000F079FC654B06221A60C2
:1008FC00654B1B68654A126802FB03F303F5FA7338
:10090C00634A82FB03129211DB17D31A1846FFF7C6
:10091C002DFE0020FFF74EFE0120FFF7A1FE03463F
:10092C00012B02D1564B15221A600220FFF798FEBC
:10093C000346012B40F02481514B1F221A601FE10A
:10094C0000F06AFD504B1B68504A126802FB03F31F
:10095C0003F5FA734E4A82FB03129211DB17D31A7A
:10096C001846FFF703FE0020FFF724FE012000F0DD
:10097C0057FC0346012B22D1424B1B681946012020
:10098C0000F02CFC3F4B5B681946002000F026FC65
:10099C003B4B04221A603C4B1B683C4A126802FB1E
:1009AC0003F303F5FA733A4A82FB03129211DB1735
:1009BC00D31A1846FFF7DAFD0020FFF7FBFD0120E4
:1009CC00FFF74EFE0346012B02D12D4B15221A6068
:1009DC000220FFF745FE0346012B40F0D380284B45
:1009EC001F221A60CEE000F041FD274B1B68274AFE
:1009FC00126802FB03F303F5FA73254A82FB031218
:100A0C009211DB17D31A1846FFF7B0FD0020FFF741
:100A1C00D1FD002000F004FC0346012B1CD1184B27
:100A2C0003221A60174B9B681946002000F0D6FB76
:100A3C00154B1B68154A126802FB03F303F5FA7396
:100A4C00134A82FB03129211DB17D31A1846FFF7D5
:100A5C008DFD0020FFF7AEFD0120FFF701FE0346E0
:100A6C00012B02D1064B15221A600220FFF7F8FD6C
:100A7C000346012B40F08880014B1F221A6083E053
:100A8C001C000020A00000205000002018000020B6
:100A9C00D34D621000224FF480613F4801F0DFF823
:100AAC0000224FF480513C4801F0D9F801224FF458
:100ABC000061394801F0D3F801224FF40051364857
:100ACC0001F0CDF800224FF40041334801F0C7F893
:100ADC0000224FF48041304801F0C1F82F4B1B68C5
:100AEC002F4A126802FB03F303F5FA732D4A82FBBB
:100AFC0003129211DB17D31A1846FFF737FD0020AB
:100B0C00FFF758FD002000F08BFB0346012B22D190
:100B1C00254B02221A60254B1B681946002000F059
:100B2C005DFB224B5B681946012000F057FB1B4B09
:100B3C001B681B4A126802FB03F303F5FA73194A8C
:100B4C0082FB03129211DB17D31A1846FFF70EFD26
:100B5C000020FFF72FFD0120FFF782FD0346012B3C
:100B6C0002D1114B15221A600220FFF779FD0346C2
:100B7C00012B0BD10C4B1F221A6007E000BF06E0C3
:100B8C0000BF04E000BF02E000BF00E000BFFFF7C1
:100B9C0035FD00BF80BD00BF0008014050000020A3
:100BAC0018000020D34D62101C000020A000002073
:100BBC0080B500AF8A4B1B681F3B032B00F20C81E6
:100BCC0001A252F823F000BFE50B0008030C00084B
:100BDC00930C0008230D0008824B1B781A46824B9D
:100BEC0053F822301846FFF7E5FC0020FFF7BEFC57
:100BFC007B4B20221A6000F08DFC7A4B1B781A4636
:100C0C00794B53F822301846FFF7D4FC0020FFF73D
:100C1C00ADFC0020FFF724FD0346012B0BD1724BDA
:100C2C001B680133704A13606F4B1B68622B02DD2B
:100C3C006D4B63221A600120FFF712FD0346012B56
:100C4C000BD1694B1B68013B674A1360664B1B68F1
:100C5C00002B02DC644B00221A600220FFF700FD1F
:100C6C000346012B02D15E4B21221A600320FFF7B1
:100C7C00F7FC0346012B02D1594B01221A60594B48
:100C8C0000221A70A9E000F06FFC564B1B781A4634
:100C9C00554B53F822301846FFF78CFC0020FFF719
:100CAC0065FC0020FFF7DCFC0346012B0BD14E4BFF
:100CBC009B6801334C4A93604B4B9B68622B02DD63
:100CCC00494B63229A600120FFF7CAFC0346012BB3
:100CDC000BD1454B9B68013B434A9360424B9B684D
:100CEC00002B02DC404B00229A600220FFF7B8FC7C
:100CFC000346012B02D13A4B22221A600320FFF744
:100D0C00AFFC0346012B02D1354B01221A60354B47
:100D1C0002221A7061E000F051FC324B1B781A462B
:100D2C00314B53F822301846FFF744FC0020FFF7F4
:100D3C001DFC0020FFF794FC0346012B0BD12A4B22
:100D4C005B680133284A5360274B5B68622B02DDDA
:100D5C00254B63225A600120FFF782FC0346012BCE
:100D6C000BD1214B5B68013B1F4A53601E4B5B68E8
:100D7C00002B02DC1C4B00225A600220FFF770FC97
:100D8C000346012B1BD1184B5A68174B9B681A440E
:100D9C00154B1B689A4203D0114B01221A600EE0CE
:100DAC00114B1B681946002000F018FA0E4B5B68BB
:100DBC001946012000F012FA094B02221A60032096
:100DCC00FFF74EFC0346012B02D1054B01221A60A2
:100DDC00044B01221A7000E000BF00BF80BD00BFB1
:100DEC001C00002048000020A000002080B500AFAF
:100DFC006E4B1B68153B062B00F2CA8001A252F801
:100E0C0023F000BF2D0E00083F0E00089D0F0008B8
:100E1C006D0F0008D70E00088D0E0008230F000878
:100E2C000020FFF7A3FB0020FFF7C4FB5F4B16224B
:100E3C001A6000F0C7FA0020FFF712FC0346012BE2
:100E4C0006D15A4B1A221A600221022000F0C6F970
:100E5C000020FFF71FFC0346012B06D1534B182231
:100E6C001A600121032000F0B9F90320FFF7F8FB09
:100E7C000346012B40F08E804C4B01221A6089E016
:100E8C0000F072FB022000F0CBF90346012B05D1D8
:100E9C00464B19221A60464B00229A600020FFF73D
:100EAC00F9FB0346012B06D1404B18221A60012195
:100EBC00032000F093F90320FFF7D2FB0346012B2C
:100ECC006AD13A4B01221A6066E000F0CFFA00209A
:100EDC00FFF7C6FB0346012B06D10221022000F0CE
:100EEC007DF9324B1B221A600020FFF7D3FB03461F
:100EFC00012B06D12D4B18221A600121032000F082
:100F0C006DF90320FFF7ACFB0346012B46D1274BB1
:100F1C0001221A6042E000F027FB022000F080F969
:100F2C000346012B05D1214B16221A60204B0022BF
:100F3C009A600020FFF7AEFB0346012B06D11B4B3A
:100F4C0018221A600121032000F048F90320FFF752
:100F5C0087FB0346012B23D1144B01221A601FE09F
:100F6C0000F0AEFA032000F05BF90346012B05D12B
:100F7C0000F0FAFA0121032000F030F90320FFF70A
:100F8C006FFB0346012B0DD1084B01221A6009E0BF
:100F9C0000BF08E000BF06E000BF04E000BF02E0B5
:100FAC0000BF00E000BF00BF80BD00BF1C000020E0
:100FBC007800002080B500AF00F050FB00F010F876
:100FCC0000F096F800F048F8044801F08DFAFFF7AD
:100FDC0025FCFFF70BFFFFF7EBFDF8E758010020AE
:100FEC0080B590B000AF07F11803282200211846F5
:100FFC0001F02AFE3B1D00221A605A609A60DA60EA
:10100C001A610223BB610123BB621023FB62002324
:10101C007B6307F11803184600F03AFE0346002BD9
:10102C0001D000F0D6F80F237B600023BB600023B7
:10103C00FB6000233B6100237B613B1D00211846B4
:10104C0001F0A6F80346002B01D000F0C2F800BF57
:10105C004037BD4680BD000080B586B000AF07F1BB
:10106C00080300221A605A609A60DA603B4600223C
:10107C001A605A601D4B4FF080421A601B4B41F6B0
:10108C003F725A60194B00229A60184B0922DA60A1
:10109C00164B00221A61154B00229A61134801F07D
:1010AC00D3F90346002B01D000F093F84FF4805392
:1010BC00BB6007F1080319460C4801F051FB0346CD
:1010CC00002B01D000F085F800233B6000237B60EF
:1010DC003B461946054801F029FD0346002B01D07B
:1010EC0000F077F800BF1837BD4680BD58010020CE
:1010FC0080B586B000AF07F1080300221A605A6071
:10110C009A60DA60274B9B69264A43F0040393618B
:10111C00244B9B6903F004037B607B68214B9B6928
:10112C00204A43F0080393611E4B9B6903F00803AC
:10113C003B603B6800224FF6E0511B4800F08FFDEE
:10114C0000227F21194800F08AFD1E23BB6000237A
:10115C00FB6001233B6107F108031946124800F0BC
:10116C00EDFB4FF6E053BB600123FB6000233B61BA
:10117C0002237B6107F1080319460B4800F0DEFBE4
:10118C007F23BB600123FB6000233B6102237B6157
:10119C0007F108031946054800F0D0FB00BF1837CB
:1011AC00BD4680BD0010024000080140000C01400B
:1011BC0080B582B000AF78607B681B68B3F1804F5C
:1011CC0003D100F041F8FFF77FFA00BF0837BD46A6
:1011DC0080BD80B400AF72B600BFFEE780B483B0B0
:1011EC0000AF786039603B684FF47A7202FB03F20F
:1011FC00084B1B6892FBF3F207497B6841F82320EC
:10120C00064A7B68002142F8231000BF0C37BD460C
:10121C0080BC70471800002050000020780000208F
:10122C0080B483B000AF7860064A7B6852F82330F4
:10123C00012B01D1012300E0002318460C37BD46D9
:10124C0080BC70477800002080B483B000AF0023CE
:10125C007B601CE0124A7B6852F82330002B13DDB4
:10126C000F4A7B6852F823305A1E0D497B6841F8AF
:10127C0023200B4A7B6852F82330002B04DC094AEC
:10128C007B68012142F823107B6801337B607B680B
:10129C00092BDFDD00BF00BF0C37BD4680BC70479B
:1012AC00500000207800002080B485B000AF154BB2
:1012BC009B69144A43F001039361124B9B6903F041
:1012CC000103BB60BB680F4BDB690E4A43F08053D4
:1012DC00D3610C4BDB6903F080537B607B680A4B5A
:1012EC005B68FB60FB6823F0E063FB60FB6843F02A
:1012FC008063FB60044AFB68536000BF1437BD4633
:10130C0080BC7047001002400000014080B584B0E2
:10131C0000AF78607B681B68B3F1804F13D10C4B26
:10132C00DB690B4A43F00103D361094BDB6903F022
:10133C000103FB60FB68002200211C2000F0C7FAAF
:10134C001C2000F0E0FA00BF1037BD4680BD00BF86
:10135C000010024080B400AFFEE780B400AFFEE79F
:10136C0080B400AFFEE780B400AFFEE780B400AFFE
:10137C00FEE780B400AF00BFBD4680BC704780B4B0
:10138C0000AF00BFBD4680BC704780B400AF00BF4B
:10139C00BD4680BC704780B500AF00F0A5F900BF1A
:1013AC0080BD000080B500AF024801F0E9F800BF35
:1013BC0080BD00BF5801002080B400AF00BFBD4607
:1013CC0080BC704780B500AF01224FF4806111489A
:1013DC0000F045FC00224FF480510E4800F03FFC19
:1013EC0000224FF400610B4800F039FC00224FF44E
:1013FC000051084800F033FC01224FF4004105482D
:10140C0000F02DFC00224FF48041024800F027FC34
:10141C0000BF80BD0008014080B500AF01224FF431
:10142C008061114800F01BFC00224FF480510E48E3
:10143C0000F015FC00224FF400610B4800F00FFC8B
:10144C0000224FF40051084800F009FC00224FF430
:10145C000041054800F003FC01224FF48041024892
:10146C0000F0FDFB00BF80BD0008014080B500AF5F
:10147C0000224FF48061114800F0F1FB01224FF47F
:10148C0080510E4800F0EBFB00224FF400610B483A
:10149C0000F0E5FB01224FF40051084800F0DFFB9F
:1014AC0000224FF40041054800F0D9FB00224FF414
:1014BC008041024800F0D3FB00BF80BD0008014012
:1014CC0080B500AF00224FF48061114800F0C7FBDB
:1014DC0000224FF480510E4800F0C1FB00224FF463
:1014EC0000610B4800F0BBFB00224FF40051084890
:1014FC0000F0B5FB00224FF40041054800F0AFFBB3
:10150C0000224FF48041024800F0A9FB00BF80BDCF
:10151C000008014080B500AF01224FF480611148F2
:10152C0000F09DFB00224FF480510E4800F097FB19
:10153C0000224FF400610B4800F091FB01224FF4A4
:10154C000051084800F08BFB00224FF40041054885
:10155C0000F085FB00224FF48041024800F07FFB35
:10156C0000BF80BD0008014080B500AF00224FF4E1
:10157C008061114800F073FB00224FF480510E483B
:10158C0000F06DFB01224FF400610B4800F067FB8B
:10159C0000224FF40051084800F061FB00224FF488
:1015AC000041054800F05BFB01224FF480410248EA
:1015BC0000F055FB00BF80BD0008014080B500AFB6
:1015CC0000224FF48061114800F049FB01224FF4D6
:1015DC0080510E4800F043FB00224FF400610B4891
:1015EC0000F03DFB00224FF40051084800F037FB9F
:1015FC0001224FF40041054800F031FB00224FF46A
:10160C008041024800F02BFB00BF80BD0008014068
:10161C00FFF7D2FE0B480C490C4A002302E0D458C9
:10162C00C4500433C4188C42F9D3094A094C002322
:10163C0001E013600432A242FBD301F0E1FAFFF7A0
:10164C00B9FC7047000000202C000020A82C0008DA
:10165C002C000020A4010020FEE7000080B500AFA4
:10166C00084B1B68074A43F010031360032000F07B
:10167C0023F90F2000F008F8FFF716FE0023184698
:10168C0080BD00BF0020024080B582B000AF786002
:10169C00124B1A68124B1B7819464FF47A73B3FB32
:1016AC00F1F3B2FBF3F3184600F03BF90346002BC1
:1016BC0001D001230EE07B680F2B0AD80022796839
:1016CC004FF0FF3000F003F9064A7B6813600023EB
:1016DC0000E0012318460837BD4680BD20000020DD
:1016EC00280000202400002080B400AF054B1B789C
:1016FC001A46054B1B681344034A136000BFBD46D2
:10170C0080BC704728000020A001002080B400AFEE
:10171C00024B1B681846BD4680BC7047A0010020D8
:10172C0080B485B000AF78607B6803F00703FB6082
:10173C000C4BDB68BB60BA684FF6FF031340BB6011
:10174C00FB681A02BB68134343F0BF6343F40033D6
:10175C00BB60044ABB68D36000BF1437BD4680BC75
:10176C00704700BF00ED00E080B400AF044BDB68B5
:10177C001B0A03F007031846BD4680BC704700BF28
:10178C0000ED00E080B483B000AF0346FB7197F925
:10179C000730002B0BDBFB7903F01F02064997F98E
:1017AC0007305B09012000FA02F241F8232000BF48
:1017BC000C37BD4680BC704700E100E080B483B0BC
:1017CC0000AF03463960FB7197F90730002B0ADB39
:1017DC003B68DAB20C4997F907301201D2B20B44CC
:1017EC0083F800230AE03B68DAB20849FB7903F07E
:1017FC000F03043B1201D2B20B441A7600BF0C3714
:10180C00BD4680BC704700BF00E100E000ED00E089
:10181C0080B489B000AFF860B9607A60FB6803F0FF
:10182C000703FB61FB69C3F10703042B28BF0423E7
:10183C00BB61FB690433062B02D9FB69033B00E057
:10184C0000237B614FF0FF32BB6902FA03F3DA43EA
:10185C00BB681A407B699A404FF0FF317B6901FAF3
:10186C0003F3D9437B680B40134318462437BD461A
:10187C0080BC704780B582B000AF78607B68013B5C
:10188C00B3F1807F01D301230FE00A4A7B68013B4F
:10189C0053600F214FF0FF30FFF790FF054B0022F4
:1018AC009A60044B07221A60002318460837BD467D
:1018BC0080BD00BF10E000E080B582B000AF786062
:1018CC007868FFF72DFF00BF0837BD4680BD80B597
:1018DC0086B000AF0346B9607A60FB7300237B616E
:1018EC00FFF742FF78617A68B9687869FFF790FF73
:1018FC00024697F90F3011461846FFF75FFF00BFFD
:10190C001837BD4680BD80B582B000AF0346FB7171
:10191C0097F907301846FFF735FF00BF0837BD466B
:10192C0080BD80B582B000AF78607868FFF7A2FF09
:10193C00034618460837BD4680BD000080B48BB006
:10194C0000AF7860396000237B6200233B6248E182
:10195C0001227B6A02FA03F3FB613B681B68FA699C
:10196C001340BB61BA69FB699A4240F037813B680E
:10197C005B68A34A93425ED0A14A934275D8A14AB0
:10198C00934258D09F4A93426FD89F4A934252D069
:10199C009D4A934269D89D4A93424CD09B4A9342AC
:1019AC0063D89B4A934246D0994A93425DD8122BF6
:1019BC002AD8122B59D801A252F823F0431A000846
:1019CC001D1A00082F1A0008711A0008771A00084F
:1019DC00771A0008771A0008771A0008771A000897
:1019EC00771A0008771A0008771A0008771A000887
:1019FC00771A0008771A0008771A0008771A000877
:101A0C00251A0008391A0008824A934213D02CE098
:101A1C003B68DB683B6229E03B68DB6804333B6274
:101A2C0024E03B68DB6808333B621FE03B68DB6803
:101A3C000C333B621AE03B689B68002B02D10423F9
:101A4C003B6213E03B689B68012B05D108233B628A
:101A5C007B68FA691A6109E008233B627B68FA69C2
:101A6C005A6103E000233B6200E000BFBB69FF2B1F
:101A7C0001D87B6801E07B6804337B61BB69FF2B79
:101A8C0002D87B6A9B0002E07B6A083B9B003B61AF
:101A9C007B691A680F213B6901FA03F3DB431A4097
:101AAC00396A3B6901FA03F31A437B691A603B6894
:101ABC005B6803F08053002B00F09080564B9B69C1
:101ACC00554A43F001039361534B9B6903F00103A7
:101ADC00BB60BB68514A7B6A9B08023352F82330C7
:101AEC00FB607B6A03F003039B000F2202FA03F3F3
:101AFC00DB43FA681340FB607B68494A93420DD084
:101B0C007B68484A934207D07B68474A934201D18D
:101B1C00022304E0032302E0012300E000237A6A9D
:101B2C0002F0030292009340FA681343FB603B49B6
:101B3C007B6A9B080233FA6841F823203B685B6898
:101B4C0003F48013002B06D0384B9A683749BB69D5
:101B5C0013438B6006E0354B9A68BB69DB43334912
:101B6C0013408B603B685B6803F40013002B06D0BA
:101B7C002E4BDA682D49BB691343CB6006E02B4B27
:101B8C00DA68BB69DB4329491340CB603B685B686F
:101B9C0003F40033002B06D0244B5A682349BB694D
:101BAC0013434B6006E0214B5A68BB69DB431F496A
:101BBC0013404B603B685B6803F48033002B06D00A
:101BCC001A4B1A681949BB6913430B6006E0174B93
:101BDC001A68BB69DB43154913400B607B6A013300
:101BEC007B623B681A687B6A22FA03F3002B7FF452
:101BFC00AFAE00BF00BF2C37BD4680BC704700BFE6
:101C0C0000003210000031100000221000002110E2
:101C1C0000001210000011100010024000000140E2
:101C2C0000080140000C014000100140000401407C
:101C3C0080B485B000AF78600B467B807B689A6877
:101C4C007B881340002B02D00123FB7301E000239F
:101C5C00FB73FB7B18461437BD4680BC704780B4C1
:101C6C0083B000AF78600B467B8013467B707B782B
:101C7C00002B03D07A887B681A6103E07B881A04F6
:101C8C007B681A6100BF0C37BD4680BC70470000F2
:101C9C0080B586B000AF78607B68002B01D1012342
:101CAC006CE27B681B6803F00103002B00F087805B
:101CBC00924B5B6803F00C03042B0CD08F4B5B68CE
:101CCC0003F00C03082B12D18C4B5B6803F48033AC
:101CDC00B3F5803F0BD1894B1B6803F40033002B09
:101CEC006CD07B685B68002B68D1012346E27B6873
:101CFC005B68B3F5803F06D1804B1B687F4A43F489
:101D0C00803313602EE07B685B68002B0CD17B4B1F
:101D1C001B687A4A23F480331360784B1B68774A2C
:101D2C0023F4802313601DE07B685B68B3F5A02F60
:101D3C000CD1724B1B68714A43F4802313606F4BB8
:101D4C001B686E4A43F4803313600BE06B4B1B68CB
:101D5C006A4A23F480331360684B1B68674A23F488
:101D6C00802313607B685B68002B13D0FFF7CEFCDD
:101D7C00386108E0FFF7CAFC02463B69D31A642BB2
:101D8C0001D90323FAE15D4B1B6803F40033002BEC
:101D9C00F0D014E0FFF7BAFC386108E0FFF7B6FCAE
:101DAC0002463B69D31A642B01D90323E6E1534B5A
:101DBC001B6803F40033002BF0D100E000BF7B68FC
:101DCC001B6803F00203002B63D04C4B5B6803F0E1
:101DDC000C03002B0BD0494B5B6803F00C03082B56
:101DEC001CD1464B5B6803F48033002B16D1434B5C
:101DFC001B6803F00203002B05D07B681B69012BC9
:101E0C0001D00123BAE13D4B1B6823F0F8027B683B
:101E1C005B69DB00394913430B603AE07B681B6953
:101E2C00002B20D0364B01221A60FFF76FFC386173
:101E3C0008E0FFF76BFC02463B69D31A022B01D971
:101E4C0003239BE12D4B1B6803F00203002BF0D006
:101E5C002A4B1B6823F0F8027B685B69DB0027497F
:101E6C0013430B6015E0264B00221A60FFF74EFC63
:101E7C00386108E0FFF74AFC02463B69D31A022B93
:101E8C0001D903237AE11D4B1B6803F00203002BDD
:101E9C00F0D17B681B6803F00803002B3AD07B68F9
:101EAC009B69002B19D0174B01221A60FFF72EFCEF
:101EBC00386108E0FFF72AFC02463B69D31A022B73
:101ECC0001D903235AE10D4B5B6A03F00203002B8B
:101EDC00F0D0012000F09AFA1CE00A4B00221A60A4
:101EEC00FFF714FC38610FE0FFF710FC02463B696A
:101EFC00D31A022B08D9032340E100BF0010024083
:101F0C0000004242800442429E4B5B6A03F0020393
:101F1C00002BE9D17B681B6803F00403002B00F055
:101F2C00A6800023FB75974BDB6903F08053002BD5
:101F3C000DD1944BDB69934A43F08053D361914BA1
:101F4C00DB6903F08053BB60BB680123FB758E4BD0
:101F5C001B6803F48073002B18D18B4B1B688A4AC7
:101F6C0043F480731360FFF7D1FB386108E0FFF78F
:101F7C00CDFB02463B69D31A642B01D90323FDE048
:101F8C00814B1B6803F48073002BF0D07B68DB68FB
:101F9C00012B06D17B4B1B6A7A4A43F00103136277
:101FAC002DE07B68DB68002B0CD1764B1B6A754AE5
:101FBC0023F001031362734B1B6A724A23F0040370
:101FCC0013621CE07B68DB68052B0CD16D4B1B6A24
:101FDC006C4A43F0040313626A4B1B6A694A43F070
:101FEC00010313620BE0674B1B6A664A23F0010383
:101FFC001362644B1B6A634A23F0040313627B680D
:10200C00DB68002B15D0FFF781FB38610AE0FFF786
:10201C007DFB02463B69D31A41F28832934201D9C7
:10202C000323ABE0574B1B6A03F00203002BEED0EB
:10203C0014E0FFF76BFB38610AE0FFF767FB024621
:10204C003B69D31A41F28832934201D9032395E0BC
:10205C004C4B1B6A03F00203002BEED1FB7D012BD2
:10206C0005D1484BDB69474A23F08053D3617B6829
:10207C00DB69002B00F08180424B5B6803F00C03A2
:10208C00082B61D07B68DB69022B46D13F4B0022C9
:10209C001A60FFF73BFB386108E0FFF737FB02469D
:1020AC003B69D31A022B01D9032367E0354B1B681C
:1020BC0003F00073002BF0D17B681B6AB3F5803FF3
:1020CC0008D1304B5B6823F400327B689B682D4948
:1020DC0013434B602B4B5B6823F474127B68196AB7
:1020EC007B685B6A0B43274913434B60274B0122E8
:1020FC001A60FFF70BFB386108E0FFF707FB02469D
:10210C003B69D31A022B01D9032337E01D4B1B6803
:10211C0003F00073002BF0D02FE01C4B00221A6050
:10212C00FFF7F4FA386108E0FFF7F0FA02463B6972
:10213C00D31A022B01D9032320E0124B1B6803F0A6
:10214C000073002BF0D118E07B68DB69012B01D107
:10215C00012313E00B4B5B68FB60FB6803F48032DC
:10216C007B681B6A9A4206D1FB6803F470127B6889
:10217C005B6A9A4201D0012300E00023184618370D
:10218C00BD4680BD0010024000700040600042421D
:10219C0080B584B000AF786039607B68002B01D1CA
:1021AC000123D0E06A4B1B6803F007033A689A429C
:1021BC0010D9674B1B6823F0070265493B68134332
:1021CC000B60634B1B6803F007033A689A4201D01B
:1021DC000123B8E07B681B6803F00203002B20D0BE
:1021EC007B681B6803F00403002B05D0594B5B681C
:1021FC00584A43F4E06353607B681B6803F00803A0
:10220C00002B05D0534B5B68524A43F46053536028
:10221C00504B5B6823F0F0027B689B684D4913437D
:10222C004B607B681B6803F00103002B40D07B687C
:10223C005B68012B07D1474B1B6803F40033002B61
:10224C0015D101237FE07B685B68022B07D1414BE2
:10225C001B6803F00073002B09D1012373E03D4B85
:10226C001B6803F00203002B01D101236BE0394BF7
:10227C005B6823F003027B685B68364913434B6051
:10228C00FFF744FAF8600AE0FFF740FA0246FB68F1
:10229C00D31A41F28832934201D9032353E02D4BD8
:1022AC005B6803F00C027B685B689B009A42EBD185
:1022BC00274B1B6803F007033A689A4210D2244B51
:1022CC001B6823F0070222493B6813430B60204B29
:1022DC001B6803F007033A689A4201D0012332E0ED
:1022EC007B681B6803F00403002B08D0194B5B6858
:1022FC0023F4E0627B68DB68164913434B607B6810
:10230C001B6803F00803002B09D0124B5B6823F405
:10231C0060527B681B69DB000E4913434B6000F075
:10232C0021F802460B4B5B681B0903F00F030A49AB
:10233C00CB5C22FA03F3094A1360094B1B6818465D
:10234C00FFF7A2F9002318461037BD4680BD00BF29
:10235C0000200240001002407C2C000820000020CD
:10236C002400002080B487B000AF0023FB60002362
:10237C00BB6000237B6100237B6000233B611E4B11
:10238C005B68FB60FB6803F00C03042B02D0082B8A
:10239C0003D027E0194B3B6127E0FB689B0C03F053
:1023AC000F03174AD35C7B60FB6803F48033002B6C
:1023BC0010D0114B5B685B0C03F00103114AD35C2A
:1023CC00BB607B680D4A02FB03F2BB68B2FBF3F304
:1023DC007B6104E07B680C4A02FB03F37B617B6945
:1023EC003B6102E0054B3B6100BF3B6918461C3763
:1023FC00BD4680BC704700BF0010024000127A003E
:10240C008C2C00089C2C000800093D0080B485B081
:10241C0000AF78600A4B1B680A4AA2FB03235B0AD5
:10242C007A6802FB03F3FB6000BFFB685A1EFA607C
:10243C00002BF9D100BF00BF1437BD4680BC7047DC
:10244C0020000020D34D621080B582B000AF7860C0
:10245C007B68002B01D1012341E07B6893F83D3070
:10246C00DBB2002B06D17B68002283F83C20786815
:10247C00FEF74CFF7B68022283F83D207B681A68CC
:10248C007B6804331946104600F056FA7B6801222B
:10249C0083F846207B68012283F83E207B6801226A
:1024AC0083F83F207B68012283F840207B6801225F
:1024BC0083F841207B68012283F842207B6801224B
:1024CC0083F843207B68012283F844207B68012237
:1024DC0083F845207B68012283F83D2000231846B1
:1024EC000837BD4680BD000080B485B000AF786071
:1024FC007B6893F83D30DBB2012B01D0012335E032
:10250C007B68022283F83D207B681B68DA687B6855
:10251C001B6842F00102DA607B681B68164A934222
:10252C0009D07B681B68B3F1804F04D07B681B68B3
:10253C00124A934211D17B681B689B6803F0070316
:10254C00FB60FB68062B10D07B681B681A687B68E5
:10255C001B6842F001021A6007E07B681B681A686E
:10256C007B681B6842F001021A600023184614377E
:10257C00BD4680BC704700BF002C014000040040E9
:10258C0080B584B000AF78607B681B68DB68FB604B
:10259C007B681B681B69BB60BB6803F00203002BE4
:1025AC0020D0FB6803F00203002B1BD07B681B6858
:1025BC006FF002021A617B6801221A777B681B6834
:1025CC009B6903F00303002B03D0786800F098F9A3
:1025DC0005E0786800F08BF9786800F09AF97B6870
:1025EC0000221A77BB6803F00403002B20D0FB6891
:1025FC0003F00403002B1BD07B681B686FF00402F4
:10260C001A617B6802221A777B681B689B6903F44A
:10261C004073002B03D0786800F072F905E07868FD
:10262C0000F065F9786800F074F97B6800221A777D
:10263C00BB6803F00803002B20D0FB6803F00803F1
:10264C00002B1BD07B681B686FF008021A617B683B
:10265C0004221A777B681B68DB6903F00303002BE9
:10266C0003D0786800F04CF905E0786800F03FF989
:10267C00786800F04EF97B6800221A77BB6803F08B
:10268C001003002B20D0FB6803F01003002B1BD091
:10269C007B681B686FF010021A617B6808221A773E
:1026AC007B681B68DB6903F44073002B03D07868EC
:1026BC0000F026F905E0786800F019F9786800F068
:1026CC0028F97B6800221A77BB6803F00103002B02
:1026DC000CD0FB6803F00103002B07D07B681B6850
:1026EC006FF001021A617868FEF762FDBB6803F0B7
:1026FC008003002B0CD0FB6803F08003002B07D069
:10270C007B681B686FF080021A61786800F06FFAC2
:10271C00BB6803F04003002B0CD0FB6803F04003B4
:10272C00002B07D07B681B686FF040021A61786839
:10273C0000F0F8F8BB6803F02003002B0CD0FB680A
:10274C0003F02003002B07D07B681B686FF020027E
:10275C001A61786800F042FA00BF1037BD4680BDA0
:10276C0080B584B000AF786039600023FB737B6860
:10277C0093F83C30012B01D10223B4E07B68012299
:10278C0083F83C207B68022283F83D207B681B6821
:10279C009B68BB60BB6823F07703BB60BB6823F40A
:1027AC007F43BB607B681B68BA689A603B681B6898
:1027BC00B3F5005F3ED0B3F5005F00F28780B3F550
:1027CC00805F00F08680B3F5805F7FD8702B1AD0C5
:1027DC00702B7BD8602B50D0602B77D8502B3CD0F3
:1027EC00502B73D8402B58D0402B6FD8302B64D043
:1027FC00302B6BD8202B60D0202B67D8002B5CD0D3
:10280C00102B5AD062E07B6818683B6899683B686B
:10281C005A683B68DB6800F06AF97B681B689B6848
:10282C00BB60BB6843F07703BB607B681B68BA680E
:10283C009A604FE07B6818683B6899683B685A68F7
:10284C003B68DB6800F053F97B681B689A687B680F
:10285C001B6842F480429A603CE07B6818683B68D5
:10286C0059683B68DB681A4600F0CAF87B681B683D
:10287C005021184600F021F92CE07B6818683B6861
:10288C0059683B68DB681A4600F0E8F87B681B68FF
:10289C006021184600F011F91CE07B6818683B6851
:1028AC0059683B68DB681A4600F0AAF87B681B681D
:1028BC004021184600F001F90CE07B681A683B686F
:1028CC001B681946104600F0F8F803E00123FB736F
:1028DC0000E000BF7B68012283F83D207B6800226A
:1028EC0083F83C20FB7B18461037BD4680BD80B476
:1028FC0083B000AF786000BF0C37BD4680BC70471A
:10290C0080B483B000AF786000BF0C37BD4680BC8C
:10291C00704780B483B000AF786000BF0C37BD4601
:10292C0080BC704780B483B000AF786000BF0C37B8
:10293C00BD4680BC7047000080B485B000AF7860A5
:10294C0039607B681B68FB607B682B4A934207D01D
:10295C007B68B3F1804F03D07B68284A934208D13F
:10296C00FB6823F07003FB603B685B68FA681343F9
:10297C00FB607B68204A934207D07B68B3F1804FA1
:10298C0003D07B681D4A934208D1FB6823F4407343
:10299C00FB603B68DB68FA681343FB60FB6823F061
:1029AC0080023B685B691343FB607B68FA681A60C2
:1029BC003B689A687B68DA623B681A687B689A6243
:1029CC007B680D4A934203D13B681A697B681A6392
:1029DC007B6801225A617B681B6903F00103002BA1
:1029EC0005D07B681B6923F001027B681A6100BF6C
:1029FC001437BD4680BC7047002C014000040040D9
:102A0C0080B487B000AFF860B9607A60FB681B6A6D
:102A1C007B61FB681B6A23F00102FB681A62FB688E
:102A2C009B693B613B6923F0F0033B617B681B01B5
:102A3C003A6913433B617B6923F00A037B617A6932
:102A4C00BB6813437B61FB683A699A61FB687A69DE
:102A5C001A6200BF1C37BD4680BC704780B487B07B
:102A6C0000AFF860B9607A60FB681B6A7B61FB6839
:102A7C001B6A23F01002FB681A62FB689B693B61BE
:102A8C003B6923F470433B617B681B033A69134336
:102A9C003B617B6923F0A0037B61BB681B017A69F6
:102AAC0013437B61FB683A699A61FB687A691A6225
:102ABC0000BF1C37BD4680BC704780B485B000AFEA
:102ACC00786039607B689B68FB60FB6823F070035F
:102ADC00FB603A68FB68134343F00703FB607B68B9
:102AEC00FA689A6000BF1437BD4680BC704780B44A
:102AFC0087B000AFF860B9607A603B60FB689B6898
:102B0C007B617B6923F47F437B613B681A027B68A2
:102B1C001A43BB6813437A6913437B61FB687A6978
:102B2C009A6000BF1C37BD4680BC704780B485B02E
:102B3C0000AF786039607B6893F83C30012B01D191
:102B4C00022341E07B68012283F83C207B6802224F
:102B5C0083F83D207B681B685B68FB607B681B68A7
:102B6C009B68BB60FB6823F07003FB603B681B68D1
:102B7C00FA681343FB607B681B68FA685A607B68D1
:102B8C001B68144A934209D07B681B68B3F1804FD1
:102B9C0004D07B681B68104A93420CD1BB6823F0AD
:102BAC008003BB603B685B68BA681343BB607B689F
:102BBC001B68BA689A607B68012283F83D207B68A9
:102BCC00002283F83C20002318461437BD4680BCF5
:102BDC00704700BF002C01400004004080B483B05B
:102BEC0000AF786000BF0C37BD4680BC704780B426
:102BFC0083B000AF786000BF0C37BD4680BC704717
:102C0C0070B500260C4D0D4C641BA410A64209D1C6
:102C1C0000F022F800260A4D0A4C641BA410A642B0
:102C2C0005D170BD55F8043B98470136EEE755F8D1
:102C3C00043B98470136F2E7A02C0008A02C0008B2
:102C4C00A02C0008A42C000803460244934200D197
:102C5C00704703F8011BF9E7F8B500BFF8BC08BCD6
:102C6C009E467047F8B500BFF8BC08BC9E4670473E
:102C7C000000000000000000010203040607080920
:102C8C0002030405060708090A0B0C0D0E0F1010A1
:042C9C000102000031
:042CA00031010008F6
:042CA4000D01000816
:102CA80000080140000801400008014000080140F8
:102CB80002000400080010000A00000001000000E3
:0C2CC80000127A00100000000100000063
:040000050800161DBC
:00000001FF
