:020000040800F2
:100000000028002089180008291500082F1500086D
:10001000351500083B1500084115000800000000D8
:10002000000000000000000000000000471500086C
:1000300053150008000000005F1500086B1500084C
:10004000D1180008D1180008D1180008D1180008EC
:10005000D1180008D1180008D1180008D1180008DC
:10006000D1180008D1180008D1180008D1180008CC
:10007000D1180008D1180008D1180008D1180008BC
:10008000D1180008D1180008D1180008D1180008AC
:10009000D1180008D1180008D1180008D11800089C
:1000A000D1180008D1180008D1180008D11800088C
:1000B00079150008D118000800000000D1180008C8
:1000C000D11800080000000000000000D11800084E
:1000D00000000000D1180008D1180008000000003E
:1000E000D1180008D1180008D1180008000000003D
:1000F0000000000000000000000000000000000000
:0C01000000000000000000005FF808F1A3
:10010C0010B5054C237833B9044B13B10448AFF345
:10011C0000800123237010BD2C0000200000000083
:10012C00002F000808B5034B1BB103490348AFF37C
:10013C00008008BD0000000030000020002F0008E7
:10014C0080B582B000AF78607B68092B00F28081AB
:10015C0001A252F823F000BF8D010008D501000860
:10016C001D02000865020008AD020008F502000837
:10017C003D03000885030008CD03000815040008A2
:10018C0000220121B44801F0A0FE00220221B24855
:10019C0001F09BFE00220421AF4801F096FE0022E4
:1001AC000821AD4801F091FE00221021AA4801F06F
:1001BC008CFE00222021A84801F087FE012240215C
:1001CC00A54801F082FE43E101220121A24801F081
:1001DC007CFE00220221A04801F077FE00220421BF
:1001EC009D4801F072FE012208219B4801F06DFE32
:1001FC0001221021984801F068FE01222021964826
:10020C0001F063FE01224021934801F05EFE1FE1E4
:10021C0000220121904801F058FE002202218E4854
:10022C0001F053FE012204218B4801F04EFE002206
:10023C000821894801F049FE00221021864801F06E
:10024C0044FE01222021844801F03FFE002240217F
:10025C00814801F03AFEFBE0002201217E4801F0CA
:10026C0034FE002202217C4801F02FFE00220421E2
:10027C00794801F02AFE00220821774801F025FE7A
:10028C0001221021744801F020FE01222021724825
:10029C0001F01BFE002240216F4801F016FED7E052
:1002AC00012201216C4801F010FE002202216A4853
:1002BC0001F00BFE00220421674801F006FE01222A
:1002CC000821654801F001FE01221021624801F06D
:1002DC00FCFD00222021604801F0F7FD00224021A6
:1002EC005D4801F0F2FDB3E0002201215A4801F013
:1002FC00ECFD01220221584801F0E7FD0022042107
:10030C00554801F0E2FD00220821534801F0DDFDC3
:10031C0001221021504801F0D8FD002220214E4826
:10032C0001F0D3FD002240214B4801F0CEFD8FE0BF
:10033C0000220121484801F0C8FD01220221464853
:10034C0001F0C3FD00220421434801F0BEFD002250
:10035C000821414801F0B9FD002210213E4801F06E
:10036C00B4FD002220213C4801F0AFFD00224021C9
:10037C00394801F0AAFD6BE000220121364801F05A
:10038C00A4FD00220221344801F09FFD002204212B
:10039C00314801F09AFD012208212F4801F095FD0A
:1003AC00012210212C4801F090FD012220212A4825
:1003BC0001F08BFD01224021274801F086FD47E02A
:1003CC0000220121244801F080FD00220221224854
:1003DC0001F07BFD002204211F4801F076FD002274
:1003EC0008211D4801F071FD002210211A4801F06E
:1003FC006CFD00222021184801F067FD00224021ED
:10040C00154801F062FD23E000220121124801F0A1
:10041C005CFD00220221104801F057FD002204214E
:10042C000D4801F052FD002208210B4801F04DFD52
:10043C0001221021084801F048FD00222021064825
:10044C0001F043FD00224021034801F03EFD00BFB6
:10045C0000BF0837BD4680BD000C014080B582B09E
:10046C0000AF78607B68032B76D801A252F823F09A
:10047C008D040008C3040008F90400082F050008C7
:10048C0000222021374801F020FD0122402135486F
:10049C0001F01BFD01228021324801F016FD0122E2
:1004AC004FF480712F4801F010FD2F4B1B6818463C
:1004BC00FFF746FE51E0012220212A4801F005FDFC
:1004CC0000224021274801F000FD0122802125480F
:1004DC0001F0FBFC01224FF48071224801F0F5FC85
:1004EC00214B5B681846FFF72BFE36E001222021DA
:1004FC001C4801F0EAFC012240211A4801F0E5FCFD
:10050C0000228021174801F0E0FC01224FF4807199
:10051C00144801F0DAFC144B9B681846FFF710FEE8
:10052C001BE0012220210F4801F0CFFC01224021C9
:10053C000C4801F0CAFC012280210A4801F0C5FCDC
:10054C0000224FF48071074801F0BFFC064BDB68BA
:10055C001846FFF7F5FD00E000BF00BF0837BD46A9
:10056C0080BD00BF000801404C01002080B485B064
:10057C0000AF78607B68114A82FB03125211DB17C3
:10058C00D31AFB60FB680E4A82FB03129210DB1736
:10059C00D31A0C4A1360F968094B83FB01239A1098
:1005AC00CB17D21A13469B0013445B00CA1A054B97
:1005BC005A6000BF1437BD4680BC70471F85EB5195
:1005CC00676666664C01002080B485B000AF786029
:1005DC007B68114A82FB03129211DB17D31AFB6062
:1005EC00FB680E4A82FB03129210DB17D31A0C4ADB
:1005FC009360F968094B83FB01239A10CB17D21A2D
:10060C0013469B0013445B00CA1A054BDA6000BF0B
:10061C001437BD4680BC7047D34D62106766666662
:10062C004C01002080B500AF144B1B6A002B06D187
:10063C00134B1B6A002B02D1104B19221A62082093
:10064C0000F0D2FE0346012B11D10E4B1B68013377
:10065C000C4A13600B4B1B68032B02DD094B002269
:10066C001A60064B19221A62054B00221A62054BBE
:10067C001B681846FFF7F2FE00BF80BD500000203B
:10068C00780000204C00002080B483B000AF78606C
:10069C00094A7B6852F82330012B06D1064A7B6845
:1006AC00002142F82310012300E0002318460C37E8
:1006BC00BD4680BC704700BF0C01002080B483B0E5
:1006CC0000AF7860094A7B6852F82330012B06D1C1
:1006DC00064A7B68002142F82310012300E0002326
:1006EC0018460C37BD4680BC704700BF3C0100204B
:1006FC0080B582B000AF00237B6088E0484A7B68FD
:10070C0052F8232047497B6841F82320464A7B68EE
:10071C0052F8232042497B6841F82320434A7B68E6
:10072C0052F8232042497B6831F8133019461046A1
:10073C0001F0B4FB034619463B4A7B6842F8231090
:10074C00374A7B6852F8232037497B6851F82330AD
:10075C009A4259D1324A7B6852F8232031497B683E
:10076C0051F823309A424FD12E4A7B6852F82320FD
:10077C0030497B6851F823309A4225D0294A7B684E
:10078C0052F823202B497B6841F82320294A7B68A7
:10079C0052F82330002B05D1274A7B68C82142F838
:1007AC00231031E0244A7B6852F82330002B2BDDD8
:1007BC00214A7B6852F82330C72B25DC1F4A7B6803
:1007CC00012142F823101FE01A4A7B6852F82330AB
:1007DC00002B19D1184A7B6852F82330002B08DD06
:1007EC00154A7B6852F823305A1E13497B6841F82E
:1007FC002320114A7B6852F82330002B04D1104A75
:10080C007B68012142F823107B6801337B607B6895
:10081C00032B7FF773AF00BF00BF0837BD4680BD09
:10082C00EC0000202C010020DC0000200000002047
:10083C0010000020CC000020FC0000200C01002047
:10084C003C01002080B500AF974B1B68013B052B8A
:10085C0000F21C8101A252F823F000BF81080008AD
:10086C00CF080008210A0008B5090008990A0008F9
:10087C003D09000841F28831002000F097FD40F658
:10088C00B831012000F092FD884B41F288321A6099
:10089C00864B40F6B8325A60844B4FF4FA629A6039
:1008AC0000F01CFF824B1B6832331846FFF75EFECC
:1008BC000020FFF789FEFFF7B5FE7B4B02221A6082
:1008CC00EDE000F063FE7A4B1B6832331846FFF7FD
:1008DC004DFE0020FFF778FE012000F085FD034659
:1008EC00012B11D1714B9B681946012000F05EFD64
:1008FC006D4B06221A606E4B1B6832331846FFF79D
:10090C0035FE0020FFF760FE0120FFF7BDFE034619
:10091C00012B02D1644B15221A600220FFF7B4FEA2
:10092C000346012B40F0B4805F4B1F221A60AFE0EE
:10093C0000F056FE5E4B1B6832331846FFF716FE6E
:10094C000020FFF741FE012000F04EFD0346012B75
:10095C0017D1564B1B681946012000F027FD534B4D
:10096C005B681946002000F021FD4F4B04221A60F1
:10097C004F4B1B6832331846FFF7F8FD0020FFF78A
:10098C0023FE0120FFF780FE0346012B02D1464BCC
:10099C0015221A600220FFF777FE0346012B79D14E
:1009AC00414B1F221A6075E000F044FE404B1B685F
:1009BC0032331846FFF7DAFD0020FFF705FE002062
:1009CC0000F012FD0346012B11D1374B03221A60A4
:1009DC00364B9B681946002000F0E8FC344B1B6832
:1009EC0032331846FFF7C2FD0020FFF7EDFD012062
:1009FC00FFF74AFE0346012B02D12B4B15221A603E
:100A0C000220FFF741FE0346012B45D1264B1F2246
:100A1C001A6041E000F038FE254B1B683233184653
:100A2C00FFF7A4FD0020FFF7CFFD002000F0DCFC59
:100A3C000346012B17D11C4B02221A601B4B1B685F
:100A4C001946002000F0B2FC184B5B6819460120D7
:100A5C0000F0ACFC164B1B6832331846FFF786FDD2
:100A6C000020FFF7B1FD0120FFF70EFE0346012B1E
:100A7C0002D10D4B15221A600220FFF705FE03462A
:100A8C00012B0BD1084B1F221A6007E000BF06E0B8
:100A9C0000BF04E000BF02E000BF00E000BFFFF7B2
:100AAC00C1FD00BF80BD00BF1C000020A0000020C5
:100ABC005000002080B500AFA54B1B681F3B0A2BD4
:100ACC0000F23D8101A252F823F000BF050B000893
:100ADC001B0B0008A50B00082F0C00084B0D000881
:100AEC004B0D00084B0D00084B0D00084B0D00087A
:100AFC004B0D0008C70C0008964B1B681846FFF7F7
:100B0C0063FD0020FFF732FD914B20221A6000F0AC
:100B1C000FFE904B1B681846FFF756FD0020FFF7A1
:100B2C0025FD0020FFF7B0FD0346012B0DD1894BAD
:100B3C001B6803F57A73874A1360864B1B68864AD9
:100B4C00934202DD834B854A1A600120FFF79CFD1E
:100B5C000346012B0CD17F4B1B68A3F57A737D4A9E
:100B6C0013607C4B1B68002B02DC7A4B00221A6052
:100B7C000220FFF789FD0346012B02D1744B212281
:100B8C001A600320FFF780FD0346012B40F0D9804B
:100B9C006F4B01221A60D4E000F0F4FD6D4B9B68A2
:100BAC001846FFF711FD0020FFF7E0FC0020FFF7CF
:100BBC006BFD0346012B0DD1664B9B6803F57A73D5
:100BCC00644A9360634B9B68634A934202DD614BBA
:100BDC00624A9A600120FFF757FD0346012B0CD1A6
:100BEC005C4B9B68A3F57A735A4A9360594B9B688C
:100BFC00002B02DC574B00229A600220FFF744FDC9
:100C0C000346012B02D1524B22221A600320FFF71C
:100C1C003BFD0346012B40F096804D4B01221A60A0
:100C2C0091E000F0D9FD4B4B5B681846FFF7CCFC0C
:100C3C000020FFF79BFC0020FFF726FD0346012B4D
:100C4C000DD1444B5B6803F57A73424A5360414BB8
:100C5C005B68414A934202DD3E4B404A5A60012098
:100C6C00FFF712FD0346012B0CD13A4B5B68A3F541
:100C7C007A73384A5360374B5B68002B02DC354B78
:100C8C0000225A600220FFF7FFFC0346012B0AD119
:100C9C004FF4FA71042000F089FB2D4B29221A60C5
:100CAC002F4B00221A700320FFF7EEFC0346012B9A
:100CBC004BD1274B01221A6047E0264B5A68254B33
:100CCC009B681A44234B1B689A4216D0042000F0F0
:100CDC008BFB0346012B32D1214B1B78032B08D8FD
:100CEC0000F0A4FD1E4B1B780133DAB21C4B1A70BA
:100CFC0025E0174B01221A6021E0042000F074FB60
:100D0C000346012B1BD1164B1B78012B08D800F086
:100D1C008DFD134B1B780133DAB2114B1A700EE0B8
:100D2C000C4B1B681946002000F040FB094B5B681C
:100D3C001946012000F03AFB054B02221A6000BF55
:100D4C0004E000BF02E000BF00E000BF00BF80BDB8
:100D5C001C000020A0000020B7820100B882010016
:100D6C004800002080B500AF714B1B68153B062B6B
:100D7C0000F2D18001A252F823F000BFA50D0008AB
:100D8C00B70D0008230F0008F10E0008550E0008DF
:100D9C00090E0008A50E00080020FFF7E7FB002055
:100DAC00FFF712FC624B16221A6000F0EFFB0020DA
:100DBC00FFF76AFC0346012B07D15D4B1A221A6020
:100DCC004FF4FA61022000F0F1FA0020FFF776FCF4
:100DDC000346012B07D1564B18221A604FF47A7137
:100DEC00032000F0E3FA0320FFF74EFC0346012B2F
:100DFC0040F093804E4B01221A608EE000F0C2FC52
:100E0C00022000F0F1FA0346012B05D1484B1922C0
:100E1C001A60484B00229A600020FFF74FFC0346F3
:100E2C00012B07D1424B18221A604FF47A71032020
:100E3C0000F0BCFA0320FFF727FC0346012B6ED110
:100E4C003B4B01221A606AE000F0F4FB0020FFF734
:100E5C001BFC0346012B07D14FF4FA61022000F072
:100E6C00A5FA334B1B221A600020FFF727FC034620
:100E7C00012B07D12E4B18221A604FF47A710320E4
:100E8C0000F094FA0320FFF7FFFB0346012B48D137
:100E9C00274B01221A6044E000F074FC022000F0A1
:100EAC00A3FA0346012B05D1214B16221A60214BC4
:100EBC0000229A600020FFF701FC0346012B07D1AA
:100ECC001B4B18221A604FF47A71032000F06EFA53
:100EDC000320FFF7D9FB0346012B24D1144B01222D
:100EEC001A6020E000F0FAFB032000F07DFA0346C4
:100EFC00012B06D100F046FC4FF47A71032000F070
:100F0C0055FA0320FFF7C0FB0346012B0DD1084B0C
:100F1C0001221A6009E000BF08E000BF06E000BF34
:100F2C0004E000BF02E000BF00E000BF00BF80BDD6
:100F3C001C0000207800002080B500AF00F0C4FC3D
:100F4C0000F030F800F0B6F800F068F80F4801F047
:100F5C0019FC012200210E4800F01CF9012200218D
:100F6C000C4800F017F90A2200210B4800F012F986
:100F7C000A220021094800F00DF90A220021084834
:100F8C0000F008F900F0D0F9FCE700BF5C0100208C
:100F9C001D140008FD06000851080008C10A0008CD
:100FAC00710D000880B590B000AF07F1180328222E
:100FBC000021184601F096FF3B1D00221A605A6072
:100FCC009A60DA601A610223BB610123BB621023B1
:100FDC00FB6200237B6307F11803184600F0A6FFA1
:100FEC000346002B01D000F0CFF80F237B600023C9
:100FFC00BB600023FB6000233B6100237B613B1D36
:10100C000021184601F012FA0346002B01D000F023
:10101C00BBF800BF4037BD4680BD000080B586B030
:10102C0000AF07F1080300221A605A609A60DA6078
:10103C003B4600221A605A601D4B4FF080421A60EA
:10104C001B4B41F63F725A60194B00229A60184BA9
:10105C000922DA60164B00221A61154B00229A61A4
:10106C00134801F03FFB0346002B01D000F08CF835
:10107C004FF48053BB6007F1080319460C4801F08C
:10108C00BDFC0346002B01D000F07EF800233B6032
:10109C0000237B603B461946054801F095FE03464C
:1010AC00002B01D000F070F800BF1837BD4680BD92
:1010BC005C01002080B586B000AF07F10803002268
:1010CC001A605A609A60DA60274B9B69264A43F093
:1010DC0004039361244B9B6903F004037B607B68DE
:1010EC00214B9B69204A43F0080393611E4B9B697B
:1010FC0003F008033B603B6800224FF6E0511B48AD
:10110C0000F0E3FE00227F21194800F0DEFE1E23D2
:10111C00BB600023FB6001233B6107F10803194608
:10112C00124800F041FD4FF6E053BB600123FB6019
:10113C0000233B6102237B6107F1080319460B482E
:10114C0000F032FD7F23BB600123FB6000233B6179
:10115C0002237B6107F108031946054800F024FDC2
:10116C0000BF1837BD4680BD00100240000801408A
:10117C00000C014080B582B000AF786000F060F8E0
:10118C0000BF0837BD4680BD80B400AF72B600BF4B
:10119C00FEE7000080B485B000AFF860B9607A60FB
:1011AC00254B1B78272B42D8234B1B781946234AF7
:1011BC000B469B000B449B001344FA681A601E4BB1
:1011CC001B7819461D4A0B469B000B449B0013448D
:1011DC000433BA681A60184B1B781946174A0B4629
:1011EC009B000B449B00134408337A681A60124B23
:1011FC001B781946114A0B469B000B449B00134469
:10120C000C3300221A700C4B1A780B4B1B781946B6
:10121C0010460A4A0B469B000B449B0013441033A8
:10122C001860054B1B780133DAB2034B1A7000BF00
:10123C001437BD4680BC7047C8000020A4010020B4
:10124C0080B483B000AF00237B605DE034497A68E2
:10125C0013469B0013449B000B441B68002B50D07F
:10126C002F497A6813469B0013449B000B440433AC
:10127C001B68002B13D02A497A6813469B00134431
:10128C009B000B4404331B68591E25487A6813468F
:10129C009B0013449B0003440433196031E0204944
:1012AC007A6813469B0013449B000B440C331B7849
:1012BC000133D8B21A497A6813469B0013449B0039
:1012CC000B440C3302461A7015497A6813469B007E
:1012DC0013449B000B4408331B68002B11D010499E
:1012EC007A6813469B0013449B000B44083319681F
:1012FC000B487A6813469B0013449B000344043349
:10130C0019607B6801337B60064B1B781A467B683F
:10131C0093429BDB00BF00BF0C37BD4680BC7047BF
:10132C00A4010020C800002080B582B000AF0023CB
:10133C007B602BE01B497A6813469B0013449B008F
:10134C000B440C331B78002B1DD016497A681346BE
:10135C009B0013449B000B441B68984711497A6807
:10136C0013469B0013449B000B440C331B78013B2E
:10137C00D8B20C497A6813469B0013449B000B446B
:10138C000C3302461A707B6801337B60064B1B786A
:10139C001A467B689342CDDB00BF00BF0837BD46C1
:1013AC0080BD00BFA4010020C800002080B483B021
:1013BC0000AF78603960094B1B683A6892FBF3F216
:1013CC0007497B6841F82320064A7B68002142F8D4
:1013DC00231000BF0C37BD4680BC7047180000209E
:1013EC00500000207800002080B483B000AF7860FB
:1013FC00064A7B6852F82330012B01D1012300E00F
:10140C00002318460C37BD4680BC7047780000207E
:10141C0080B483B000AF00237B601CE0124A7B6871
:10142C0052F82330002B13DD0F4A7B6852F823301F
:10143C005A1E0D497B6841F823200B4A7B6852F8F1
:10144C002330002B04DC094A7B68012142F823106D
:10145C007B6801337B607B68092BDFDD00BF00BF3D
:10146C000C37BD4680BC704750000020780000202F
:10147C0080B485B000AF154B9B69144A43F001034F
:10148C009361124B9B6903F00103BB60BB680F4B6C
:10149C00DB690E4A43F08053D3610C4BDB6903F0DC
:1014AC0080537B607B680A4B5B68FB60FB6823F0B6
:1014BC00E063FB60FB6843F08063FB60044AFB68FD
:1014CC00536000BF1437BD4680BC7047001002400B
:1014DC000000014080B584B000AF78607B681B6869
:1014EC00B3F1804F13D10C4BDB690B4A43F0010372
:1014FC00D361094BDB6903F00103FB60FB6800223D
:10150C0000211C2000F019FB1C2000F032FB00BF56
:10151C001037BD4680BD00BF0010024080B400AF44
:10152C00FEE780B400AFFEE780B400AFFEE780B406
:10153C0000AFFEE780B400AFFEE780B400AF00BFA1
:10154C00BD4680BC704780B400AF00BFBD4680BCB8
:10155C00704780B400AF00BFBD4680BC704780B5FB
:10156C0000AF00F0F7F900BF80BD000080B500AF00
:10157C00024801F053F900BF80BD00BF5C010020A0
:10158C0080B400AF00BFBD4680BC704780B500AFD3
:10159C0001224FF48061114800F097FC00224FF4B7
:1015AC0080510E4800F091FC00224FF400610B4872
:1015BC0000F08BFC00224FF40051084800F085FC31
:1015CC0001224FF40041054800F07FFC00224FF44B
:1015DC008041024800F079FC00BF80BD000801404A
:1015EC0080B500AF01224FF48061114800F06DFC12
:1015FC0000224FF480510E4800F067FC00224FF49B
:10160C0000610B4800F061FC00224FF400510848C7
:10161C0000F05BFC00224FF40041054800F055FC43
:10162C0001224FF48041024800F04FFC00BF80BD06
:10163C000008014080B500AF00224FF480611148D2
:10164C0000F043FC01224FF480510E4800F03DFCA9
:10165C0000224FF400610B4800F037FC01224FF4DC
:10166C000051084800F031FC00224FF400410548BD
:10167C0000F02BFC00224FF48041024800F025FCC6
:10168C0000BF80BD0008014080B500AF00224FF4C0
:10169C008061114800F019FC00224FF480510E4873
:1016AC0000F013FC01224FF400610B4800F00DFC1C
:1016BC0001224FF40051084800F007FC00224FF4BF
:1016CC000041054800F001FC00224FF48041024823
:1016DC0000F0FBFB00BF80BD0008014080B500AFEF
:1016EC0000224FF48061114800F0EFFB00224FF410
:1016FC0080510E4800F0E9FB00224FF400610B48CA
:10170C0000F0E3FB00224FF40051084800F0DDFB31
:10171C0000224FF40041054800F0D7FB00224FF4A3
:10172C008041024800F0D1FB00BF80BD00080140A1
:10173C0080B500AF01224FF48061114800F0C5FB69
:10174C0000224FF480510E4800F0BFFB00224FF4F2
:10175C0000610B4800F0B9FB01224FF4005108481E
:10176C0000F0B3FB00224FF40041054800F0ADFB44
:10177C0000224FF48041024800F0A7FB00BF80BD5F
:10178C000008014080B500AF00224FF48061114881
:10179C0000F09BFB00224FF480510E4800F095FBAB
:1017AC0001224FF400610B4800F08FFB00224FF434
:1017BC000051084800F089FB00224FF40041054815
:1017CC0000F083FB01224FF48041024800F07DFBC6
:1017DC0000BF80BD0008014080B500AF00224FF46F
:1017EC008061114800F071FB01224FF480510E48CA
:1017FC0000F06BFB00224FF400610B4800F065FB1E
:10180C0000224FF40051084800F05FFB01224FF416
:10181C000041054800F059FB00224FF4804102487A
:10182C0000F053FB00BF80BD0008014080B500AF45
:10183C0000224FF48061104800F047FB00224FF467
:10184C0080510D4800F041FB4FF400610A4800F054
:10185C0054FB00224FF40051074800F036FB0022E5
:10186C004FF40041044800F030FB4FF48041024833
:10187C0000F043FB00BF80BD00080140FFF780FE75
:10188C000B480C490C4A002302E0D458C4500433D2
:10189C00C4188C42F9D3094A094C002301E01360A7
:1018AC000432A242FBD301F0F9FAFFF745FB704773
:1018BC00000000202C000020442F00082C000020E9
:1018CC00C8040020FEE7000080B500AF084B1B6881
:1018DC00074A43F010031360032000F023F90F2094
:1018EC0000F008F8FFF7C4FD0023184680BD00BFC8
:1018FC000020024080B582B000AF7860124B1A68AD
:10190C00124B1B7819464FF47A73B3FBF1F3B2FB0D
:10191C00F3F3184600F03BF90346002B01D00123EA
:10192C000EE07B680F2B0AD8002279684FF0FF304D
:10193C0000F003F9064A7B681360002300E00123E2
:10194C0018460837BD4680BD200000202800002026
:10195C002400002080B400AF054B1B781A46054BC1
:10196C001B681344034A136000BFBD4680BC70471C
:10197C0028000020C404002080B400AF024B1B6878
:10198C001846BD4680BC7047C404002080B485B0A6
:10199C0000AF78607B6803F00703FB600C4BDB68DF
:1019AC00BB60BA684FF6FF031340BB60FB681A02BA
:1019BC00BB68134343F0BF6343F40033BB60044A7A
:1019CC00BB68D36000BF1437BD4680BC704700BFF6
:1019DC0000ED00E080B400AF044BDB681B0A03F0A1
:1019EC0007031846BD4680BC704700BF00ED00E001
:1019FC0080B483B000AF0346FB7197F90730002B1E
:101A0C000BDBFB7903F01F02064997F907305B09E2
:101A1C00012000FA02F241F8232000BF0C37BD462A
:101A2C0080BC704700E100E080B483B000AF034697
:101A3C003960FB7197F90730002B0ADB3B68DAB28F
:101A4C000C4997F907301201D2B20B4483F80023EA
:101A5C000AE03B68DAB20849FB7903F00F03043B58
:101A6C001201D2B20B441A7600BF0C37BD4680BCB3
:101A7C00704700BF00E100E000ED00E080B489B0E9
:101A8C0000AFF860B9607A60FB6803F00703FB6194
:101A9C00FB69C3F10703042B28BF0423BB61FB695B
:101AAC000433062B02D9FB69033B00E000237B6166
:101ABC004FF0FF32BB6902FA03F3DA43BB681A40FA
:101ACC007B699A404FF0FF317B6901FA03F3D943EC
:101ADC007B680B40134318462437BD4680BC7047C7
:101AEC0080B582B000AF78607B68013BB3F1807F3A
:101AFC0001D301230FE00A4A7B68013B53600F219D
:101B0C004FF0FF30FFF790FF054B00229A60044B1B
:101B1C0007221A60002318460837BD4680BD00BF57
:101B2C0010E000E080B582B000AF78607868FFF715
:101B3C002DFF00BF0837BD4680BD80B586B000AF15
:101B4C000346B9607A60FB7300237B61FFF742FFA9
:101B5C0078617A68B9687869FFF790FF024697F95F
:101B6C000F3011461846FFF75FFF00BF1837BD4610
:101B7C0080BD80B582B000AF0346FB7197F907308A
:101B8C001846FFF735FF00BF0837BD4680BD80B54E
:101B9C0082B000AF78607868FFF7A2FF0346184662
:101BAC000837BD4680BD000080B48BB000AF7860B4
:101BBC00396000237B6200233B6248E101227B6A8F
:101BCC0002FA03F3FB613B681B68FA691340BB61C3
:101BDC00BA69FB699A4240F037813B685B68A34A5B
:101BEC0093425ED0A14A934275D8A14A934258D0F1
:101BFC009F4A93426FD89F4A934252D09D4A934238
:101C0C0069D89D4A93424CD09B4A934263D89B4AD5
:101C1C00934246D0994A93425DD8122B2AD8122B64
:101C2C0059D801A252F823F0AF1C0008891C0008F7
:101C3C009B1C0008DD1C0008E31C0008E31C0008CA
:101C4C00E31C0008E31C0008E31C0008E31C00086C
:101C5C00E31C0008E31C0008E31C0008E31C00085C
:101C6C00E31C0008E31C0008E31C0008911C00089E
:101C7C00A51C0008824A934213D02CE03B68DB6819
:101C8C003B6229E03B68DB6804333B6224E03B6841
:101C9C00DB6808333B621FE03B68DB680C333B625C
:101CAC001AE03B689B68002B02D104233B6213E0D3
:101CBC003B689B68012B05D108233B627B68FA6962
:101CCC001A6109E008233B627B68FA695A6103E0F8
:101CDC0000233B6200E000BFBB69FF2B01D87B688F
:101CEC0001E07B6804337B61BB69FF2B02D87B6A04
:101CFC009B0002E07B6A083B9B003B617B691A6896
:101D0C000F213B6901FA03F3DB431A40396A3B6943
:101D1C0001FA03F31A437B691A603B685B6803F0B2
:101D2C008053002B00F09080564B9B69554A43F032
:101D3C0001039361534B9B6903F00103BB60BB68C8
:101D4C00514A7B6A9B08023352F82330FB607B6A52
:101D5C0003F003039B000F2202FA03F3DB43FA6840
:101D6C001340FB607B68494A93420DD07B68484A1C
:101D7C00934207D07B68474A934201D1022304E087
:101D8C00032302E0012300E000237A6A02F003023D
:101D9C0092009340FA681343FB603B497B6A9B08B3
:101DAC000233FA6841F823203B685B6803F4801324
:101DBC00002B06D0384B9A683749BB6913438B60AC
:101DCC0006E0354B9A68BB69DB43334913408B60A3
:101DDC003B685B6803F40013002B06D02E4BDA68CB
:101DEC002D49BB691343CB6006E02B4BDA68BB690A
:101DFC00DB4329491340CB603B685B6803F4003339
:101E0C00002B06D0244B5A682349BB6913434B6003
:101E1C0006E0214B5A68BB69DB431F4913404B60FA
:101E2C003B685B6803F48033002B06D01A4B1A68AE
:101E3C001949BB6913430B6006E0174B1A68BB6961
:101E4C00DB43154913400B607B6A01337B623B68B3
:101E5C001A687B6A22FA03F3002B7FF4AFAE00BF43
:101E6C0000BF2C37BD4680BC704700BF000032104D
:101E7C000000311000002210000021100000121090
:101E8C000000111000100240000001400008014049
:101E9C00000C0140001001400004014080B485B0EA
:101EAC0000AF78600B467B807B689A687B88134018
:101EBC00002B02D00123FB7301E00023FB73FB7B9F
:101ECC0018461437BD4680BC704780B483B000AF51
:101EDC0078600B467B8013467B707B78002B03D09D
:101EEC007A887B681A6103E07B881A047B681A6124
:101EFC0000BF0C37BD4680BC704780B485B000AFC6
:101F0C0078600B467B807B68DB68FB607A88FB68BB
:101F1C0013401A04FB68D9437B880B401A437B6837
:101F2C001A6100BF1437BD4680BC704780B586B0BF
:101F3C0000AF78607B68002B01D101236CE27B68D9
:101F4C001B6803F00103002B00F08780924B5B6849
:101F5C0003F00C03042B0CD08F4B5B6803F00C03C9
:101F6C00082B12D18C4B5B6803F48033B3F5803FA4
:101F7C000BD1894B1B6803F40033002B6CD07B68AE
:101F8C005B68002B68D1012346E27B685B68B3F584
:101F9C00803F06D1804B1B687F4A43F4803313602B
:101FAC002EE07B685B68002B0CD17B4B1B687A4A5C
:101FBC0023F480331360784B1B68774A23F4802317
:101FCC0013601DE07B685B68B3F5A02F0CD1724BDE
:101FDC001B68714A43F4802313606F4B1B686E4A75
:101FEC0043F4803313600BE06B4B1B686A4A23F499
:101FFC0080331360684B1B68674A23F4802313609B
:10200C007B685B68002B13D0FFF7B6FC386108E0E7
:10201C00FFF7B2FC02463B69D31A642B01D90323A8
:10202C00FAE15D4B1B6803F40033002BF0D014E095
:10203C00FFF7A2FC386108E0FFF79EFC02463B6903
:10204C00D31A642B01D90323E6E1534B1B6803F429
:10205C000033002BF0D100E000BF7B681B6803F05D
:10206C000203002B63D04C4B5B6803F00C03002B7A
:10207C000BD0494B5B6803F00C03082B1CD1464B6F
:10208C005B6803F48033002B16D1434B1B6803F0C1
:10209C000203002B05D07B681B69012B01D00123A7
:1020AC00BAE13D4B1B6823F0F8027B685B69DB00EF
:1020BC00394913430B603AE07B681B69002B20D035
:1020CC00364B01221A60FFF757FC386108E0FFF726
:1020DC0053FC02463B69D31A022B01D903239BE123
:1020EC002D4B1B6803F00203002BF0D02A4B1B680E
:1020FC0023F0F8027B685B69DB00274913430B6014
:10210C0015E0264B00221A60FFF736FC386108E018
:10211C00FFF732FC02463B69D31A022B01D9032389
:10212C007AE11D4B1B6803F00203002BF0D17B6896
:10213C001B6803F00803002B3AD07B689B69002BCB
:10214C0019D0174B01221A60FFF716FC386108E012
:10215C00FFF712FC02463B69D31A022B01D9032369
:10216C005AE10D4B5B6A03F00203002BF0D0012007
:10217C0000F09AFA1CE00A4B00221A60FFF7FCFBF5
:10218C0038610FE0FFF7F8FB02463B69D31A022BCC
:10219C0008D9032340E100BF001002400000424276
:1021AC00800442429E4B5B6A03F00203002BE9D190
:1021BC007B681B6803F00403002B00F0A68000234F
:1021CC00FB75974BDB6903F08053002B0DD1944BBF
:1021DC00DB69934A43F08053D361914BDB6903F085
:1021EC008053BB60BB680123FB758E4B1B6803F4EB
:1021FC008073002B18D18B4B1B688A4A43F4807375
:10220C001360FFF7B9FB386108E0FFF7B5FB024636
:10221C003B69D31A642B01D90323FDE0814B1B6866
:10222C0003F48073002BF0D07B68DB68012B06D1A4
:10223C007B4B1B6A7A4A43F0010313622DE07B68E7
:10224C00DB68002B0CD1764B1B6A754A23F001031B
:10225C001362734B1B6A724A23F0040313621CE073
:10226C007B68DB68052B0CD16D4B1B6A6C4A43F009
:10227C00040313626A4B1B6A694A43F0010313623D
:10228C000BE0674B1B6A664A23F001031362644B35
:10229C001B6A634A23F0040313627B68DB68002B20
:1022AC0015D0FFF769FB38610AE0FFF765FB0246C2
:1022BC003B69D31A41F28832934201D90323ABE034
:1022CC00574B1B6A03F00203002BEED014E0FFF710
:1022DC0053FB38610AE0FFF74FFB02463B69D31A08
:1022EC0041F28832934201D9032395E04C4B1B6A8F
:1022FC0003F00203002BEED1FB7D012B05D1484BE3
:10230C00DB69474A23F08053D3617B68DB69002B80
:10231C0000F08180424B5B6803F00C03082B61D00A
:10232C007B68DB69022B46D13F4B00221A60FFF71A
:10233C0023FB386108E0FFF71FFB02463B69D31A09
:10234C00022B01D9032367E0354B1B6803F00073A4
:10235C00002BF0D17B681B6AB3F5803F08D1304B62
:10236C005B6823F400327B689B682D4913434B60F8
:10237C002B4B5B6823F474127B68196A7B685B6A6D
:10238C000B43274913434B60274B01221A60FFF77D
:10239C00F3FA386108E0FFF7EFFA02463B69D31A0B
:1023AC00022B01D9032337E01D4B1B6803F000738C
:1023BC00002BF0D02FE01C4B00221A60FFF7DCFA48
:1023CC00386108E0FFF7D8FA02463B69D31A022BB2
:1023DC0001D9032320E0124B1B6803F00073002B80
:1023EC00F0D118E07B68DB69012B01D1012313E0EC
:1023FC000B4B5B68FB60FB6803F480327B681B6AE9
:10240C009A4206D1FB6803F470127B685B6A9A42AD
:10241C0001D0012300E0002318461837BD4680BDCB
:10242C0000100240007000406000424280B584B051
:10243C0000AF786039607B68002B01D10123D0E0BC
:10244C006A4B1B6803F007033A689A4210D9674B32
:10245C001B6823F0070265493B6813430B60634B11
:10246C001B6803F007033A689A4201D00123B8E0D5
:10247C007B681B6803F00203002B20D07B681B6871
:10248C0003F00403002B05D0594B5B68584A43F406
:10249C00E06353607B681B6803F00803002B05D0D6
:1024AC00534B5B68524A43F460535360504B5B6828
:1024BC0023F0F0027B689B684D4913434B607B68AB
:1024CC001B6803F00103002B40D07B685B68012B79
:1024DC0007D1474B1B6803F40033002B15D10123A4
:1024EC007FE07B685B68022B07D1414B1B6803F0D4
:1024FC000073002B09D1012373E03D4B1B6803F0E3
:10250C000203002B01D101236BE0394B5B6823F0F4
:10251C0003027B685B68364913434B60FFF72CFA68
:10252C00F8600AE0FFF728FA0246FB68D31A41F27A
:10253C008832934201D9032353E02D4B5B6803F09F
:10254C000C027B685B689B009A42EBD1274B1B68A3
:10255C0003F007033A689A4210D2244B1B6823F00D
:10256C00070222493B6813430B60204B1B6803F0A6
:10257C0007033A689A4201D0012332E07B681B685A
:10258C0003F00403002B08D0194B5B6823F4E062C2
:10259C007B68DB68164913434B607B681B6803F050
:1025AC000803002B09D0124B5B6823F460527B6844
:1025BC001B69DB000E4913434B6000F021F8024607
:1025CC000B4B5B681B0903F00F030A49CB5C22FA27
:1025DC0003F3094A1360094B1B681846FFF78AF985
:1025EC00002318461037BD4680BD00BF00200240B6
:1025FC0000100240182F00082000002024000020AA
:10260C0080B487B000AF0023FB600023BB600023C5
:10261C007B6100237B6000233B611E4B5B68FB608E
:10262C00FB6803F00C03042B02D0082B03D027E02B
:10263C00194B3B6127E0FB689B0C03F00F03174A17
:10264C00D35C7B60FB6803F48033002B10D0114B00
:10265C005B685B0C03F00103114AD35CBB607B68C5
:10266C000D4A02FB03F2BB68B2FBF3F37B6104E09F
:10267C007B680C4A02FB03F37B617B693B6102E0E4
:10268C00054B3B6100BF3B6918461C37BD4680BCFF
:10269C00704700BF0010024000127A00282F00087B
:1026AC00382F000800093D0080B485B000AF786079
:1026BC000A4B1B680A4AA2FB03235B0A7A6802FBDB
:1026CC0003F3FB6000BFFB685A1EFA60002BF9D1C4
:1026DC0000BF00BF1437BD4680BC704720000020EF
:1026EC00D34D621080B582B000AF78607B68002B50
:1026FC0001D1012341E07B6893F83D30DBB2002B24
:10270C0006D17B68002283F83C207868FEF7E2FE55
:10271C007B68022283F83D207B681A687B6804334F
:10272C001946104600F056FA7B68012283F84620C1
:10273C007B68012283F83E207B68012283F83F20CE
:10274C007B68012283F840207B68012283F84120BA
:10275C007B68012283F842207B68012283F84320A6
:10276C007B68012283F844207B68012283F8452092
:10277C007B68012283F83D20002318460837BD46AC
:10278C0080BD000080B485B000AF78607B6893F8A2
:10279C003D30DBB2012B01D0012335E07B680222F6
:1027AC0083F83D207B681B68DA687B681B6842F005
:1027BC000102DA607B681B68164A934209D07B6879
:1027CC001B68B3F1804F04D07B681B68124A93429C
:1027DC0011D17B681B689B6803F00703FB60FB68E7
:1027EC00062B10D07B681B681A687B681B6842F04C
:1027FC0001021A6007E07B681B681A687B681B681B
:10280C0042F001021A60002318461437BD4680BC02
:10281C00704700BF002C01400004004080B584B01C
:10282C0000AF78607B681B68DB68FB607B681B68AB
:10283C001B69BB60BB6803F00203002B20D0FB6854
:10284C0003F00203002B1BD07B681B686FF00202A5
:10285C001A617B6801221A777B681B689B6903F0FD
:10286C000303002B03D0786800F098F905E0786832
:10287C0000F08BF9786800F09AF97B6800221A77DF
:10288C00BB6803F00403002B20D0FB6803F00403A7
:10289C00002B1BD07B681B686FF004021A617B68ED
:1028AC0002221A777B681B689B6903F44073002B28
:1028BC0003D0786800F072F905E0786800F065F9EB
:1028CC00786800F074F97B6800221A77BB6803F013
:1028DC000803002B20D0FB6803F00803002B1BD04F
:1028EC007B681B686FF008021A617B6804221A77F8
:1028FC007B681B68DB6903F00303002B03D078684B
:10290C0000F04CF905E0786800F03FF9786800F0C9
:10291C004EF97B6800221A77BB6803F01003002B7A
:10292C0020D0FB6803F01003002B1BD07B681B68C6
:10293C006FF010021A617B6808221A777B681B689B
:10294C00DB6903F44073002B03D0786800F026F9A0
:10295C0005E0786800F019F9786800F028F97B68D0
:10296C0000221A77BB6803F00103002B0CD0FB6824
:10297C0003F00103002B07D07B681B686FF001028A
:10298C001A617868FEF7F6FBBB6803F08003002B36
:10299C000CD0FB6803F08003002B07D07B681B680E
:1029AC006FF080021A61786800F06FFABB6803F070
:1029BC004003002B0CD0FB6803F04003002B07D026
:1029CC007B681B686FF040021A61786800F0F8F8B9
:1029DC00BB6803F02003002B0CD0FB6803F0200332
:1029EC00002B07D07B681B686FF020021A61786897
:1029FC0000F042FA00BF1037BD4680BD80B584B0F0
:102A0C0000AF786039600023FB737B6893F83C302F
:102A1C00012B01D10223B4E07B68012283F83C2016
:102A2C007B68022283F83D207B681B689B68BB6037
:102A3C00BB6823F07703BB60BB6823F47F43BB60A8
:102A4C007B681B68BA689A603B681B68B3F5005FCB
:102A5C003ED0B3F5005F00F28780B3F5805F00F0E5
:102A6C008680B3F5805F7FD8702B1AD0702B7BD803
:102A7C00602B50D0602B77D8502B3CD0502B73D878
:102A8C00402B58D0402B6FD8302B64D0302B6BD8C8
:102A9C00202B60D0202B67D8002B5CD0102B5AD069
:102AAC0062E07B6818683B6899683B685A683B68C9
:102ABC00DB6800F06AF97B681B689B68BB60BB68CD
:102ACC0043F07703BB607B681B68BA689A604FE081
:102ADC007B6818683B6899683B685A683B68DB6898
:102AEC0000F053F97B681B689A687B681B6842F49A
:102AFC0080429A603CE07B6818683B6859683B6888
:102B0C00DB681A4600F0CAF87B681B68502118462F
:102B1C0000F021F92CE07B6818683B6859683B6829
:102B2C00DB681A4600F0E8F87B681B6860211846E1
:102B3C0000F011F91CE07B6818683B6859683B6829
:102B4C00DB681A4600F0AAF87B681B68402118461F
:102B5C0000F001F90CE07B681A683B681B681946A9
:102B6C00104600F0F8F803E00123FB7300E000BF0F
:102B7C007B68012283F83D207B68002283F83C208F
:102B8C00FB7B18461037BD4680BD80B483B000AFC8
:102B9C00786000BF0C37BD4680BC704780B483B0F2
:102BAC0000AF786000BF0C37BD4680BC704780B466
:102BBC0083B000AF786000BF0C37BD4680BC704757
:102BCC0080B483B000AF786000BF0C37BD4680BCCA
:102BDC007047000080B485B000AF786039607B68C6
:102BEC001B68FB607B682B4A934207D07B68B3F170
:102BFC00804F03D07B68284A934208D1FB6823F0AE
:102C0C007003FB603B685B68FA681343FB607B688E
:102C1C00204A934207D07B68B3F1804F03D07B6886
:102C2C001D4A934208D1FB6823F44073FB603B6858
:102C3C00DB68FA681343FB60FB6823F080023B6897
:102C4C005B691343FB607B68FA681A603B689A689F
:102C5C007B68DA623B681A687B689A627B680D4A0B
:102C6C00934203D13B681A697B681A637B68012223
:102C7C005A617B681B6903F00103002B05D07B684C
:102C8C001B6923F001027B681A6100BF1437BD4633
:102C9C0080BC7047002C01400004004080B487B019
:102CAC0000AFF860B9607A60FB681B6A7B61FB68F7
:102CBC001B6A23F00102FB681A62FB689B693B618B
:102CCC003B6923F0F0033B617B681B013A691343BA
:102CDC003B617B6923F00A037B617A69BB68134310
:102CEC007B61FB683A699A61FB687A691A6200BF7A
:102CFC001C37BD4680BC704780B487B000AFF8600D
:102D0C00B9607A60FB681B6A7B61FB681B6A23F005
:102D1C001002FB681A62FB689B693B613B6923F4F8
:102D2C0070433B617B681B033A6913433B617B69CE
:102D3C0023F0A0037B61BB681B017A6913437B61A1
:102D4C00FB683A699A61FB687A691A6200BF1C37A2
:102D5C00BD4680BC704780B485B000AF78603960E8
:102D6C007B689B68FB60FB6823F07003FB603A6830
:102D7C00FB68134343F00703FB607B68FA689A60B7
:102D8C0000BF1437BD4680BC704780B487B000AF1D
:102D9C00F860B9607A603B60FB689B687B617B691B
:102DAC0023F47F437B613B681A027B681A43BB6840
:102DBC0013437A6913437B61FB687A699A6000BF9D
:102DCC001C37BD4680BC704780B485B000AF7860BE
:102DDC0039607B6893F83C30012B01D1022341E030
:102DEC007B68012283F83C207B68022283F83D201B
:102DFC007B681B685B68FB607B681B689B68BB60BF
:102E0C00FB6823F07003FB603B681B68FA68134394
:102E1C00FB607B681B68FA685A607B681B68144A05
:102E2C00934209D07B681B68B3F1804F04D07B6858
:102E3C001B68104A93420CD1BB6823F08003BB6023
:102E4C003B685B68BA681343BB607B681B68BA68F5
:102E5C009A607B68012283F83D207B68002283F80E
:102E6C003C20002318461437BD4680BC704700BF79
:102E7C00002C01400004004080B483B000AF7860A7
:102E8C0000BF0C37BD4680BC704780B483B000AF28
:102E9C00786000BF0C37BD4680BC704770B500260B
:102EAC000C4D0D4C641BA410A64209D100F022F865
:102EBC0000260A4D0A4C641BA410A64205D170BD15
:102ECC0055F8043B98470136EEE755F8043B984714
:102EDC000136F2E73C2F00083C2F00083C2F00087D
:102EEC00402F000803460244934200D1704703F878
:102EFC00011BF9E7F8B500BFF8BC08BC9E4670474B
:0C2F0C00F8B500BFF8BC08BC9E4670473A
:102F18000000000000000000010203040607080981
:102F280002030405060708090A0B0C0D0E0F101002
:042F38000102000092
:042F3C003101000857
:042F40000D01000877
:102F44000008014000080140000801400008014059
:102F540002000400080010000A0000000100000044
:0C2F640000127A001000000001000000C4
:04000005080018894E
:00000001FF
