:020000040800F2
:100000000028002029170008DD130008E31300086A
:10001000E9130008EF130008F513000800000000C2
:10002000000000000000000000000000FB130008BA
:100030000714000800000000131400081F14000833
:100040007117000871170008711700087117000870
:100050007117000871170008711700087117000860
:100060007117000871170008711700087117000850
:100070007117000871170008711700087117000840
:100080007117000871170008711700087117000830
:100090007117000871170008711700087117000820
:1000A0007117000871170008711700087117000810
:1000B0007117000871170008000000007117000890
:1000C0007117000800000000000000007117000810
:1000D0000000000071170008711700080000000000
:1000E0007117000871170008711700080000000060
:1000F0000000000000000000000000000000000000
:0C01000000000000000000005FF808F1A3
:10010C0010B5054C237833B9044B13B10448AFF345
:10011C0000800123237010BD2C0000200000000083
:10012C00002B000808B5034B1BB103490348AFF380
:10013C00008008BD0000000030000020002B0008EB
:10014C0080B582B000AF78607B68092B00F28081AB
:10015C0001A252F823F000BF8D010008D501000860
:10016C001D02000865020008AD020008F502000837
:10017C003D03000885030008CD03000815040008A2
:10018C0000220121B44801F0C6FD00220221B24830
:10019C0001F0C1FD00220421AF4801F0BCFD00229A
:1001AC000821AD4801F0B7FD00221021AA4801F04A
:1001BC00B2FD00222021A84801F0ADFD0122402112
:1001CC00A54801F0A8FD43E101220121A24801F05C
:1001DC00A2FD00220221A04801F09DFD0022042175
:1001EC009D4801F098FD012208219B4801F093FDE8
:1001FC0001221021984801F08EFD01222021964801
:10020C0001F089FD01224021934801F084FD1FE19A
:10021C0000220121904801F07EFD002202218E482F
:10022C0001F079FD012204218B4801F074FD0022BC
:10023C000821894801F06FFD00221021864801F049
:10024C006AFD01222021844801F065FD0022402135
:10025C00814801F060FDFBE0002201217E4801F0A5
:10026C005AFD002202217C4801F055FD0022042198
:10027C00794801F050FD00220821774801F04BFD30
:10028C0001221021744801F046FD01222021724800
:10029C0001F041FD002240216F4801F03CFDD7E008
:1002AC00012201216C4801F036FD002202216A482E
:1002BC0001F031FD00220421674801F02CFD0122E0
:1002CC000821654801F027FD01221021624801F048
:1002DC0022FD00222021604801F01DFD002240215A
:1002EC005D4801F018FDB3E0002201215A4801F0ED
:1002FC0012FD01220221584801F00DFD00220421BB
:10030C00554801F008FD00220821534801F003FD77
:10031C0001221021504801F0FEFC002220214E4801
:10032C0001F0F9FC002240214B4801F0F4FC8FE075
:10033C0000220121484801F0EEFC0122022146482E
:10034C0001F0E9FC00220421434801F0E4FC002206
:10035C000821414801F0DFFC002210213E4801F049
:10036C00DAFC002220213C4801F0D5FC002240217F
:10037C00394801F0D0FC6BE000220121364801F035
:10038C00CAFC00220221344801F0C5FC00220421E1
:10039C00314801F0C0FC012208212F4801F0BBFCC0
:1003AC00012210212C4801F0B6FC012220212A4800
:1003BC0001F0B1FC01224021274801F0ACFC47E0E0
:1003CC0000220121244801F0A6FC0022022122482F
:1003DC0001F0A1FC002204211F4801F09CFC00222A
:1003EC0008211D4801F097FC002210211A4801F049
:1003FC0092FC00222021184801F08DFC00224021A3
:10040C00154801F088FC23E000220121124801F07C
:10041C0082FC00220221104801F07DFC0022042104
:10042C000D4801F078FC002208210B4801F073FC08
:10043C0001221021084801F06EFC00222021064800
:10044C0001F069FC00224021034801F064FC00BF6C
:10045C0000BF0837BD4680BD000C014080B582B09E
:10046C0000AF78607B68032B76D801A252F823F09A
:10047C008D040008C3040008F90400082F050008C7
:10048C0000222021374801F046FC0122402135484A
:10049C0001F041FC01228021324801F03CFC012298
:1004AC004FF480712F4801F036FC2F4B1B68184617
:1004BC00FFF746FE51E0012220212A4801F02BFCD7
:1004CC0000224021274801F026FC012280212548EA
:1004DC0001F021FC01224FF48071224801F01BFC39
:1004EC00214B5B681846FFF72BFE36E001222021DA
:1004FC001C4801F010FC012240211A4801F00BFCB1
:10050C0000228021174801F006FC01224FF4807173
:10051C00144801F000FC144B9B681846FFF710FEC2
:10052C001BE0012220210F4801F0F5FB01224021A4
:10053C000C4801F0F0FB012280210A4801F0EBFB92
:10054C0000224FF48071074801F0E5FB064BDB6895
:10055C001846FFF7F5FD00E000BF00BF0837BD46A9
:10056C0080BD00BF000801404C01002080B483B066
:10057C0000AF78607B680D4A82FB03129211DB1787
:10058C00D31A0B4A13607A68084B83FB0213991138
:10059C00D317CB1A4FF47A7101FB03F3D31A044A25
:1005AC00536000BF0C37BD4680BC7047D34D621002
:1005BC004C01002080B483B000AF78607B680D4A9A
:1005CC0082FB03121213DB17D31A0B4A93607A685F
:1005DC00084B83FB02131913D317CB1A42F2107179
:1005EC0001FB03F3D31A044AD36000BF0C37BD469A
:1005FC0080BC7047AD8BDB684C01002080B500AF30
:10060C00144B1B6A002B06D1134B1B6A002B02D117
:10061C00104B19221A62082000F048FE0346012BE9
:10062C0011D10E4B1B6801330C4A13600B4B1B682A
:10063C00032B02DD094B00221A60064B19221A62A9
:10064C00054B00221A62054B1B681846FFF706FF84
:10065C0000BF80BD50000020780000204C0000201E
:10066C0080B483B000AF7860094A7B6852F82330BD
:10067C00012B06D1064A7B68002142F82310012386
:10068C0000E0002318460C37BD4680BC704700BF05
:10069C000C01002080B483B000AF7860094A7B68FD
:1006AC0052F82330012B06D1064A7B68002142F810
:1006BC002310012300E0002318460C37BD4680BCF4
:1006CC00704700BF3C01002080B582B000AF002312
:1006DC007B6088E0484A7B6852F8232047497B6856
:1006EC0041F82320464A7B6852F8232042497B6814
:1006FC0041F82320434A7B6852F8232042497B6807
:10070C0031F813301946104601F0EEFA034619463B
:10071C003B4A7B6842F82310374A7B6852F8232007
:10072C0037497B6851F823309A4259D1324A7B6859
:10073C0052F8232031497B6851F823309A424FD12B
:10074C002E4A7B6852F8232030497B6851F82330BD
:10075C009A4225D0294A7B6852F823202B497B6882
:10076C0041F82320294A7B6852F82330002B05D10D
:10077C00274A7B68C82142F8231031E0244A7B6861
:10078C0052F82330002B2BDD214A7B6852F82330A2
:10079C00C72B25DC1F4A7B68012142F823101FE080
:1007AC001A4A7B6852F82330002B19D1184A7B68FF
:1007BC0052F82330002B08DD154A7B6852F82330A1
:1007CC005A1E13497B6841F82320114A7B6852F862
:1007DC002330002B04D1104A7B68012142F82310EE
:1007EC007B6801337B607B68032B7FF773AF00BFA3
:1007FC0000BF0837BD4680BDEC0000202C01002056
:10080C00DC0000200000002010000020CC000020A4
:10081C00FC0000200C0100203C01002080B500AF42
:10082C00974B1B68013B052B00F21C8101A252F86F
:10083C0023F000BF59080008A7080008F9090008B0
:10084C008D090008710A00081509000841F2883169
:10085C00002000F00DFD40F6B831012000F008FD3D
:10086C00884B41F288321A60864B40F6B8325A6097
:10087C00844B4FF4FA629A6000F080FE824B1B6846
:10088C0019331846FFF772FE0020FFF793FEFFF7AF
:10089C00B5FE7B4B02221A60EDE000F0C7FD7A4BEF
:1008AC001B6819331846FFF761FE0020FFF782FE24
:1008BC00012000F0FBFC0346012B11D1714B9B680E
:1008CC001946012000F0D4FC6D4B06221A606E4BC9
:1008DC001B6819331846FFF749FE0020FFF76AFE24
:1008EC000120FFF7BDFE0346012B02D1644B1522FC
:1008FC001A600220FFF7B4FE0346012B40F0B480CF
:10090C005F4B1F221A60AFE000F0BAFD5E4B1B6814
:10091C0019331846FFF72AFE0020FFF74BFE012083
:10092C0000F0C4FC0346012B17D1564B1B6819462B
:10093C00012000F09DFC534B5B681946002000F031
:10094C0097FC4F4B04221A604F4B1B681933184607
:10095C00FFF70CFE0020FFF72DFE0120FFF780FEB5
:10096C000346012B02D1464B15221A600220FFF7D9
:10097C0077FE0346012B79D1414B1F221A6075E09B
:10098C0000F0A8FD404B1B6819331846FFF7EEFD2D
:10099C000020FFF70FFE002000F088FC0346012B1F
:1009AC0011D1374B03221A60364B9B681946002035
:1009BC0000F05EFC344B1B6819331846FFF7D6FD6C
:1009CC000020FFF7F7FD0120FFF74AFE0346012B3D
:1009DC0002D12B4B15221A600220FFF741FE034671
:1009EC00012B45D1264B1F221A6041E000F09CFDE3
:1009FC00254B1B6819331846FFF7B8FD0020FFF78D
:100A0C00D9FD002000F052FC0346012B17D11C4BE2
:100A1C0002221A601B4B1B681946002000F028FCB0
:100A2C00184B5B681946012000F022FC164B1B6822
:100A3C0019331846FFF79AFD0020FFF7BBFD012084
:100A4C00FFF70EFE0346012B02D10D4B15221A6047
:100A5C000220FFF705FE0346012B0BD1084B1F228A
:100A6C001A6007E000BF06E000BF04E000BF02E030
:100A7C0000BF00E000BFFFF7C1FD00BF80BD00BF9D
:100A8C001C000020A00000205000002080B500AF0A
:100A9C009F4B1B681F3B0A2B00F2318101A252F8BD
:100AAC0023F000BFDD0A0008F30A00087D0B0008E4
:100ABC00070C00080B0D00080B0D00080B0D0008AF
:100ACC000B0D00080B0D00080B0D00089F0C000807
:100ADC00904B1B681846FFF76DFD0020FFF746FD95
:100AEC008B4B20221A6000F073FD8A4B1B68184652
:100AFC00FFF760FD0020FFF739FD0020FFF7B0FD88
:100B0C000346012B0DD1834B1B6803F57A73814A85
:100B1C001360804B1B68804A934202DD7D4B7F4AF9
:100B2C001A600120FFF79CFD0346012B0CD1794B79
:100B3C001B68A3F57A73774A1360764B1B68002BFE
:100B4C0002DC744B00221A600220FFF789FD034679
:100B5C00012B02D16E4B21221A600320FFF780FD7E
:100B6C000346012B40F0CD80694B01221A60C8E08E
:100B7C0000F058FD674B9B681846FFF71BFD0020E3
:100B8C00FFF7F4FC0020FFF76BFD0346012B0DD1A2
:100B9C00604B9B6803F57A735E4A93605D4B9B6870
:100BAC005D4A934202DD5B4B5C4A9A600120FFF781
:100BBC0057FD0346012B0CD1564B9B68A3F57A735A
:100BCC00544A9360534B9B68002B02DC514B002220
:100BDC009A600220FFF744FD0346012B02D14C4BD7
:100BEC0022221A600320FFF73BFD0346012B40F045
:100BFC008A80474B01221A6085E000F03DFD454B91
:100C0C005B681846FFF7D6FC0020FFF7AFFC00200E
:100C1C00FFF726FD0346012B0DD13E4B5B6803F518
:100C2C007A733C4A53603B4B5B683B4A934202DD10
:100C3C00384B3A4A5A600120FFF712FD0346012B4C
:100C4C000CD1344B5B68A3F57A73324A5360314B49
:100C5C005B68002B02DC2F4B00225A600220FFF74E
:100C6C00FFFC0346012B0AD14FF4FA71042000F06B
:100C7C00FFFA274B29221A60294B00221A700320F5
:100C8C00FFF7EEFC0346012B3FD1214B01221A60EA
:100C9C003BE0204B5A681F4B9B681A441D4B1B684A
:100CAC009A4210D0042000F001FB0346012B26D100
:100CBC001B4B1B78032B02D800F008FD1FE0144BD4
:100CCC0001221A601BE0032000F0F0FA0346012B0E
:100CDC0015D1134B1B78012B02D800F0F7FC0EE05A
:100CEC000C4B1B681946002000F0C2FA094B5B68DC
:100CFC001946012000F0BCFA054B02221A6000BF15
:100D0C0004E000BF02E000BF00E000BF00BF80BDF8
:100D1C001C000020A0000020B7820100B882010056
:100D2C004800002080B500AF714B1B68153B062BAB
:100D3C0000F2D18001A252F823F000BF650D00082B
:100D4C00770D0008E30E0008B10E0008150E000820
:100D5C00C90D0008650E00080020FFF707FC0020F5
:100D6C00FFF728FC624B16221A6000F05FFB002094
:100D7C00FFF776FC0346012B07D15D4B1A221A6054
:100D8C004FF4FA61022000F073FA0020FFF782FCA6
:100D9C000346012B07D1564B18221A604FF47A7177
:100DAC00032000F065FA0320FFF75AFC0346012BE1
:100DBC0040F093804E4B01221A608EE000F032FC22
:100DCC00022000F073FA0346012B05D1484B19227F
:100DDC001A60484B00229A600020FFF75BFC034628
:100DEC00012B07D1424B18221A604FF47A71032061
:100DFC0000F03EFA0320FFF733FC0346012B6ED1C3
:100E0C003B4B01221A606AE000F064FB0020FFF704
:100E1C0027FC0346012B07D14FF4FA61022000F0A6
:100E2C0027FA334B1B221A600020FFF733FC0346D2
:100E3C00012B07D12E4B18221A604FF47A71032024
:100E4C0000F016FA0320FFF70BFC0346012B48D1E8
:100E5C00274B01221A6044E000F0E4FB022000F072
:100E6C0025FA0346012B05D1214B16221A60214B82
:100E7C0000229A600020FFF70DFC0346012B07D1DE
:100E8C001B4B18221A604FF47A71032000F0F0F912
:100E9C000320FFF7E5FB0346012B24D1144B012261
:100EAC001A6020E000F06AFB032000F0FFF9034613
:100EBC00012B06D100F0B6FB4FF47A71032000F041
:100ECC00D7F90320FFF7CCFB0346012B0DD1084BC0
:100EDC0001221A6009E000BF08E000BF06E000BF75
:100EEC0004E000BF02E000BF00E000BF00BF80BD17
:100EFC001C0000207800002080B500AF00F034FC0E
:100F0C0000F030F800F0B6F800F068F80F4801F087
:100F1C005FFB0A2200210E4800F012F90A22002180
:100F2C000C4800F00DF90A2200210B4800F008F9DA
:100F3C000A220021094800F003F90A22002108487E
:100F4C0000F0FEF800F052F9FCE700BF5C01002055
:100F5C00E1120008D506000829080008990A0008C3
:100F6C00310D000880B590B000AF07F118032822AE
:100F7C000021184601F0B6FD3B1D00221A605A6094
:100F8C009A60DA601A610223BB610123BB621023F1
:100F9C00FB6200237B6307F11803184600F0ECFE9C
:100FAC000346002B01D000F0C5F80F237B60002313
:100FBC00BB600023FB6000233B6100237B613B1D76
:100FCC000021184601F058F90346002B01D000F01F
:100FDC00B1F800BF4037BD4680BD000080B586B07B
:100FEC0000AF07F1080300221A605A609A60DA60B9
:100FFC003B4600221A605A601D4B4FF080421A602B
:10100C001B4B41F63F725A60194B00229A60184BE9
:10101C000922DA60164B00221A61154B00229A61E4
:10102C00134801F085FA0346002B01D000F082F83A
:10103C004FF48053BB6007F1080319460C4801F0CC
:10104C0013FB0346002B01D000F074F800233B6027
:10105C0000237B603B461946054801F0C7FC03465C
:10106C00002B01D000F066F800BF1837BD4680BDDC
:10107C005C01002080B586B000AF07F108030022A8
:10108C001A605A609A60DA60274B9B69264A43F0D3
:10109C0004039361244B9B6903F004037B607B681E
:1010AC00214B9B69204A43F0080393611E4B9B69BB
:1010BC0003F008033B603B6800224FF6E0511B48ED
:1010CC0000F029FE00227F21194800F024FE1E2387
:1010DC00BB600023FB6001233B6107F10803194649
:1010EC00124800F087FC4FF6E053BB600123FB6015
:1010FC0000233B6102237B6107F1080319460B486F
:10110C0000F078FC7F23BB600123FB6000233B6174
:10111C0002237B6107F108031946054800F06AFCBD
:10112C0000BF1837BD4680BD0010024000080140CA
:10113C00000C014080B400AF72B600BFFEE70000A7
:10114C0080B485B000AFF860B9607A60254B1B782D
:10115C00272B42D8234B1B781946234A0B469B005E
:10116C000B449B001344FA681A601E4B1B781946FB
:10117C001D4A0B469B000B449B0013440433BA6876
:10118C001A60184B1B781946174A0B469B000B44E8
:10119C009B00134408337A681A60124B1B7819466B
:1011AC00114A0B469B000B449B0013440C3300224A
:1011BC001A700C4B1A780B4B1B78194610460A4ABE
:1011CC000B469B000B449B00134410331860054BDB
:1011DC001B780133DAB2034B1A7000BF1437BD46CB
:1011EC0080BC7047C8000020A401002080B582B0EC
:1011FC0000AF00237B602BE01B497A6813469B00F1
:10120C0013449B000B440C331B78002B1DD0164948
:10121C007A6813469B0013449B000B441B68984749
:10122C0011497A6813469B0013449B000B440C3302
:10123C001B78013BD8B20C497A6813469B001344C7
:10124C009B000B440C3302461A707B6801337B60A5
:10125C00064B1B781A467B689342CDDB00BF00BF60
:10126C000837BD4680BD00BFA4010020C800002087
:10127C0080B483B000AF78603960094B1B683A6862
:10128C0092FBF3F207497B6841F82320064A7B68FE
:10129C00002142F8231000BF0C37BD4680BC7047BC
:1012AC0018000020500000207800002080B483B08B
:1012BC0000AF7860064A7B6852F82330012B01D1CD
:1012CC00012300E0002318460C37BD4680BC704754
:1012DC007800002080B483B000AF00237B601CE05A
:1012EC00124A7B6852F82330002B13DD0F4A7B68BF
:1012FC0052F823305A1E0D497B6841F823200B4AC3
:10130C007B6852F82330002B04DC094A7B680121EE
:10131C0042F823107B6801337B607B68092BDFDD8F
:10132C0000BF00BF0C37BD4680BC7047500000208A
:10133C007800002080B485B000AF154B9B69144A2F
:10134C0043F001039361124B9B6903F00103BB60F3
:10135C00BB680F4BDB690E4A43F08053D3610C4BD7
:10136C00DB6903F080537B607B680A4B5B68FB6036
:10137C00FB6823F0E063FB60FB6843F08063FB6079
:10138C00044AFB68536000BF1437BD4680BC7047ED
:10139C00001002400000014080B485B000AF7860BE
:1013AC007B681B68B3F1804F0BD1084BDB69074A94
:1013BC0043F00103D361054BDB6903F00103FB60D0
:1013CC00FB6800BF1437BD4680BC7047001002405C
:1013DC0080B400AFFEE780B400AFFEE780B400AF8E
:1013EC00FEE780B400AFFEE780B400AFFEE780B448
:1013FC0000AF00BFBD4680BC704780B400AF00BFDB
:10140C00BD4680BC704780B400AF00BFBD4680BCF9
:10141C00704780B500AF00F0EDF900BF80BD80B41F
:10142C0000AF00BFBD4680BC7047000080B500AF68
:10143C0001224FF48061114800F06DFC00224FF442
:10144C0080510E4800F067FC00224FF400610B48FD
:10145C0000F061FC00224FF40051084800F05BFCE6
:10146C0001224FF40041054800F055FC00224FF4D6
:10147C008041024800F04FFC00BF80BD00080140D5
:10148C0080B500AF01224FF48061114800F043FC9D
:10149C0000224FF480510E4800F03DFC00224FF426
:1014AC0000610B4800F037FC00224FF40051084853
:1014BC0000F031FC00224FF40041054800F02BFCF9
:1014CC0001224FF48041024800F025FC00BF80BD92
:1014DC000008014080B500AF00224FF48061114834
:1014EC0000F019FC01224FF480510E4800F013FC5F
:1014FC0000224FF400610B4800F00DFC01224FF468
:10150C000051084800F007FC00224FF40041054848
:10151C0000F001FC00224FF48041024800F0FBFB7C
:10152C0000BF80BD0008014080B500AF00224FF421
:10153C008061114800F0EFFB00224FF480510E48FF
:10154C0000F0E9FB01224FF400610B4800F0E3FBD3
:10155C0001224FF40051084800F0DDFB00224FF44B
:10156C000041054800F0D7FB00224FF480410248AF
:10157C0000F0D1FB00BF80BD0008014080B500AF7A
:10158C0000224FF48061114800F0C5FB00224FF49B
:10159C0080510E4800F0BFFB00224FF400610B4855
:1015AC0000F0B9FB00224FF40051084800F0B3FBE7
:1015BC0000224FF40041054800F0ADFB00224FF42F
:1015CC008041024800F0A7FB00BF80BD000801402D
:1015DC0080B500AF01224FF48061114800F09BFBF5
:1015EC0000224FF480510E4800F095FB00224FF47E
:1015FC0000610B4800F08FFB01224FF400510848AA
:10160C0000F089FB00224FF40041054800F083FBF9
:10161C0000224FF48041024800F07DFB00BF80BDEA
:10162C000008014080B500AF00224FF480611148E2
:10163C0000F071FB00224FF480510E4800F06BFB60
:10164C0001224FF400610B4800F065FB00224FF4BF
:10165C000051084800F05FFB00224FF400410548A0
:10166C0000F059FB01224FF48041024800F053FB7B
:10167C0000BF80BD0008014080B500AF00224FF4D0
:10168C008061114800F047FB01224FF480510E4855
:10169C0000F041FB00224FF400610B4800F03BFBD3
:1016AC0000224FF40051084800F035FB01224FF4A2
:1016BC000041054800F02FFB00224FF48041024806
:1016CC0000F029FB00BF80BD0008014080B500AFD1
:1016DC0000224FF48061104800F01DFB00224FF4F3
:1016EC0080510D4800F017FB4FF400610A4800F0E0
:1016FC002AFB00224FF40051074800F00CFB00229B
:10170C004FF40041044800F006FB4FF480410248BE
:10171C0000F019FB00BF80BD00080140FFF77FFE01
:10172C000B480C490C4A002302E0D458C450043333
:10173C00C4188C42F9D3094A094C002301E0136008
:10174C000432A242FBD301F0A9F9FFF7D5FB704795
:10175C00000000202C000020442B00082C0000204E
:10176C00C8040020FEE7000080B500AF084B1B68E2
:10177C00074A43F010031360032000F007F90F2011
:10178C0000F008F8FFF7D6FD0023184680BD00BF17
:10179C000020024080B582B000AF7860124B1A680E
:1017AC00124B1B7819464FF47A73B3FBF1F3B2FB6F
:1017BC00F3F3184600F011F90346002B01D0012376
:1017CC000EE07B680F2B0AD8002279684FF0FF30AF
:1017DC0000F0E7F8064A7B681360002300E0012361
:1017EC0018460837BD4680BD200000202800002088
:1017FC002400002080B400AF054B1B781A46054B23
:10180C001B681344034A136000BFBD4680BC70477D
:10181C0028000020C404002080B400AF024B1B68D9
:10182C001846BD4680BC7047C404002080B485B007
:10183C0000AF78607B6803F00703FB600C4BDB6840
:10184C00BB60BA684FF6FF031340BB60FB681A021B
:10185C00BB68134343F0BF6343F40033BB60044ADB
:10186C00BB68D36000BF1437BD4680BC704700BF57
:10187C0000ED00E080B400AF044BDB681B0A03F002
:10188C0007031846BD4680BC704700BF00ED00E062
:10189C0080B483B000AF03463960FB7197F9073011
:1018AC00002B0ADB3B68DAB20C4997F907301201BE
:1018BC00D2B20B4483F800230AE03B68DAB2084941
:1018CC00FB7903F00F03043B1201D2B20B441A76DE
:1018DC0000BF0C37BD4680BC704700BF00E100E084
:1018EC0000ED00E080B489B000AFF860B9607A60B8
:1018FC00FB6803F00703FB61FB69C3F10703042BCF
:10190C0028BF0423BB61FB690433062B02D9FB6996
:10191C00033B00E000237B614FF0FF32BB6902FA0E
:10192C0003F3DA43BB681A407B699A404FF0FF31EE
:10193C007B6901FA03F3D9437B680B4013431846C8
:10194C002437BD4680BC704780B582B000AF78604C
:10195C007B68013BB3F1807F01D301230FE00A4A7E
:10196C007B68013B53600F214FF0FF30FFF790FF76
:10197C00054B00229A60044B07221A60002318467C
:10198C000837BD4680BD00BF10E000E080B582B0D6
:10199C0000AF78607868FFF749FF00BF0837BD4695
:1019AC0080BD80B586B000AF0346B9607A60FB732A
:1019BC0000237B61FFF75EFF78617A68B96878690C
:1019CC00FFF790FF024697F90F3011461846FFF7C4
:1019DC005FFF00BF1837BD4680BD80B582B000AF39
:1019EC0078607868FFF7B0FF034618460837BD46A5
:1019FC0080BD000080B48BB000AF786039600023EC
:101A0C007B6200233B6248E101227B6A02FA03F30A
:101A1C00FB613B681B68FA691340BB61BA69FB69DF
:101A2C009A4240F037813B685B68A34A93425ED090
:101A3C00A14A934275D8A14A934258D09F4A9342E7
:101A4C006FD89F4A934252D09D4A934269D89D4A7F
:101A5C0093424CD09B4A934263D89B4A934246D0C4
:101A6C00994A93425DD8122B2AD8122B59D801A22D
:101A7C0052F823F0FB1A0008D51A0008E71A0008E0
:101A8C00291B00082F1B00082F1B00082F1B000808
:101A9C002F1B00082F1B00082F1B00082F1B0008F2
:101AAC002F1B00082F1B00082F1B00082F1B0008E2
:101ABC002F1B00082F1B0008DD1A0008F11A000864
:101ACC00824A934213D02CE03B68DB683B6229E0EE
:101ADC003B68DB6804333B6224E03B68DB6808331B
:101AEC003B621FE03B68DB680C333B621AE03B68EF
:101AFC009B68002B02D104233B6213E03B689B687C
:101B0C00012B05D108233B627B68FA691A6109E055
:101B1C0008233B627B68FA695A6103E000233B624D
:101B2C0000E000BFBB69FF2B01D87B6801E07B683C
:101B3C0004337B61BB69FF2B02D87B6A9B0002E0FC
:101B4C007B6A083B9B003B617B691A680F213B69F0
:101B5C0001FA03F3DB431A40396A3B6901FA03F3D8
:101B6C001A437B691A603B685B6803F08053002B57
:101B7C0000F09080564B9B69554A43F001039361EA
:101B8C00534B9B6903F00103BB60BB68514A7B6AF2
:101B9C009B08023352F82330FB607B6A03F003038B
:101BAC009B000F2202FA03F3DB43FA681340FB603D
:101BBC007B68494A93420DD07B68484A934207D0D0
:101BCC007B68474A934201D1022304E0032302E0DD
:101BDC00012300E000237A6A02F003029200934092
:101BEC00FA681343FB603B497B6A9B080233FA6833
:101BFC0041F823203B685B6803F48013002B06D06C
:101C0C00384B9A683749BB6913438B6006E0354BF8
:101C1C009A68BB69DB43334913408B603B685B6854
:101C2C0003F40013002B06D02E4BDA682D49BB6948
:101C3C001343CB6006E02B4BDA68BB69DB432949C5
:101C4C001340CB603B685B6803F40033002B06D079
:101C5C00244B5A682349BB6913434B6006E0214B64
:101C6C005A68BB69DB431F4913404B603B685B6898
:101C7C0003F48033002B06D01A4B1A681949BB6940
:101C8C0013430B6006E0174B1A68BB69DB4315491D
:101C9C0013400B607B6A01337B623B681A687B6A7A
:101CAC0022FA03F3002B7FF4AFAE00BF00BF2C373A
:101CBC00BD4680BC704700BF0000321000003110E0
:101CCC000000221000002110000012100000111062
:101CDC00001002400000014000080140000C0140CF
:101CEC00001001400004014080B485B000AF786062
:101CFC000B467B807B689A687B881340002B02D054
:101D0C000123FB7301E00023FB73FB7B18461437A4
:101D1C00BD4680BC704780B483B000AF78600B4682
:101D2C007B8013467B707B78002B03D07A887B6892
:101D3C001A6103E07B881A047B681A6100BF0C37B8
:101D4C00BD4680BC704780B485B000AF78600B4650
:101D5C007B807B68DB68FB607A88FB6813401A0425
:101D6C00FB68D9437B880B401A437B681A6100BF20
:101D7C001437BD4680BC704780B586B000AF786024
:101D8C007B68002B01D101236CE27B681B6803F09C
:101D9C000103002B00F08780924B5B6803F00C036F
:101DAC00042B0CD08F4B5B6803F00C03082B12D167
:101DBC008C4B5B6803F48033B3F5803F0BD1894BBC
:101DCC001B6803F40033002B6CD07B685B68002B22
:101DDC0068D1012346E27B685B68B3F5803F06D18E
:101DEC00804B1B687F4A43F4803313602EE07B6882
:101DFC005B68002B0CD17B4B1B687A4A23F4803335
:101E0C001360784B1B68774A23F4802313601DE022
:101E1C007B685B68B3F5A02F0CD1724B1B68714AC1
:101E2C0043F4802313606F4B1B686E4A43F480337A
:101E3C0013600BE06B4B1B686A4A23F4803313600E
:101E4C00684B1B68674A23F4802313607B685B68CC
:101E5C00002B13D0FFF7E0FC386108E0FFF7DCFC47
:101E6C0002463B69D31A642B01D90323FAE15D4B7B
:101E7C001B6803F40033002BF0D014E0FFF7CCFC0C
:101E8C00386108E0FFF7C8FC02463B69D31A642BA3
:101E9C0001D90323E6E1534B1B6803F40033002BF9
:101EAC00F0D100E000BF7B681B6803F00203002B3D
:101EBC0063D04C4B5B6803F00C03002B0BD0494BED
:101ECC005B6803F00C03082B1CD1464B5B6803F4D6
:101EDC008033002B16D1434B1B6803F00203002BFD
:101EEC0005D07B681B69012B01D00123BAE13D4B66
:101EFC001B6823F0F8027B685B69DB0039491343EC
:101F0C000B603AE07B681B69002B20D0364B01221A
:101F1C001A60FFF781FC386108E0FFF77DFC024690
:101F2C003B69D31A022B01D903239BE12D4B1B6870
:101F3C0003F00203002BF0D02A4B1B6823F0F802AD
:101F4C007B685B69DB00274913430B6015E0264B6C
:101F5C0000221A60FFF760FC386108E0FFF75CFCB8
:101F6C0002463B69D31A022B01D903237AE11D4B9C
:101F7C001B6803F00203002BF0D17B681B6803F095
:101F8C000803002B3AD07B689B69002B19D0174BA8
:101F9C0001221A60FFF740FC386108E0FFF73CFCB7
:101FAC0002463B69D31A022B01D903235AE10D4B8C
:101FBC005B6A03F00203002BF0D0012000F09AFAC8
:101FCC001CE00A4B00221A60FFF726FC38610FE078
:101FDC00FFF722FC02463B69D31A022B08D90323D4
:101FEC0040E100BF00100240000042428004424227
:101FFC009E4B5B6A03F00203002BE9D17B681B68E4
:10200C0003F00403002B00F0A6800023FB75974B14
:10201C00DB6903F08053002B0DD1944BDB69934AA1
:10202C0043F08053D361914BDB6903F08053BB6069
:10203C00BB680123FB758E4B1B6803F48073002B6C
:10204C0018D18B4B1B688A4A43F480731360FFF7DB
:10205C00E3FB386108E0FFF7DFFB02463B69D31A6C
:10206C00642B01D90323FDE0814B1B6803F48073BF
:10207C00002BF0D07B68DB68012B06D17B4B1B6AF5
:10208C007A4A43F0010313622DE07B68DB68002B76
:10209C000CD1764B1B6A754A23F001031362734B08
:1020AC001B6A724A23F0040313621CE07B68DB6832
:1020BC00052B0CD16D4B1B6A6C4A43F00403136265
:1020CC006A4B1B6A694A43F0010313620BE0674BCE
:1020DC001B6A664A23F001031362644B1B6A634A52
:1020EC0023F0040313627B68DB68002B15D0FFF729
:1020FC0093FB38610AE0FFF78FFB02463B69D31A6A
:10210C0041F28832934201D90323ABE0574B1B6A4F
:10211C0003F00203002BEED014E0FFF77DFB3861D7
:10212C000AE0FFF779FB02463B69D31A41F2883289
:10213C00934201D9032395E04C4B1B6A03F0020335
:10214C00002BEED1FB7D012B05D1484BDB69474AB7
:10215C0023F08053D3617B68DB69002B00F0818016
:10216C00424B5B6803F00C03082B61D07B68DB6986
:10217C00022B46D13F4B00221A60FFF74DFB386112
:10218C0008E0FFF749FB02463B69D31A022B01D941
:10219C00032367E0354B1B6803F00073002BF0D171
:1021AC007B681B6AB3F5803F08D1304B5B6823F426
:1021BC0000327B689B682D4913434B602B4B5B684B
:1021CC0023F474127B68196A7B685B6A0B4327499A
:1021DC0013434B60274B01221A60FFF71DFB38613C
:1021EC0008E0FFF719FB02463B69D31A022B01D911
:1021FC00032337E01D4B1B6803F00073002BF0D05A
:10220C002FE01C4B00221A60FFF706FB386108E038
:10221C00FFF702FB02463B69D31A022B01D90323B9
:10222C0020E0124B1B6803F00073002BF0D118E078
:10223C007B68DB69012B01D1012313E00B4B5B683D
:10224C00FB60FB6803F480327B681B6A9A4206D100
:10225C00FB6803F470127B685B6A9A4201D001231D
:10226C0000E0002318461837BD4680BD0010024020
:10227C00007000406000424280B584B000AF7860CE
:10228C0039607B68002B01D10123D0E06A4B1B68BD
:10229C0003F007033A689A4210D9674B1B6823F086
:1022AC00070265493B6813430B60634B1B6803F0E3
:1022BC0007033A689A4201D00123B8E07B681B6897
:1022CC0003F00203002B20D07B681B6803F004038F
:1022DC00002B05D0594B5B68584A43F4E0635360BC
:1022EC007B681B6803F00803002B05D0534B5B681D
:1022FC00524A43F460535360504B5B6823F0F00236
:10230C007B689B684D4913434B607B681B6803F0EB
:10231C000103002B40D07B685B68012B07D1474B36
:10232C001B6803F40033002B15D101237FE07B687D
:10233C005B68022B07D1414B1B6803F00073002B29
:10234C0009D1012373E03D4B1B6803F00203002B02
:10235C0001D101236BE0394B5B6823F003027B68EE
:10236C005B68364913434B60FFF756FAF8600AE096
:10237C00FFF752FA0246FB68D31A41F288329342B5
:10238C0001D9032353E02D4B5B6803F00C027B68EF
:10239C005B689B009A42EBD1274B1B6803F0070349
:1023AC003A689A4210D2244B1B6823F00702224948
:1023BC003B6813430B60204B1B6803F007033A6820
:1023CC009A4201D0012332E07B681B6803F00403BE
:1023DC00002B08D0194B5B6823F4E0627B68DB6848
:1023EC00164913434B607B681B6803F00803002BF2
:1023FC0009D0124B5B6823F460527B681B69DB00CD
:10240C000E4913434B6000F021F802460B4B5B68FE
:10241C001B0903F00F030A49CB5C22FA03F3094AA8
:10242C001360094B1B681846FFF7B4F900231846D4
:10243C001037BD4680BD00BF002002400010024096
:10244C00182B0008200000202400002080B487B046
:10245C0000AF0023FB600023BB6000237B610023E3
:10246C007B6000233B611E4B5B68FB60FB6803F0E9
:10247C000C03042B02D0082B03D027E0194B3B6133
:10248C0027E0FB689B0C03F00F03174AD35C7B60BF
:10249C00FB6803F48033002B10D0114B5B685B0C92
:1024AC0003F00103114AD35CBB607B680D4A02FB4D
:1024BC0003F2BB68B2FBF3F37B6104E07B680C4A6C
:1024CC0002FB03F37B617B693B6102E0054B3B61E3
:1024DC0000BF3B6918461C37BD4680BC704700BF27
:1024EC000010024000127A00282B0008382B00083C
:1024FC0000093D0080B485B000AF78600A4B1B68C2
:10250C000A4AA2FB03235B0A7A6802FB03F3FB6013
:10251C0000BFFB685A1EFA60002BF9D100BF00BF48
:10252C001437BD4680BC704720000020D34D62108C
:10253C0080B582B000AF78607B68002B01D101239D
:10254C0041E07B6893F83D30DBB2002B06D17B6811
:10255C00002283F83C207868FEF71EFF7B6802227D
:10256C0083F83D207B681A687B6804331946104653
:10257C0000F042F97B68012283F846207B68012237
:10258C0083F83E207B68012283F83F207B68012280
:10259C0083F840207B68012283F841207B6801226C
:1025AC0083F842207B68012283F843207B68012258
:1025BC0083F844207B68012283F845207B68012244
:1025CC0083F83D20002318460837BD4680BD000027
:1025DC0080B485B000AF78607B6893F83D30DBB297
:1025EC00012B01D0012335E07B68022283F83D20CA
:1025FC007B681B68DA687B681B6842F00102DA6052
:10260C007B681B68164A934209D07B681B68B3F140
:10261C00804F04D07B681B68124A934211D17B68AF
:10262C001B689B6803F00703FB60FB68062B10D04C
:10263C007B681B681A687B681B6842F001021A6091
:10264C0007E07B681B681A687B681B6842F0010214
:10265C001A60002318461437BD4680BC704700BF73
:10266C00002C01400004004080B584B000AF7860BD
:10267C0039600023FB737B6893F83C30012B01D14C
:10268C000223B4E07B68012283F83C207B680222A1
:10269C0083F83D207B681B689B68BB60BB6823F09C
:1026AC007703BB60BB6823F47F43BB607B681B680C
:1026BC00BA689A603B681B68B3F5005F3ED0B3F50F
:1026CC00005F00F28780B3F5805F00F08680B3F581
:1026DC00805F7FD8702B1AD0702B7BD8602B50D09A
:1026EC00602B77D8502B3CD0502B73D8402B58D024
:1026FC00402B6FD8302B64D0302B6BD8202B60D074
:10270C00202B67D8002B5CD0102B5AD062E07B6852
:10271C0018683B6899683B685A683B68DB6800F04E
:10272C0046F97B681B689B68BB60BB6843F077030A
:10273C00BB607B681B68BA689A604FE07B6818685E
:10274C003B6899683B685A683B68DB6800F02FF976
:10275C007B681B689A687B681B6842F480429A60AD
:10276C003CE07B6818683B6859683B68DB681A4634
:10277C0000F0A6F87B681B685021184600F0FDF8A5
:10278C002CE07B6818683B6859683B68DB681A4624
:10279C0000F0C4F87B681B686021184600F0EDF867
:1027AC001CE07B6818683B6859683B68DB681A4614
:1027BC0000F086F87B681B684021184600F0DDF8B5
:1027CC000CE07B681A683B681B681946104600F0E1
:1027DC00D4F803E00123FB7300E000BF7B68012207
:1027EC0083F83D207B68002283F83C20FB7B184655
:1027FC001037BD4680BD000080B485B000AF786056
:10280C0039607B681B68FB607B682B4A934207D05E
:10281C007B68B3F1804F03D07B68284A934208D180
:10282C00FB6823F07003FB603B685B68FA6813433A
:10283C00FB607B68204A934207D07B68B3F1804FE2
:10284C0003D07B681D4A934208D1FB6823F4407384
:10285C00FB603B68DB68FA681343FB60FB6823F0A2
:10286C0080023B685B691343FB607B68FA681A6003
:10287C003B689A687B68DA623B681A687B689A6284
:10288C007B680D4A934203D13B681A697B681A63D3
:10289C007B6801225A617B681B6903F00103002BE2
:1028AC0005D07B681B6923F001027B681A6100BFAD
:1028BC001437BD4680BC7047002C0140000400401A
:1028CC0080B487B000AFF860B9607A60FB681B6AAF
:1028DC007B61FB681B6A23F00102FB681A62FB68D0
:1028EC009B693B613B6923F0F0033B617B681B01F7
:1028FC003A6913433B617B6923F00A037B617A6974
:10290C00BB6813437B61FB683A699A61FB687A691F
:10291C001A6200BF1C37BD4680BC704780B487B0BC
:10292C0000AFF860B9607A60FB681B6A7B61FB687A
:10293C001B6A23F01002FB681A62FB689B693B61FF
:10294C003B6923F470433B617B681B033A69134377
:10295C003B617B6923F0A0037B61BB681B017A6937
:10296C0013437B61FB683A699A61FB687A691A6266
:10297C0000BF1C37BD4680BC704780B485B000AF2B
:10298C00786039607B689B68FB60FB6823F07003A0
:10299C00FB603A68FB68134343F00703FB607B68FA
:1029AC00FA689A6000BF1437BD4680BC704780B48B
:1029BC0087B000AFF860B9607A603B60FB689B68D9
:1029CC007B617B6923F47F437B613B681A027B68E4
:1029DC001A43BB6813437A6913437B61FB687A69BA
:1029EC009A6000BF1C37BD4680BC704780B485B070
:1029FC0000AF786039607B6893F83C30012B01D1D3
:102A0C00022341E07B68012283F83C207B68022290
:102A1C0083F83D207B681B685B68FB607B681B68E8
:102A2C009B68BB60FB6823F07003FB603B681B6812
:102A3C00FA681343FB607B681B68FA685A607B6812
:102A4C001B68144A934209D07B681B68B3F1804F12
:102A5C0004D07B681B68104A93420CD1BB6823F0EE
:102A6C008003BB603B685B68BA681343BB607B68E0
:102A7C001B68BA689A607B68012283F83D207B68EA
:102A8C00002283F83C20002318461437BD4680BC36
:102A9C00704700BF002C01400004004070B50026B8
:102AAC000C4D0D4C641BA410A64209D100F022F869
:102ABC0000260A4D0A4C641BA410A64205D170BD19
:102ACC0055F8043B98470136EEE755F8043B984718
:102ADC000136F2E73C2B00083C2B00083C2B00088D
:102AEC00402B000803460244934200D1704703F880
:102AFC00011BF9E7F8B500BFF8BC08BC9E4670474F
:0C2B0C00F8B500BFF8BC08BC9E4670473E
:102B18000000000000000000010203040607080985
:102B280002030405060708090A0B0C0D0E0F101006
:042B38000102000096
:042B3C00310100085B
:042B40000D0100087B
:102B4400000801400008014000080140000801405D
:102B540002000400080010000A0000000100000048
:0C2B640000127A001000000001000000C8
:0400000508001729AF
:00000001FF
